{"contracts/QuantumFactory.sol":{"QuantumFactory":{"abi":[{"anonymous":false,"inputs":[{"indexed":true,"internalType":"address","name":"tokenAddress","type":"address"},{"indexed":true,"internalType":"string","name":"assetName","type":"string"},{"indexed":true,"internalType":"address","name":"deployer","type":"address"}],"name":"TokenDeployed","type":"event"},{"inputs":[{"internalType":"string","name":"_name","type":"string"},{"internalType":"string","name":"_symbol","type":"string"},{"internalType":"string","name":"_assetName","type":"string"},{"internalType":"string","name":"_assetType","type":"string"},{"internalType":"uint256","name":"_totalAssetValue","type":"uint256"},{"internalType":"uint256","name":"_apy","type":"uint256"},{"internalType":"uint256","name":"_maturityDate","type":"uint256"},{"internalType":"uint256","name":"_maxSupply","type":"uint256"}],"name":"deployToken","outputs":[{"internalType":"address","name":"","type":"address"}],"stateMutability":"nonpayable","type":"function"},{"inputs":[{"internalType":"uint256","name":"","type":"uint256"}],"name":"deployedTokens","outputs":[{"internalType":"address","name":"","type":"address"}],"stateMutability":"view","type":"function"},{"inputs":[],"name":"getDeployedTokenCount","outputs":[{"internalType":"uint256","name":"","type":"uint256"}],"stateMutability":"view","type":"function"},{"inputs":[],"name":"getDeployedTokens","outputs":[{"internalType":"address[]","name":"","type":"address[]"}],"stateMutability":"view","type":"function"},{"inputs":[{"internalType":"address","name":"","type":"address"}],"name":"isTokenDeployed","outputs":[{"internalType":"bool","name":"","type":"bool"}],"stateMutability":"view","type":"function"}],"evm":{"bytecode":{"linkReferences":{},"object":"608060405234801561001057600080fd5b50611a0c806100206000396000f3fe60806040523480156200001157600080fd5b50600436106200005e5760003560e01c806313ad9a561462000063578063622ae7aa1462000097578063804215f614620000b0578063a6c74fd414620000c2578063ec81aadb14620000f9575b600080fd5b6200007a6200007436600462000363565b62000110565b6040516001600160a01b0390911681526020015b60405180910390f35b620000a16200021b565b6040516200008e919062000441565b6000546040519081526020016200008e565b620000e8620000d336600462000490565b60016020526000908152604090205460ff1681565b60405190151581526020016200008e565b6200007a6200010a366004620004c2565b6200027f565b60008089898989898989896040516200012990620002aa565b6200013c98979695949392919062000530565b604051809103906000f08015801562000159573d6000803e3d6000fd5b5060008054600180820183557f290decd9548b62a8d60345a988386fc84ba6bc95484008f6362f93160ef3e56390910180546001600160a01b0319166001600160a01b03851690811790915582526020819052604091829020805460ff191690911790555190915081903390620001d2908b90620005b0565b604051908190038120906001600160a01b038416907fa478de12ee228957dfaa33d0f5521a8e01d6bd190a08b87d88c1ee72015079c890600090a49a9950505050505050505050565b606060008054806020026020016040519081016040528092919081815260200182805480156200027557602002820191906000526020600020905b81546001600160a01b0316815260019091019060200180831162000256575b5050505050905090565b600081815481106200029057600080fd5b6000918252602090912001546001600160a01b0316905081565b61140880620005cf83390190565b634e487b7160e01b600052604160045260246000fd5b600082601f830112620002e057600080fd5b813567ffffffffffffffff80821115620002fe57620002fe620002b8565b604051601f8301601f19908116603f01168101908282118183101715620003295762000329620002b8565b816040528381528660208588010111156200034357600080fd5b836020870160208301376000602085830101528094505050505092915050565b600080600080600080600080610100898b0312156200038157600080fd5b883567ffffffffffffffff808211156200039a57600080fd5b620003a88c838d01620002ce565b995060208b0135915080821115620003bf57600080fd5b620003cd8c838d01620002ce565b985060408b0135915080821115620003e457600080fd5b620003f28c838d01620002ce565b975060608b01359150808211156200040957600080fd5b50620004188b828c01620002ce565b989b979a50959860808101359760a0820135975060c0820135965060e090910135945092505050565b6020808252825182820181905260009190848201906040850190845b81811015620004845783516001600160a01b0316835292840192918401916001016200045d565b50909695505050505050565b600060208284031215620004a357600080fd5b81356001600160a01b0381168114620004bb57600080fd5b9392505050565b600060208284031215620004d557600080fd5b5035919050565b60005b83811015620004f9578181015183820152602001620004df565b50506000910152565b600081518084526200051c816020860160208601620004dc565b601f01601f19169290920160200192915050565b6000610100808352620005468184018c62000502565b905082810360208401526200055c818b62000502565b9050828103604084015262000572818a62000502565b9050828103606084015262000588818962000502565b9150508560808301528460a08301528360c08301528260e08301529998505050505050505050565b60008251620005c4818460208701620004dc565b919091019291505056fe6080604052600b805460ff191660011790553480156200001e57600080fd5b5060405162001408380380620014088339810160408190526200004191620001f1565b338888600362000052838262000360565b50600462000061828262000360565b5050506001600160a01b0381166200009357604051631e4fbdf760e01b81526000600482015260240160405180910390fd5b6200009e81620000da565b506006620000ad878262000360565b506007620000bc868262000360565b50600893909355600991909155600a55600c55506200042c92505050565b600580546001600160a01b038381166001600160a01b0319831681179093556040519116919082907f8be0079c531659141344cd1fd0a4f28419497f9722a3daafe3b4186f6b6457e090600090a35050565b634e487b7160e01b600052604160045260246000fd5b600082601f8301126200015457600080fd5b81516001600160401b03808211156200017157620001716200012c565b604051601f8301601f19908116603f011681019082821181831017156200019c576200019c6200012c565b81604052838152602092508683858801011115620001b957600080fd5b600091505b83821015620001dd5785820183015181830184015290820190620001be565b600093810190920192909252949350505050565b600080600080600080600080610100898b0312156200020f57600080fd5b88516001600160401b03808211156200022757600080fd5b620002358c838d0162000142565b995060208b01519150808211156200024c57600080fd5b6200025a8c838d0162000142565b985060408b01519150808211156200027157600080fd5b6200027f8c838d0162000142565b975060608b01519150808211156200029657600080fd5b50620002a58b828c0162000142565b9550506080890151935060a0890151925060c0890151915060e089015190509295985092959890939650565b600181811c90821680620002e657607f821691505b6020821081036200030757634e487b7160e01b600052602260045260246000fd5b50919050565b601f8211156200035b57600081815260208120601f850160051c81016020861015620003365750805b601f850160051c820191505b81811015620003575782815560010162000342565b5050505b505050565b81516001600160401b038111156200037c576200037c6200012c565b62000394816200038d8454620002d1565b846200030d565b602080601f831160018114620003cc5760008415620003b35750858301515b600019600386901b1c1916600185901b17855562000357565b600085815260208120601f198616915b82811015620003fd57888601518255948401946001909101908401620003dc565b50858210156200041c5787850151600019600388901b60f8161c191681555b5050505050600190811b01905550565b610fcc806200043c6000396000f3fe608060405234801561001057600080fd5b50600436106101a95760003560e01c806379cc6790116100f9578063c9230c5d11610097578063db006a7511610071578063db006a7514610347578063dd62ed3e1461035a578063f2fde38b14610393578063fae728cd146103a657600080fd5b8063c9230c5d1461032d578063d59624b414610335578063d5abeb011461033e57600080fd5b806395d89b41116100d357806395d89b41146102f25780639fd6db12146102fa578063a9059cbb14610307578063c7a6ca351461031a57600080fd5b806379cc6790146102bb5780638da5cb5b146102ce5780638f90ae5a146102e957600080fd5b80633fe3347a116101665780634ea3871a116101405780634ea3871a1461025c5780635e3109e71461026f57806370a082311461028a578063715018a6146102b357600080fd5b80633fe3347a1461022c57806340c10f191461023457806342966c681461024957600080fd5b806306fdde03146101ae578063095ea7b3146101cc57806318160ddd146101ef57806323b872dd14610201578063313ce567146102145780633bcfc4b814610223575b600080fd5b6101b66103b9565b6040516101c39190610dc6565b60405180910390f35b6101df6101da366004610dfc565b61044b565b60405190151581526020016101c3565b6002545b6040519081526020016101c3565b6101df61020f366004610e26565b610465565b604051601281526020016101c3565b6101f360095481565b6101b6610489565b610247610242366004610dfc565b610517565b005b610247610257366004610e62565b610617565b61024761026a366004610e7b565b610624565b61027761063f565b6040516101c39796959493929190610e9d565b6101f3610298366004610eed565b6001600160a01b031660009081526020819052604090205490565b610247610792565b6102476102c9366004610dfc565b6107a6565b6005546040516001600160a01b0390911681526020016101c3565b6101f360085481565b6101b66107bf565b600b546101df9060ff1681565b6101df610315366004610dfc565b6107ce565b610247610328366004610e62565b6107dc565b6101b661082a565b6101f3600a5481565b6101f3600c5481565b610247610355366004610e62565b610837565b6101f3610368366004610f08565b6001600160a01b03918216600090815260016020908152604080832093909416825291909152205490565b6102476103a1366004610eed565b610925565b6102476103b4366004610e62565b610960565b6060600380546103c890610f3b565b80601f01602080910402602001604051908101604052809291908181526020018280546103f490610f3b565b80156104415780601f1061041657610100808354040283529160200191610441565b820191906000526020600020905b81548152906001019060200180831161042457829003601f168201915b5050505050905090565b6000336104598185856109a6565b60019150505b92915050565b6000336104738582856109b8565b61047e858585610a37565b506001949350505050565b6007805461049690610f3b565b80601f01602080910402602001604051908101604052809291908181526020018280546104c290610f3b565b801561050f5780601f106104e45761010080835404028352916020019161050f565b820191906000526020600020905b8154815290600101906020018083116104f257829003601f168201915b505050505081565b61051f610a96565b600b5460ff1661056c5760405162461bcd60e51b8152602060048201526013602482015272135a5b9d1a5b99c81a5cc8191a5cd8589b1959606a1b60448201526064015b60405180910390fd5b600c548161057960025490565b6105839190610f75565b11156105c65760405162461bcd60e51b815260206004820152601260248201527145786365656473206d617820737570706c7960701b6044820152606401610563565b6105d08282610ac3565b604080518281524260208201526001600160a01b038416917fae6f573e24512836b8d9f28578ff4ce358e90bc8ef0bfc89838fe2775ed6b294910160405180910390a25050565b6106213382610af9565b50565b61062c610a96565b600b805460ff1916911515919091179055565b606080600080600080600060066007600854600954600a5461066060025490565b600c5486805461066f90610f3b565b80601f016020809104026020016040519081016040528092919081815260200182805461069b90610f3b565b80156106e85780601f106106bd576101008083540402835291602001916106e8565b820191906000526020600020905b8154815290600101906020018083116106cb57829003601f168201915b505050505096508580546106fb90610f3b565b80601f016020809104026020016040519081016040528092919081815260200182805461072790610f3b565b80156107745780601f1061074957610100808354040283529160200191610774565b820191906000526020600020905b81548152906001019060200180831161075757829003601f168201915b50505050509550965096509650965096509650965090919293949596565b61079a610a96565b6107a46000610b2f565b565b6107b18233836109b8565b6107bb8282610af9565b5050565b6060600480546103c890610f3b565b600033610459818585610a37565b6107e4610a96565b600a80549082905560408051828152602081018490527fa48099c9062f9d4078fbda2b682d4671df1c2da28c684ac0a45d02393cca13fe91015b60405180910390a15050565b6006805461049690610f3b565b3360009081526020819052604090205481111561088d5760405162461bcd60e51b8152602060048201526014602482015273496e73756666696369656e742062616c616e636560601b6044820152606401610563565b600a54156108df57600a544210156108df5760405162461bcd60e51b8152602060048201526015602482015274105cdcd95d081b9bdd081b585d1d5c9959081e595d605a1b6044820152606401610563565b6108e881610617565b6040805182815242602082015233917f9e6d67515e2bbe86f12a5db49672c07b83805378d93a9c3a41e5350af97b65b3910160405180910390a250565b61092d610a96565b6001600160a01b03811661095757604051631e4fbdf760e01b815260006004820152602401610563565b61062181610b2f565b610968610a96565b600980549082905560408051828152602081018490527f787a1fca55641ce34a438271930bbb9401df20db2b4f510d4f252227d85df43d910161081e565b6109b38383836001610b81565b505050565b6001600160a01b03838116600090815260016020908152604080832093861683529290522054600019811015610a315781811015610a2257604051637dc7a0d960e11b81526001600160a01b03841660048201526024810182905260448101839052606401610563565b610a3184848484036000610b81565b50505050565b6001600160a01b038316610a6157604051634b637e8f60e11b815260006004820152602401610563565b6001600160a01b038216610a8b5760405163ec442f0560e01b815260006004820152602401610563565b6109b3838383610c56565b6005546001600160a01b031633146107a45760405163118cdaa760e01b8152336004820152602401610563565b6001600160a01b038216610aed5760405163ec442f0560e01b815260006004820152602401610563565b6107bb60008383610c56565b6001600160a01b038216610b2357604051634b637e8f60e11b815260006004820152602401610563565b6107bb82600083610c56565b600580546001600160a01b038381166001600160a01b0319831681179093556040519116919082907f8be0079c531659141344cd1fd0a4f28419497f9722a3daafe3b4186f6b6457e090600090a35050565b6001600160a01b038416610bab5760405163e602df0560e01b815260006004820152602401610563565b6001600160a01b038316610bd557604051634a1406b160e11b815260006004820152602401610563565b6001600160a01b0380851660009081526001602090815260408083209387168352929052208290558015610a3157826001600160a01b0316846001600160a01b03167f8c5be1e5ebec7d5bd14f71427d1e84f3dd0314c0f7b2291e5b200ac8c7c3b92584604051610c4891815260200190565b60405180910390a350505050565b6001600160a01b038316610c81578060026000828254610c769190610f75565b90915550610cf39050565b6001600160a01b03831660009081526020819052604090205481811015610cd45760405163391434e360e21b81526001600160a01b03851660048201526024810182905260448101839052606401610563565b6001600160a01b03841660009081526020819052604090209082900390555b6001600160a01b038216610d0f57600280548290039055610d2e565b6001600160a01b03821660009081526020819052604090208054820190555b816001600160a01b0316836001600160a01b03167fddf252ad1be2c89b69c2b068fc378daa952ba7f163c4a11628f55a4df523b3ef83604051610d7391815260200190565b60405180910390a3505050565b6000815180845260005b81811015610da657602081850181015186830182015201610d8a565b506000602082860101526020601f19601f83011685010191505092915050565b602081526000610dd96020830184610d80565b9392505050565b80356001600160a01b0381168114610df757600080fd5b919050565b60008060408385031215610e0f57600080fd5b610e1883610de0565b946020939093013593505050565b600080600060608486031215610e3b57600080fd5b610e4484610de0565b9250610e5260208501610de0565b9150604084013590509250925092565b600060208284031215610e7457600080fd5b5035919050565b600060208284031215610e8d57600080fd5b81358015158114610dd957600080fd5b60e081526000610eb060e083018a610d80565b8281036020840152610ec2818a610d80565b604084019890985250506060810194909452608084019290925260a083015260c09091015292915050565b600060208284031215610eff57600080fd5b610dd982610de0565b60008060408385031215610f1b57600080fd5b610f2483610de0565b9150610f3260208401610de0565b90509250929050565b600181811c90821680610f4f57607f821691505b602082108103610f6f57634e487b7160e01b600052602260045260246000fd5b50919050565b8082018082111561045f57634e487b7160e01b600052601160045260246000fdfea26469706673582212209f71f0aee6f36fbdecdd6c195f20c45b6d79431aef018f2b99815e7f3924952f64736f6c63430008140033a264697066735822122011672a98e0e2f8d039df60206128a9f5a29454f14c676a030763b607b218e88864736f6c63430008140033","opcodes":"PUSH1 0x80 PUSH1 0x40 MSTORE CALLVALUE DUP1 ISZERO PUSH2 0x10 JUMPI PUSH1 0x0 DUP1 REVERT JUMPDEST POP PUSH2 0x1A0C DUP1 PUSH2 0x20 PUSH1 0x0 CODECOPY PUSH1 0x0 RETURN INVALID PUSH1 0x80 PUSH1 0x40 MSTORE CALLVALUE DUP1 ISZERO PUSH3 0x11 JUMPI PUSH1 0x0 DUP1 REVERT JUMPDEST POP PUSH1 0x4 CALLDATASIZE LT PUSH3 0x5E JUMPI PUSH1 0x0 CALLDATALOAD PUSH1 0xE0 SHR DUP1 PUSH4 0x13AD9A56 EQ PUSH3 0x63 JUMPI DUP1 PUSH4 0x622AE7AA EQ PUSH3 0x97 JUMPI DUP1 PUSH4 0x804215F6 EQ PUSH3 0xB0 JUMPI DUP1 PUSH4 0xA6C74FD4 EQ PUSH3 0xC2 JUMPI DUP1 PUSH4 0xEC81AADB EQ PUSH3 0xF9 JUMPI JUMPDEST PUSH1 0x0 DUP1 REVERT JUMPDEST PUSH3 0x7A PUSH3 0x74 CALLDATASIZE PUSH1 0x4 PUSH3 0x363 JUMP JUMPDEST PUSH3 0x110 JUMP JUMPDEST PUSH1 0x40 MLOAD PUSH1 0x1 PUSH1 0x1 PUSH1 0xA0 SHL SUB SWAP1 SWAP2 AND DUP2 MSTORE PUSH1 0x20 ADD JUMPDEST PUSH1 0x40 MLOAD DUP1 SWAP2 SUB SWAP1 RETURN JUMPDEST PUSH3 0xA1 PUSH3 0x21B JUMP JUMPDEST PUSH1 0x40 MLOAD PUSH3 0x8E SWAP2 SWAP1 PUSH3 0x441 JUMP JUMPDEST PUSH1 0x0 SLOAD PUSH1 0x40 MLOAD SWAP1 DUP2 MSTORE PUSH1 0x20 ADD PUSH3 0x8E JUMP JUMPDEST PUSH3 0xE8 PUSH3 0xD3 CALLDATASIZE PUSH1 0x4 PUSH3 0x490 JUMP JUMPDEST PUSH1 0x1 PUSH1 0x20 MSTORE PUSH1 0x0 SWAP1 DUP2 MSTORE PUSH1 0x40 SWAP1 KECCAK256 SLOAD PUSH1 0xFF AND DUP2 JUMP JUMPDEST PUSH1 0x40 MLOAD SWAP1 ISZERO ISZERO DUP2 MSTORE PUSH1 0x20 ADD PUSH3 0x8E JUMP JUMPDEST PUSH3 0x7A PUSH3 0x10A CALLDATASIZE PUSH1 0x4 PUSH3 0x4C2 JUMP JUMPDEST PUSH3 0x27F JUMP JUMPDEST PUSH1 0x0 DUP1 DUP10 DUP10 DUP10 DUP10 DUP10 DUP10 DUP10 DUP10 PUSH1 0x40 MLOAD PUSH3 0x129 SWAP1 PUSH3 0x2AA JUMP JUMPDEST PUSH3 0x13C SWAP9 SWAP8 SWAP7 SWAP6 SWAP5 SWAP4 SWAP3 SWAP2 SWAP1 PUSH3 0x530 JUMP JUMPDEST PUSH1 0x40 MLOAD DUP1 SWAP2 SUB SWAP1 PUSH1 0x0 CREATE DUP1 ISZERO DUP1 ISZERO PUSH3 0x159 JUMPI RETURNDATASIZE PUSH1 0x0 DUP1 RETURNDATACOPY RETURNDATASIZE PUSH1 0x0 REVERT JUMPDEST POP PUSH1 0x0 DUP1 SLOAD PUSH1 0x1 DUP1 DUP3 ADD DUP4 SSTORE PUSH32 0x290DECD9548B62A8D60345A988386FC84BA6BC95484008F6362F93160EF3E563 SWAP1 SWAP2 ADD DUP1 SLOAD PUSH1 0x1 PUSH1 0x1 PUSH1 0xA0 SHL SUB NOT AND PUSH1 0x1 PUSH1 0x1 PUSH1 0xA0 SHL SUB DUP6 AND SWAP1 DUP2 OR SWAP1 SWAP2 SSTORE DUP3 MSTORE PUSH1 0x20 DUP2 SWAP1 MSTORE PUSH1 0x40 SWAP2 DUP3 SWAP1 KECCAK256 DUP1 SLOAD PUSH1 0xFF NOT AND SWAP1 SWAP2 OR SWAP1 SSTORE MLOAD SWAP1 SWAP2 POP DUP2 SWAP1 CALLER SWAP1 PUSH3 0x1D2 SWAP1 DUP12 SWAP1 PUSH3 0x5B0 JUMP JUMPDEST PUSH1 0x40 MLOAD SWAP1 DUP2 SWAP1 SUB DUP2 KECCAK256 SWAP1 PUSH1 0x1 PUSH1 0x1 PUSH1 0xA0 SHL SUB DUP5 AND SWAP1 PUSH32 0xA478DE12EE228957DFAA33D0F5521A8E01D6BD190A08B87D88C1EE72015079C8 SWAP1 PUSH1 0x0 SWAP1 LOG4 SWAP11 SWAP10 POP POP POP POP POP POP POP POP POP POP JUMP JUMPDEST PUSH1 0x60 PUSH1 0x0 DUP1 SLOAD DUP1 PUSH1 0x20 MUL PUSH1 0x20 ADD PUSH1 0x40 MLOAD SWAP1 DUP2 ADD PUSH1 0x40 MSTORE DUP1 SWAP3 SWAP2 SWAP1 DUP2 DUP2 MSTORE PUSH1 0x20 ADD DUP3 DUP1 SLOAD DUP1 ISZERO PUSH3 0x275 JUMPI PUSH1 0x20 MUL DUP3 ADD SWAP2 SWAP1 PUSH1 0x0 MSTORE PUSH1 0x20 PUSH1 0x0 KECCAK256 SWAP1 JUMPDEST DUP2 SLOAD PUSH1 0x1 PUSH1 0x1 PUSH1 0xA0 SHL SUB AND DUP2 MSTORE PUSH1 0x1 SWAP1 SWAP2 ADD SWAP1 PUSH1 0x20 ADD DUP1 DUP4 GT PUSH3 0x256 JUMPI JUMPDEST POP POP POP POP POP SWAP1 POP SWAP1 JUMP JUMPDEST PUSH1 0x0 DUP2 DUP2 SLOAD DUP2 LT PUSH3 0x290 JUMPI PUSH1 0x0 DUP1 REVERT JUMPDEST PUSH1 0x0 SWAP2 DUP3 MSTORE PUSH1 0x20 SWAP1 SWAP2 KECCAK256 ADD SLOAD PUSH1 0x1 PUSH1 0x1 PUSH1 0xA0 SHL SUB AND SWAP1 POP DUP2 JUMP JUMPDEST PUSH2 0x1408 DUP1 PUSH3 0x5CF DUP4 CODECOPY ADD SWAP1 JUMP JUMPDEST PUSH4 0x4E487B71 PUSH1 0xE0 SHL PUSH1 0x0 MSTORE PUSH1 0x41 PUSH1 0x4 MSTORE PUSH1 0x24 PUSH1 0x0 REVERT JUMPDEST PUSH1 0x0 DUP3 PUSH1 0x1F DUP4 ADD SLT PUSH3 0x2E0 JUMPI PUSH1 0x0 DUP1 REVERT JUMPDEST DUP2 CALLDATALOAD PUSH8 0xFFFFFFFFFFFFFFFF DUP1 DUP3 GT ISZERO PUSH3 0x2FE JUMPI PUSH3 0x2FE PUSH3 0x2B8 JUMP JUMPDEST PUSH1 0x40 MLOAD PUSH1 0x1F DUP4 ADD PUSH1 0x1F NOT SWAP1 DUP2 AND PUSH1 0x3F ADD AND DUP2 ADD SWAP1 DUP3 DUP3 GT DUP2 DUP4 LT OR ISZERO PUSH3 0x329 JUMPI PUSH3 0x329 PUSH3 0x2B8 JUMP JUMPDEST DUP2 PUSH1 0x40 MSTORE DUP4 DUP2 MSTORE DUP7 PUSH1 0x20 DUP6 DUP9 ADD ADD GT ISZERO PUSH3 0x343 JUMPI PUSH1 0x0 DUP1 REVERT JUMPDEST DUP4 PUSH1 0x20 DUP8 ADD PUSH1 0x20 DUP4 ADD CALLDATACOPY PUSH1 0x0 PUSH1 0x20 DUP6 DUP4 ADD ADD MSTORE DUP1 SWAP5 POP POP POP POP POP SWAP3 SWAP2 POP POP JUMP JUMPDEST PUSH1 0x0 DUP1 PUSH1 0x0 DUP1 PUSH1 0x0 DUP1 PUSH1 0x0 DUP1 PUSH2 0x100 DUP10 DUP12 SUB SLT ISZERO PUSH3 0x381 JUMPI PUSH1 0x0 DUP1 REVERT JUMPDEST DUP9 CALLDATALOAD PUSH8 0xFFFFFFFFFFFFFFFF DUP1 DUP3 GT ISZERO PUSH3 0x39A JUMPI PUSH1 0x0 DUP1 REVERT JUMPDEST PUSH3 0x3A8 DUP13 DUP4 DUP14 ADD PUSH3 0x2CE JUMP JUMPDEST SWAP10 POP PUSH1 0x20 DUP12 ADD CALLDATALOAD SWAP2 POP DUP1 DUP3 GT ISZERO PUSH3 0x3BF JUMPI PUSH1 0x0 DUP1 REVERT JUMPDEST PUSH3 0x3CD DUP13 DUP4 DUP14 ADD PUSH3 0x2CE JUMP JUMPDEST SWAP9 POP PUSH1 0x40 DUP12 ADD CALLDATALOAD SWAP2 POP DUP1 DUP3 GT ISZERO PUSH3 0x3E4 JUMPI PUSH1 0x0 DUP1 REVERT JUMPDEST PUSH3 0x3F2 DUP13 DUP4 DUP14 ADD PUSH3 0x2CE JUMP JUMPDEST SWAP8 POP PUSH1 0x60 DUP12 ADD CALLDATALOAD SWAP2 POP DUP1 DUP3 GT ISZERO PUSH3 0x409 JUMPI PUSH1 0x0 DUP1 REVERT JUMPDEST POP PUSH3 0x418 DUP12 DUP3 DUP13 ADD PUSH3 0x2CE JUMP JUMPDEST SWAP9 SWAP12 SWAP8 SWAP11 POP SWAP6 SWAP9 PUSH1 0x80 DUP2 ADD CALLDATALOAD SWAP8 PUSH1 0xA0 DUP3 ADD CALLDATALOAD SWAP8 POP PUSH1 0xC0 DUP3 ADD CALLDATALOAD SWAP7 POP PUSH1 0xE0 SWAP1 SWAP2 ADD CALLDATALOAD SWAP5 POP SWAP3 POP POP POP JUMP JUMPDEST PUSH1 0x20 DUP1 DUP3 MSTORE DUP3 MLOAD DUP3 DUP3 ADD DUP2 SWAP1 MSTORE PUSH1 0x0 SWAP2 SWAP1 DUP5 DUP3 ADD SWAP1 PUSH1 0x40 DUP6 ADD SWAP1 DUP5 JUMPDEST DUP2 DUP2 LT ISZERO PUSH3 0x484 JUMPI DUP4 MLOAD PUSH1 0x1 PUSH1 0x1 PUSH1 0xA0 SHL SUB AND DUP4 MSTORE SWAP3 DUP5 ADD SWAP3 SWAP2 DUP5 ADD SWAP2 PUSH1 0x1 ADD PUSH3 0x45D JUMP JUMPDEST POP SWAP1 SWAP7 SWAP6 POP POP POP POP POP POP JUMP JUMPDEST PUSH1 0x0 PUSH1 0x20 DUP3 DUP5 SUB SLT ISZERO PUSH3 0x4A3 JUMPI PUSH1 0x0 DUP1 REVERT JUMPDEST DUP2 CALLDATALOAD PUSH1 0x1 PUSH1 0x1 PUSH1 0xA0 SHL SUB DUP2 AND DUP2 EQ PUSH3 0x4BB JUMPI PUSH1 0x0 DUP1 REVERT JUMPDEST SWAP4 SWAP3 POP POP POP JUMP JUMPDEST PUSH1 0x0 PUSH1 0x20 DUP3 DUP5 SUB SLT ISZERO PUSH3 0x4D5 JUMPI PUSH1 0x0 DUP1 REVERT JUMPDEST POP CALLDATALOAD SWAP2 SWAP1 POP JUMP JUMPDEST PUSH1 0x0 JUMPDEST DUP4 DUP2 LT ISZERO PUSH3 0x4F9 JUMPI DUP2 DUP2 ADD MLOAD DUP4 DUP3 ADD MSTORE PUSH1 0x20 ADD PUSH3 0x4DF JUMP JUMPDEST POP POP PUSH1 0x0 SWAP2 ADD MSTORE JUMP JUMPDEST PUSH1 0x0 DUP2 MLOAD DUP1 DUP5 MSTORE PUSH3 0x51C DUP2 PUSH1 0x20 DUP7 ADD PUSH1 0x20 DUP7 ADD PUSH3 0x4DC JUMP JUMPDEST PUSH1 0x1F ADD PUSH1 0x1F NOT AND SWAP3 SWAP1 SWAP3 ADD PUSH1 0x20 ADD SWAP3 SWAP2 POP POP JUMP JUMPDEST PUSH1 0x0 PUSH2 0x100 DUP1 DUP4 MSTORE PUSH3 0x546 DUP2 DUP5 ADD DUP13 PUSH3 0x502 JUMP JUMPDEST SWAP1 POP DUP3 DUP2 SUB PUSH1 0x20 DUP5 ADD MSTORE PUSH3 0x55C DUP2 DUP12 PUSH3 0x502 JUMP JUMPDEST SWAP1 POP DUP3 DUP2 SUB PUSH1 0x40 DUP5 ADD MSTORE PUSH3 0x572 DUP2 DUP11 PUSH3 0x502 JUMP JUMPDEST SWAP1 POP DUP3 DUP2 SUB PUSH1 0x60 DUP5 ADD MSTORE PUSH3 0x588 DUP2 DUP10 PUSH3 0x502 JUMP JUMPDEST SWAP2 POP POP DUP6 PUSH1 0x80 DUP4 ADD MSTORE DUP5 PUSH1 0xA0 DUP4 ADD MSTORE DUP4 PUSH1 0xC0 DUP4 ADD MSTORE DUP3 PUSH1 0xE0 DUP4 ADD MSTORE SWAP10 SWAP9 POP POP POP POP POP POP POP POP POP JUMP JUMPDEST PUSH1 0x0 DUP3 MLOAD PUSH3 0x5C4 DUP2 DUP5 PUSH1 0x20 DUP8 ADD PUSH3 0x4DC JUMP JUMPDEST SWAP2 SWAP1 SWAP2 ADD SWAP3 SWAP2 POP POP JUMP INVALID PUSH1 0x80 PUSH1 0x40 MSTORE PUSH1 0xB DUP1 SLOAD PUSH1 0xFF NOT AND PUSH1 0x1 OR SWAP1 SSTORE CALLVALUE DUP1 ISZERO PUSH3 0x1E JUMPI PUSH1 0x0 DUP1 REVERT JUMPDEST POP PUSH1 0x40 MLOAD PUSH3 0x1408 CODESIZE SUB DUP1 PUSH3 0x1408 DUP4 CODECOPY DUP2 ADD PUSH1 0x40 DUP2 SWAP1 MSTORE PUSH3 0x41 SWAP2 PUSH3 0x1F1 JUMP JUMPDEST CALLER DUP9 DUP9 PUSH1 0x3 PUSH3 0x52 DUP4 DUP3 PUSH3 0x360 JUMP JUMPDEST POP PUSH1 0x4 PUSH3 0x61 DUP3 DUP3 PUSH3 0x360 JUMP JUMPDEST POP POP POP PUSH1 0x1 PUSH1 0x1 PUSH1 0xA0 SHL SUB DUP2 AND PUSH3 0x93 JUMPI PUSH1 0x40 MLOAD PUSH4 0x1E4FBDF7 PUSH1 0xE0 SHL DUP2 MSTORE PUSH1 0x0 PUSH1 0x4 DUP3 ADD MSTORE PUSH1 0x24 ADD PUSH1 0x40 MLOAD DUP1 SWAP2 SUB SWAP1 REVERT JUMPDEST PUSH3 0x9E DUP2 PUSH3 0xDA JUMP JUMPDEST POP PUSH1 0x6 PUSH3 0xAD DUP8 DUP3 PUSH3 0x360 JUMP JUMPDEST POP PUSH1 0x7 PUSH3 0xBC DUP7 DUP3 PUSH3 0x360 JUMP JUMPDEST POP PUSH1 0x8 SWAP4 SWAP1 SWAP4 SSTORE PUSH1 0x9 SWAP2 SWAP1 SWAP2 SSTORE PUSH1 0xA SSTORE PUSH1 0xC SSTORE POP PUSH3 0x42C SWAP3 POP POP POP JUMP JUMPDEST PUSH1 0x5 DUP1 SLOAD PUSH1 0x1 PUSH1 0x1 PUSH1 0xA0 SHL SUB DUP4 DUP2 AND PUSH1 0x1 PUSH1 0x1 PUSH1 0xA0 SHL SUB NOT DUP4 AND DUP2 OR SWAP1 SWAP4 SSTORE PUSH1 0x40 MLOAD SWAP2 AND SWAP2 SWAP1 DUP3 SWAP1 PUSH32 0x8BE0079C531659141344CD1FD0A4F28419497F9722A3DAAFE3B4186F6B6457E0 SWAP1 PUSH1 0x0 SWAP1 LOG3 POP POP JUMP JUMPDEST PUSH4 0x4E487B71 PUSH1 0xE0 SHL PUSH1 0x0 MSTORE PUSH1 0x41 PUSH1 0x4 MSTORE PUSH1 0x24 PUSH1 0x0 REVERT JUMPDEST PUSH1 0x0 DUP3 PUSH1 0x1F DUP4 ADD SLT PUSH3 0x154 JUMPI PUSH1 0x0 DUP1 REVERT JUMPDEST DUP2 MLOAD PUSH1 0x1 PUSH1 0x1 PUSH1 0x40 SHL SUB DUP1 DUP3 GT ISZERO PUSH3 0x171 JUMPI PUSH3 0x171 PUSH3 0x12C JUMP JUMPDEST PUSH1 0x40 MLOAD PUSH1 0x1F DUP4 ADD PUSH1 0x1F NOT SWAP1 DUP2 AND PUSH1 0x3F ADD AND DUP2 ADD SWAP1 DUP3 DUP3 GT DUP2 DUP4 LT OR ISZERO PUSH3 0x19C JUMPI PUSH3 0x19C PUSH3 0x12C JUMP JUMPDEST DUP2 PUSH1 0x40 MSTORE DUP4 DUP2 MSTORE PUSH1 0x20 SWAP3 POP DUP7 DUP4 DUP6 DUP9 ADD ADD GT ISZERO PUSH3 0x1B9 JUMPI PUSH1 0x0 DUP1 REVERT JUMPDEST PUSH1 0x0 SWAP2 POP JUMPDEST DUP4 DUP3 LT ISZERO PUSH3 0x1DD JUMPI DUP6 DUP3 ADD DUP4 ADD MLOAD DUP2 DUP4 ADD DUP5 ADD MSTORE SWAP1 DUP3 ADD SWAP1 PUSH3 0x1BE JUMP JUMPDEST PUSH1 0x0 SWAP4 DUP2 ADD SWAP1 SWAP3 ADD SWAP3 SWAP1 SWAP3 MSTORE SWAP5 SWAP4 POP POP POP POP JUMP JUMPDEST PUSH1 0x0 DUP1 PUSH1 0x0 DUP1 PUSH1 0x0 DUP1 PUSH1 0x0 DUP1 PUSH2 0x100 DUP10 DUP12 SUB SLT ISZERO PUSH3 0x20F JUMPI PUSH1 0x0 DUP1 REVERT JUMPDEST DUP9 MLOAD PUSH1 0x1 PUSH1 0x1 PUSH1 0x40 SHL SUB DUP1 DUP3 GT ISZERO PUSH3 0x227 JUMPI PUSH1 0x0 DUP1 REVERT JUMPDEST PUSH3 0x235 DUP13 DUP4 DUP14 ADD PUSH3 0x142 JUMP JUMPDEST SWAP10 POP PUSH1 0x20 DUP12 ADD MLOAD SWAP2 POP DUP1 DUP3 GT ISZERO PUSH3 0x24C JUMPI PUSH1 0x0 DUP1 REVERT JUMPDEST PUSH3 0x25A DUP13 DUP4 DUP14 ADD PUSH3 0x142 JUMP JUMPDEST SWAP9 POP PUSH1 0x40 DUP12 ADD MLOAD SWAP2 POP DUP1 DUP3 GT ISZERO PUSH3 0x271 JUMPI PUSH1 0x0 DUP1 REVERT JUMPDEST PUSH3 0x27F DUP13 DUP4 DUP14 ADD PUSH3 0x142 JUMP JUMPDEST SWAP8 POP PUSH1 0x60 DUP12 ADD MLOAD SWAP2 POP DUP1 DUP3 GT ISZERO PUSH3 0x296 JUMPI PUSH1 0x0 DUP1 REVERT JUMPDEST POP PUSH3 0x2A5 DUP12 DUP3 DUP13 ADD PUSH3 0x142 JUMP JUMPDEST SWAP6 POP POP PUSH1 0x80 DUP10 ADD MLOAD SWAP4 POP PUSH1 0xA0 DUP10 ADD MLOAD SWAP3 POP PUSH1 0xC0 DUP10 ADD MLOAD SWAP2 POP PUSH1 0xE0 DUP10 ADD MLOAD SWAP1 POP SWAP3 SWAP6 SWAP9 POP SWAP3 SWAP6 SWAP9 SWAP1 SWAP4 SWAP7 POP JUMP JUMPDEST PUSH1 0x1 DUP2 DUP2 SHR SWAP1 DUP3 AND DUP1 PUSH3 0x2E6 JUMPI PUSH1 0x7F DUP3 AND SWAP2 POP JUMPDEST PUSH1 0x20 DUP3 LT DUP2 SUB PUSH3 0x307 JUMPI PUSH4 0x4E487B71 PUSH1 0xE0 SHL PUSH1 0x0 MSTORE PUSH1 0x22 PUSH1 0x4 MSTORE PUSH1 0x24 PUSH1 0x0 REVERT JUMPDEST POP SWAP2 SWAP1 POP JUMP JUMPDEST PUSH1 0x1F DUP3 GT ISZERO PUSH3 0x35B JUMPI PUSH1 0x0 DUP2 DUP2 MSTORE PUSH1 0x20 DUP2 KECCAK256 PUSH1 0x1F DUP6 ADD PUSH1 0x5 SHR DUP2 ADD PUSH1 0x20 DUP7 LT ISZERO PUSH3 0x336 JUMPI POP DUP1 JUMPDEST PUSH1 0x1F DUP6 ADD PUSH1 0x5 SHR DUP3 ADD SWAP2 POP JUMPDEST DUP2 DUP2 LT ISZERO PUSH3 0x357 JUMPI DUP3 DUP2 SSTORE PUSH1 0x1 ADD PUSH3 0x342 JUMP JUMPDEST POP POP POP JUMPDEST POP POP POP JUMP JUMPDEST DUP2 MLOAD PUSH1 0x1 PUSH1 0x1 PUSH1 0x40 SHL SUB DUP2 GT ISZERO PUSH3 0x37C JUMPI PUSH3 0x37C PUSH3 0x12C JUMP JUMPDEST PUSH3 0x394 DUP2 PUSH3 0x38D DUP5 SLOAD PUSH3 0x2D1 JUMP JUMPDEST DUP5 PUSH3 0x30D JUMP JUMPDEST PUSH1 0x20 DUP1 PUSH1 0x1F DUP4 GT PUSH1 0x1 DUP2 EQ PUSH3 0x3CC JUMPI PUSH1 0x0 DUP5 ISZERO PUSH3 0x3B3 JUMPI POP DUP6 DUP4 ADD MLOAD JUMPDEST PUSH1 0x0 NOT PUSH1 0x3 DUP7 SWAP1 SHL SHR NOT AND PUSH1 0x1 DUP6 SWAP1 SHL OR DUP6 SSTORE PUSH3 0x357 JUMP JUMPDEST PUSH1 0x0 DUP6 DUP2 MSTORE PUSH1 0x20 DUP2 KECCAK256 PUSH1 0x1F NOT DUP7 AND SWAP2 JUMPDEST DUP3 DUP2 LT ISZERO PUSH3 0x3FD JUMPI DUP9 DUP7 ADD MLOAD DUP3 SSTORE SWAP5 DUP5 ADD SWAP5 PUSH1 0x1 SWAP1 SWAP2 ADD SWAP1 DUP5 ADD PUSH3 0x3DC JUMP JUMPDEST POP DUP6 DUP3 LT ISZERO PUSH3 0x41C JUMPI DUP8 DUP6 ADD MLOAD PUSH1 0x0 NOT PUSH1 0x3 DUP9 SWAP1 SHL PUSH1 0xF8 AND SHR NOT AND DUP2 SSTORE JUMPDEST POP POP POP POP POP PUSH1 0x1 SWAP1 DUP2 SHL ADD SWAP1 SSTORE POP JUMP JUMPDEST PUSH2 0xFCC DUP1 PUSH3 0x43C PUSH1 0x0 CODECOPY PUSH1 0x0 RETURN INVALID PUSH1 0x80 PUSH1 0x40 MSTORE CALLVALUE DUP1 ISZERO PUSH2 0x10 JUMPI PUSH1 0x0 DUP1 REVERT JUMPDEST POP PUSH1 0x4 CALLDATASIZE LT PUSH2 0x1A9 JUMPI PUSH1 0x0 CALLDATALOAD PUSH1 0xE0 SHR DUP1 PUSH4 0x79CC6790 GT PUSH2 0xF9 JUMPI DUP1 PUSH4 0xC9230C5D GT PUSH2 0x97 JUMPI DUP1 PUSH4 0xDB006A75 GT PUSH2 0x71 JUMPI DUP1 PUSH4 0xDB006A75 EQ PUSH2 0x347 JUMPI DUP1 PUSH4 0xDD62ED3E EQ PUSH2 0x35A JUMPI DUP1 PUSH4 0xF2FDE38B EQ PUSH2 0x393 JUMPI DUP1 PUSH4 0xFAE728CD EQ PUSH2 0x3A6 JUMPI PUSH1 0x0 DUP1 REVERT JUMPDEST DUP1 PUSH4 0xC9230C5D EQ PUSH2 0x32D JUMPI DUP1 PUSH4 0xD59624B4 EQ PUSH2 0x335 JUMPI DUP1 PUSH4 0xD5ABEB01 EQ PUSH2 0x33E JUMPI PUSH1 0x0 DUP1 REVERT JUMPDEST DUP1 PUSH4 0x95D89B41 GT PUSH2 0xD3 JUMPI DUP1 PUSH4 0x95D89B41 EQ PUSH2 0x2F2 JUMPI DUP1 PUSH4 0x9FD6DB12 EQ PUSH2 0x2FA JUMPI DUP1 PUSH4 0xA9059CBB EQ PUSH2 0x307 JUMPI DUP1 PUSH4 0xC7A6CA35 EQ PUSH2 0x31A JUMPI PUSH1 0x0 DUP1 REVERT JUMPDEST DUP1 PUSH4 0x79CC6790 EQ PUSH2 0x2BB JUMPI DUP1 PUSH4 0x8DA5CB5B EQ PUSH2 0x2CE JUMPI DUP1 PUSH4 0x8F90AE5A EQ PUSH2 0x2E9 JUMPI PUSH1 0x0 DUP1 REVERT JUMPDEST DUP1 PUSH4 0x3FE3347A GT PUSH2 0x166 JUMPI DUP1 PUSH4 0x4EA3871A GT PUSH2 0x140 JUMPI DUP1 PUSH4 0x4EA3871A EQ PUSH2 0x25C JUMPI DUP1 PUSH4 0x5E3109E7 EQ PUSH2 0x26F JUMPI DUP1 PUSH4 0x70A08231 EQ PUSH2 0x28A JUMPI DUP1 PUSH4 0x715018A6 EQ PUSH2 0x2B3 JUMPI PUSH1 0x0 DUP1 REVERT JUMPDEST DUP1 PUSH4 0x3FE3347A EQ PUSH2 0x22C JUMPI DUP1 PUSH4 0x40C10F19 EQ PUSH2 0x234 JUMPI DUP1 PUSH4 0x42966C68 EQ PUSH2 0x249 JUMPI PUSH1 0x0 DUP1 REVERT JUMPDEST DUP1 PUSH4 0x6FDDE03 EQ PUSH2 0x1AE JUMPI DUP1 PUSH4 0x95EA7B3 EQ PUSH2 0x1CC JUMPI DUP1 PUSH4 0x18160DDD EQ PUSH2 0x1EF JUMPI DUP1 PUSH4 0x23B872DD EQ PUSH2 0x201 JUMPI DUP1 PUSH4 0x313CE567 EQ PUSH2 0x214 JUMPI DUP1 PUSH4 0x3BCFC4B8 EQ PUSH2 0x223 JUMPI JUMPDEST PUSH1 0x0 DUP1 REVERT JUMPDEST PUSH2 0x1B6 PUSH2 0x3B9 JUMP JUMPDEST PUSH1 0x40 MLOAD PUSH2 0x1C3 SWAP2 SWAP1 PUSH2 0xDC6 JUMP JUMPDEST PUSH1 0x40 MLOAD DUP1 SWAP2 SUB SWAP1 RETURN JUMPDEST PUSH2 0x1DF PUSH2 0x1DA CALLDATASIZE PUSH1 0x4 PUSH2 0xDFC JUMP JUMPDEST PUSH2 0x44B JUMP JUMPDEST PUSH1 0x40 MLOAD SWAP1 ISZERO ISZERO DUP2 MSTORE PUSH1 0x20 ADD PUSH2 0x1C3 JUMP JUMPDEST PUSH1 0x2 SLOAD JUMPDEST PUSH1 0x40 MLOAD SWAP1 DUP2 MSTORE PUSH1 0x20 ADD PUSH2 0x1C3 JUMP JUMPDEST PUSH2 0x1DF PUSH2 0x20F CALLDATASIZE PUSH1 0x4 PUSH2 0xE26 JUMP JUMPDEST PUSH2 0x465 JUMP JUMPDEST PUSH1 0x40 MLOAD PUSH1 0x12 DUP2 MSTORE PUSH1 0x20 ADD PUSH2 0x1C3 JUMP JUMPDEST PUSH2 0x1F3 PUSH1 0x9 SLOAD DUP2 JUMP JUMPDEST PUSH2 0x1B6 PUSH2 0x489 JUMP JUMPDEST PUSH2 0x247 PUSH2 0x242 CALLDATASIZE PUSH1 0x4 PUSH2 0xDFC JUMP JUMPDEST PUSH2 0x517 JUMP JUMPDEST STOP JUMPDEST PUSH2 0x247 PUSH2 0x257 CALLDATASIZE PUSH1 0x4 PUSH2 0xE62 JUMP JUMPDEST PUSH2 0x617 JUMP JUMPDEST PUSH2 0x247 PUSH2 0x26A CALLDATASIZE PUSH1 0x4 PUSH2 0xE7B JUMP JUMPDEST PUSH2 0x624 JUMP JUMPDEST PUSH2 0x277 PUSH2 0x63F JUMP JUMPDEST PUSH1 0x40 MLOAD PUSH2 0x1C3 SWAP8 SWAP7 SWAP6 SWAP5 SWAP4 SWAP3 SWAP2 SWAP1 PUSH2 0xE9D JUMP JUMPDEST PUSH2 0x1F3 PUSH2 0x298 CALLDATASIZE PUSH1 0x4 PUSH2 0xEED JUMP JUMPDEST PUSH1 0x1 PUSH1 0x1 PUSH1 0xA0 SHL SUB AND PUSH1 0x0 SWAP1 DUP2 MSTORE PUSH1 0x20 DUP2 SWAP1 MSTORE PUSH1 0x40 SWAP1 KECCAK256 SLOAD SWAP1 JUMP JUMPDEST PUSH2 0x247 PUSH2 0x792 JUMP JUMPDEST PUSH2 0x247 PUSH2 0x2C9 CALLDATASIZE PUSH1 0x4 PUSH2 0xDFC JUMP JUMPDEST PUSH2 0x7A6 JUMP JUMPDEST PUSH1 0x5 SLOAD PUSH1 0x40 MLOAD PUSH1 0x1 PUSH1 0x1 PUSH1 0xA0 SHL SUB SWAP1 SWAP2 AND DUP2 MSTORE PUSH1 0x20 ADD PUSH2 0x1C3 JUMP JUMPDEST PUSH2 0x1F3 PUSH1 0x8 SLOAD DUP2 JUMP JUMPDEST PUSH2 0x1B6 PUSH2 0x7BF JUMP JUMPDEST PUSH1 0xB SLOAD PUSH2 0x1DF SWAP1 PUSH1 0xFF AND DUP2 JUMP JUMPDEST PUSH2 0x1DF PUSH2 0x315 CALLDATASIZE PUSH1 0x4 PUSH2 0xDFC JUMP JUMPDEST PUSH2 0x7CE JUMP JUMPDEST PUSH2 0x247 PUSH2 0x328 CALLDATASIZE PUSH1 0x4 PUSH2 0xE62 JUMP JUMPDEST PUSH2 0x7DC JUMP JUMPDEST PUSH2 0x1B6 PUSH2 0x82A JUMP JUMPDEST PUSH2 0x1F3 PUSH1 0xA SLOAD DUP2 JUMP JUMPDEST PUSH2 0x1F3 PUSH1 0xC SLOAD DUP2 JUMP JUMPDEST PUSH2 0x247 PUSH2 0x355 CALLDATASIZE PUSH1 0x4 PUSH2 0xE62 JUMP JUMPDEST PUSH2 0x837 JUMP JUMPDEST PUSH2 0x1F3 PUSH2 0x368 CALLDATASIZE PUSH1 0x4 PUSH2 0xF08 JUMP JUMPDEST PUSH1 0x1 PUSH1 0x1 PUSH1 0xA0 SHL SUB SWAP2 DUP3 AND PUSH1 0x0 SWAP1 DUP2 MSTORE PUSH1 0x1 PUSH1 0x20 SWAP1 DUP2 MSTORE PUSH1 0x40 DUP1 DUP4 KECCAK256 SWAP4 SWAP1 SWAP5 AND DUP3 MSTORE SWAP2 SWAP1 SWAP2 MSTORE KECCAK256 SLOAD SWAP1 JUMP JUMPDEST PUSH2 0x247 PUSH2 0x3A1 CALLDATASIZE PUSH1 0x4 PUSH2 0xEED JUMP JUMPDEST PUSH2 0x925 JUMP JUMPDEST PUSH2 0x247 PUSH2 0x3B4 CALLDATASIZE PUSH1 0x4 PUSH2 0xE62 JUMP JUMPDEST PUSH2 0x960 JUMP JUMPDEST PUSH1 0x60 PUSH1 0x3 DUP1 SLOAD PUSH2 0x3C8 SWAP1 PUSH2 0xF3B JUMP JUMPDEST DUP1 PUSH1 0x1F ADD PUSH1 0x20 DUP1 SWAP2 DIV MUL PUSH1 0x20 ADD PUSH1 0x40 MLOAD SWAP1 DUP2 ADD PUSH1 0x40 MSTORE DUP1 SWAP3 SWAP2 SWAP1 DUP2 DUP2 MSTORE PUSH1 0x20 ADD DUP3 DUP1 SLOAD PUSH2 0x3F4 SWAP1 PUSH2 0xF3B JUMP JUMPDEST DUP1 ISZERO PUSH2 0x441 JUMPI DUP1 PUSH1 0x1F LT PUSH2 0x416 JUMPI PUSH2 0x100 DUP1 DUP4 SLOAD DIV MUL DUP4 MSTORE SWAP2 PUSH1 0x20 ADD SWAP2 PUSH2 0x441 JUMP JUMPDEST DUP3 ADD SWAP2 SWAP1 PUSH1 0x0 MSTORE PUSH1 0x20 PUSH1 0x0 KECCAK256 SWAP1 JUMPDEST DUP2 SLOAD DUP2 MSTORE SWAP1 PUSH1 0x1 ADD SWAP1 PUSH1 0x20 ADD DUP1 DUP4 GT PUSH2 0x424 JUMPI DUP3 SWAP1 SUB PUSH1 0x1F AND DUP3 ADD SWAP2 JUMPDEST POP POP POP POP POP SWAP1 POP SWAP1 JUMP JUMPDEST PUSH1 0x0 CALLER PUSH2 0x459 DUP2 DUP6 DUP6 PUSH2 0x9A6 JUMP JUMPDEST PUSH1 0x1 SWAP2 POP POP JUMPDEST SWAP3 SWAP2 POP POP JUMP JUMPDEST PUSH1 0x0 CALLER PUSH2 0x473 DUP6 DUP3 DUP6 PUSH2 0x9B8 JUMP JUMPDEST PUSH2 0x47E DUP6 DUP6 DUP6 PUSH2 0xA37 JUMP JUMPDEST POP PUSH1 0x1 SWAP5 SWAP4 POP POP POP POP JUMP JUMPDEST PUSH1 0x7 DUP1 SLOAD PUSH2 0x496 SWAP1 PUSH2 0xF3B JUMP JUMPDEST DUP1 PUSH1 0x1F ADD PUSH1 0x20 DUP1 SWAP2 DIV MUL PUSH1 0x20 ADD PUSH1 0x40 MLOAD SWAP1 DUP2 ADD PUSH1 0x40 MSTORE DUP1 SWAP3 SWAP2 SWAP1 DUP2 DUP2 MSTORE PUSH1 0x20 ADD DUP3 DUP1 SLOAD PUSH2 0x4C2 SWAP1 PUSH2 0xF3B JUMP JUMPDEST DUP1 ISZERO PUSH2 0x50F JUMPI DUP1 PUSH1 0x1F LT PUSH2 0x4E4 JUMPI PUSH2 0x100 DUP1 DUP4 SLOAD DIV MUL DUP4 MSTORE SWAP2 PUSH1 0x20 ADD SWAP2 PUSH2 0x50F JUMP JUMPDEST DUP3 ADD SWAP2 SWAP1 PUSH1 0x0 MSTORE PUSH1 0x20 PUSH1 0x0 KECCAK256 SWAP1 JUMPDEST DUP2 SLOAD DUP2 MSTORE SWAP1 PUSH1 0x1 ADD SWAP1 PUSH1 0x20 ADD DUP1 DUP4 GT PUSH2 0x4F2 JUMPI DUP3 SWAP1 SUB PUSH1 0x1F AND DUP3 ADD SWAP2 JUMPDEST POP POP POP POP POP DUP2 JUMP JUMPDEST PUSH2 0x51F PUSH2 0xA96 JUMP JUMPDEST PUSH1 0xB SLOAD PUSH1 0xFF AND PUSH2 0x56C JUMPI PUSH1 0x40 MLOAD PUSH3 0x461BCD PUSH1 0xE5 SHL DUP2 MSTORE PUSH1 0x20 PUSH1 0x4 DUP3 ADD MSTORE PUSH1 0x13 PUSH1 0x24 DUP3 ADD MSTORE PUSH19 0x135A5B9D1A5B99C81A5CC8191A5CD8589B1959 PUSH1 0x6A SHL PUSH1 0x44 DUP3 ADD MSTORE PUSH1 0x64 ADD JUMPDEST PUSH1 0x40 MLOAD DUP1 SWAP2 SUB SWAP1 REVERT JUMPDEST PUSH1 0xC SLOAD DUP2 PUSH2 0x579 PUSH1 0x2 SLOAD SWAP1 JUMP JUMPDEST PUSH2 0x583 SWAP2 SWAP1 PUSH2 0xF75 JUMP JUMPDEST GT ISZERO PUSH2 0x5C6 JUMPI PUSH1 0x40 MLOAD PUSH3 0x461BCD PUSH1 0xE5 SHL DUP2 MSTORE PUSH1 0x20 PUSH1 0x4 DUP3 ADD MSTORE PUSH1 0x12 PUSH1 0x24 DUP3 ADD MSTORE PUSH18 0x45786365656473206D617820737570706C79 PUSH1 0x70 SHL PUSH1 0x44 DUP3 ADD MSTORE PUSH1 0x64 ADD PUSH2 0x563 JUMP JUMPDEST PUSH2 0x5D0 DUP3 DUP3 PUSH2 0xAC3 JUMP JUMPDEST PUSH1 0x40 DUP1 MLOAD DUP3 DUP2 MSTORE TIMESTAMP PUSH1 0x20 DUP3 ADD MSTORE PUSH1 0x1 PUSH1 0x1 PUSH1 0xA0 SHL SUB DUP5 AND SWAP2 PUSH32 0xAE6F573E24512836B8D9F28578FF4CE358E90BC8EF0BFC89838FE2775ED6B294 SWAP2 ADD PUSH1 0x40 MLOAD DUP1 SWAP2 SUB SWAP1 LOG2 POP POP JUMP JUMPDEST PUSH2 0x621 CALLER DUP3 PUSH2 0xAF9 JUMP JUMPDEST POP JUMP JUMPDEST PUSH2 0x62C PUSH2 0xA96 JUMP JUMPDEST PUSH1 0xB DUP1 SLOAD PUSH1 0xFF NOT AND SWAP2 ISZERO ISZERO SWAP2 SWAP1 SWAP2 OR SWAP1 SSTORE JUMP JUMPDEST PUSH1 0x60 DUP1 PUSH1 0x0 DUP1 PUSH1 0x0 DUP1 PUSH1 0x0 PUSH1 0x6 PUSH1 0x7 PUSH1 0x8 SLOAD PUSH1 0x9 SLOAD PUSH1 0xA SLOAD PUSH2 0x660 PUSH1 0x2 SLOAD SWAP1 JUMP JUMPDEST PUSH1 0xC SLOAD DUP7 DUP1 SLOAD PUSH2 0x66F SWAP1 PUSH2 0xF3B JUMP JUMPDEST DUP1 PUSH1 0x1F ADD PUSH1 0x20 DUP1 SWAP2 DIV MUL PUSH1 0x20 ADD PUSH1 0x40 MLOAD SWAP1 DUP2 ADD PUSH1 0x40 MSTORE DUP1 SWAP3 SWAP2 SWAP1 DUP2 DUP2 MSTORE PUSH1 0x20 ADD DUP3 DUP1 SLOAD PUSH2 0x69B SWAP1 PUSH2 0xF3B JUMP JUMPDEST DUP1 ISZERO PUSH2 0x6E8 JUMPI DUP1 PUSH1 0x1F LT PUSH2 0x6BD JUMPI PUSH2 0x100 DUP1 DUP4 SLOAD DIV MUL DUP4 MSTORE SWAP2 PUSH1 0x20 ADD SWAP2 PUSH2 0x6E8 JUMP JUMPDEST DUP3 ADD SWAP2 SWAP1 PUSH1 0x0 MSTORE PUSH1 0x20 PUSH1 0x0 KECCAK256 SWAP1 JUMPDEST DUP2 SLOAD DUP2 MSTORE SWAP1 PUSH1 0x1 ADD SWAP1 PUSH1 0x20 ADD DUP1 DUP4 GT PUSH2 0x6CB JUMPI DUP3 SWAP1 SUB PUSH1 0x1F AND DUP3 ADD SWAP2 JUMPDEST POP POP POP POP POP SWAP7 POP DUP6 DUP1 SLOAD PUSH2 0x6FB SWAP1 PUSH2 0xF3B JUMP JUMPDEST DUP1 PUSH1 0x1F ADD PUSH1 0x20 DUP1 SWAP2 DIV MUL PUSH1 0x20 ADD PUSH1 0x40 MLOAD SWAP1 DUP2 ADD PUSH1 0x40 MSTORE DUP1 SWAP3 SWAP2 SWAP1 DUP2 DUP2 MSTORE PUSH1 0x20 ADD DUP3 DUP1 SLOAD PUSH2 0x727 SWAP1 PUSH2 0xF3B JUMP JUMPDEST DUP1 ISZERO PUSH2 0x774 JUMPI DUP1 PUSH1 0x1F LT PUSH2 0x749 JUMPI PUSH2 0x100 DUP1 DUP4 SLOAD DIV MUL DUP4 MSTORE SWAP2 PUSH1 0x20 ADD SWAP2 PUSH2 0x774 JUMP JUMPDEST DUP3 ADD SWAP2 SWAP1 PUSH1 0x0 MSTORE PUSH1 0x20 PUSH1 0x0 KECCAK256 SWAP1 JUMPDEST DUP2 SLOAD DUP2 MSTORE SWAP1 PUSH1 0x1 ADD SWAP1 PUSH1 0x20 ADD DUP1 DUP4 GT PUSH2 0x757 JUMPI DUP3 SWAP1 SUB PUSH1 0x1F AND DUP3 ADD SWAP2 JUMPDEST POP POP POP POP POP SWAP6 POP SWAP7 POP SWAP7 POP SWAP7 POP SWAP7 POP SWAP7 POP SWAP7 POP SWAP7 POP SWAP1 SWAP2 SWAP3 SWAP4 SWAP5 SWAP6 SWAP7 JUMP JUMPDEST PUSH2 0x79A PUSH2 0xA96 JUMP JUMPDEST PUSH2 0x7A4 PUSH1 0x0 PUSH2 0xB2F JUMP JUMPDEST JUMP JUMPDEST PUSH2 0x7B1 DUP3 CALLER DUP4 PUSH2 0x9B8 JUMP JUMPDEST PUSH2 0x7BB DUP3 DUP3 PUSH2 0xAF9 JUMP JUMPDEST POP POP JUMP JUMPDEST PUSH1 0x60 PUSH1 0x4 DUP1 SLOAD PUSH2 0x3C8 SWAP1 PUSH2 0xF3B JUMP JUMPDEST PUSH1 0x0 CALLER PUSH2 0x459 DUP2 DUP6 DUP6 PUSH2 0xA37 JUMP JUMPDEST PUSH2 0x7E4 PUSH2 0xA96 JUMP JUMPDEST PUSH1 0xA DUP1 SLOAD SWAP1 DUP3 SWAP1 SSTORE PUSH1 0x40 DUP1 MLOAD DUP3 DUP2 MSTORE PUSH1 0x20 DUP2 ADD DUP5 SWAP1 MSTORE PUSH32 0xA48099C9062F9D4078FBDA2B682D4671DF1C2DA28C684AC0A45D02393CCA13FE SWAP2 ADD JUMPDEST PUSH1 0x40 MLOAD DUP1 SWAP2 SUB SWAP1 LOG1 POP POP JUMP JUMPDEST PUSH1 0x6 DUP1 SLOAD PUSH2 0x496 SWAP1 PUSH2 0xF3B JUMP JUMPDEST CALLER PUSH1 0x0 SWAP1 DUP2 MSTORE PUSH1 0x20 DUP2 SWAP1 MSTORE PUSH1 0x40 SWAP1 KECCAK256 SLOAD DUP2 GT ISZERO PUSH2 0x88D JUMPI PUSH1 0x40 MLOAD PUSH3 0x461BCD PUSH1 0xE5 SHL DUP2 MSTORE PUSH1 0x20 PUSH1 0x4 DUP3 ADD MSTORE PUSH1 0x14 PUSH1 0x24 DUP3 ADD MSTORE PUSH20 0x496E73756666696369656E742062616C616E6365 PUSH1 0x60 SHL PUSH1 0x44 DUP3 ADD MSTORE PUSH1 0x64 ADD PUSH2 0x563 JUMP JUMPDEST PUSH1 0xA SLOAD ISZERO PUSH2 0x8DF JUMPI PUSH1 0xA SLOAD TIMESTAMP LT ISZERO PUSH2 0x8DF JUMPI PUSH1 0x40 MLOAD PUSH3 0x461BCD PUSH1 0xE5 SHL DUP2 MSTORE PUSH1 0x20 PUSH1 0x4 DUP3 ADD MSTORE PUSH1 0x15 PUSH1 0x24 DUP3 ADD MSTORE PUSH21 0x105CDCD95D081B9BDD081B585D1D5C9959081E595D PUSH1 0x5A SHL PUSH1 0x44 DUP3 ADD MSTORE PUSH1 0x64 ADD PUSH2 0x563 JUMP JUMPDEST PUSH2 0x8E8 DUP2 PUSH2 0x617 JUMP JUMPDEST PUSH1 0x40 DUP1 MLOAD DUP3 DUP2 MSTORE TIMESTAMP PUSH1 0x20 DUP3 ADD MSTORE CALLER SWAP2 PUSH32 0x9E6D67515E2BBE86F12A5DB49672C07B83805378D93A9C3A41E5350AF97B65B3 SWAP2 ADD PUSH1 0x40 MLOAD DUP1 SWAP2 SUB SWAP1 LOG2 POP JUMP JUMPDEST PUSH2 0x92D PUSH2 0xA96 JUMP JUMPDEST PUSH1 0x1 PUSH1 0x1 PUSH1 0xA0 SHL SUB DUP2 AND PUSH2 0x957 JUMPI PUSH1 0x40 MLOAD PUSH4 0x1E4FBDF7 PUSH1 0xE0 SHL DUP2 MSTORE PUSH1 0x0 PUSH1 0x4 DUP3 ADD MSTORE PUSH1 0x24 ADD PUSH2 0x563 JUMP JUMPDEST PUSH2 0x621 DUP2 PUSH2 0xB2F JUMP JUMPDEST PUSH2 0x968 PUSH2 0xA96 JUMP JUMPDEST PUSH1 0x9 DUP1 SLOAD SWAP1 DUP3 SWAP1 SSTORE PUSH1 0x40 DUP1 MLOAD DUP3 DUP2 MSTORE PUSH1 0x20 DUP2 ADD DUP5 SWAP1 MSTORE PUSH32 0x787A1FCA55641CE34A438271930BBB9401DF20DB2B4F510D4F252227D85DF43D SWAP2 ADD PUSH2 0x81E JUMP JUMPDEST PUSH2 0x9B3 DUP4 DUP4 DUP4 PUSH1 0x1 PUSH2 0xB81 JUMP JUMPDEST POP POP POP JUMP JUMPDEST PUSH1 0x1 PUSH1 0x1 PUSH1 0xA0 SHL SUB DUP4 DUP2 AND PUSH1 0x0 SWAP1 DUP2 MSTORE PUSH1 0x1 PUSH1 0x20 SWAP1 DUP2 MSTORE PUSH1 0x40 DUP1 DUP4 KECCAK256 SWAP4 DUP7 AND DUP4 MSTORE SWAP3 SWAP1 MSTORE KECCAK256 SLOAD PUSH1 0x0 NOT DUP2 LT ISZERO PUSH2 0xA31 JUMPI DUP2 DUP2 LT ISZERO PUSH2 0xA22 JUMPI PUSH1 0x40 MLOAD PUSH4 0x7DC7A0D9 PUSH1 0xE1 SHL DUP2 MSTORE PUSH1 0x1 PUSH1 0x1 PUSH1 0xA0 SHL SUB DUP5 AND PUSH1 0x4 DUP3 ADD MSTORE PUSH1 0x24 DUP2 ADD DUP3 SWAP1 MSTORE PUSH1 0x44 DUP2 ADD DUP4 SWAP1 MSTORE PUSH1 0x64 ADD PUSH2 0x563 JUMP JUMPDEST PUSH2 0xA31 DUP5 DUP5 DUP5 DUP5 SUB PUSH1 0x0 PUSH2 0xB81 JUMP JUMPDEST POP POP POP POP JUMP JUMPDEST PUSH1 0x1 PUSH1 0x1 PUSH1 0xA0 SHL SUB DUP4 AND PUSH2 0xA61 JUMPI PUSH1 0x40 MLOAD PUSH4 0x4B637E8F PUSH1 0xE1 SHL DUP2 MSTORE PUSH1 0x0 PUSH1 0x4 DUP3 ADD MSTORE PUSH1 0x24 ADD PUSH2 0x563 JUMP JUMPDEST PUSH1 0x1 PUSH1 0x1 PUSH1 0xA0 SHL SUB DUP3 AND PUSH2 0xA8B JUMPI PUSH1 0x40 MLOAD PUSH4 0xEC442F05 PUSH1 0xE0 SHL DUP2 MSTORE PUSH1 0x0 PUSH1 0x4 DUP3 ADD MSTORE PUSH1 0x24 ADD PUSH2 0x563 JUMP JUMPDEST PUSH2 0x9B3 DUP4 DUP4 DUP4 PUSH2 0xC56 JUMP JUMPDEST PUSH1 0x5 SLOAD PUSH1 0x1 PUSH1 0x1 PUSH1 0xA0 SHL SUB AND CALLER EQ PUSH2 0x7A4 JUMPI PUSH1 0x40 MLOAD PUSH4 0x118CDAA7 PUSH1 0xE0 SHL DUP2 MSTORE CALLER PUSH1 0x4 DUP3 ADD MSTORE PUSH1 0x24 ADD PUSH2 0x563 JUMP JUMPDEST PUSH1 0x1 PUSH1 0x1 PUSH1 0xA0 SHL SUB DUP3 AND PUSH2 0xAED JUMPI PUSH1 0x40 MLOAD PUSH4 0xEC442F05 PUSH1 0xE0 SHL DUP2 MSTORE PUSH1 0x0 PUSH1 0x4 DUP3 ADD MSTORE PUSH1 0x24 ADD PUSH2 0x563 JUMP JUMPDEST PUSH2 0x7BB PUSH1 0x0 DUP4 DUP4 PUSH2 0xC56 JUMP JUMPDEST PUSH1 0x1 PUSH1 0x1 PUSH1 0xA0 SHL SUB DUP3 AND PUSH2 0xB23 JUMPI PUSH1 0x40 MLOAD PUSH4 0x4B637E8F PUSH1 0xE1 SHL DUP2 MSTORE PUSH1 0x0 PUSH1 0x4 DUP3 ADD MSTORE PUSH1 0x24 ADD PUSH2 0x563 JUMP JUMPDEST PUSH2 0x7BB DUP3 PUSH1 0x0 DUP4 PUSH2 0xC56 JUMP JUMPDEST PUSH1 0x5 DUP1 SLOAD PUSH1 0x1 PUSH1 0x1 PUSH1 0xA0 SHL SUB DUP4 DUP2 AND PUSH1 0x1 PUSH1 0x1 PUSH1 0xA0 SHL SUB NOT DUP4 AND DUP2 OR SWAP1 SWAP4 SSTORE PUSH1 0x40 MLOAD SWAP2 AND SWAP2 SWAP1 DUP3 SWAP1 PUSH32 0x8BE0079C531659141344CD1FD0A4F28419497F9722A3DAAFE3B4186F6B6457E0 SWAP1 PUSH1 0x0 SWAP1 LOG3 POP POP JUMP JUMPDEST PUSH1 0x1 PUSH1 0x1 PUSH1 0xA0 SHL SUB DUP5 AND PUSH2 0xBAB JUMPI PUSH1 0x40 MLOAD PUSH4 0xE602DF05 PUSH1 0xE0 SHL DUP2 MSTORE PUSH1 0x0 PUSH1 0x4 DUP3 ADD MSTORE PUSH1 0x24 ADD PUSH2 0x563 JUMP JUMPDEST PUSH1 0x1 PUSH1 0x1 PUSH1 0xA0 SHL SUB DUP4 AND PUSH2 0xBD5 JUMPI PUSH1 0x40 MLOAD PUSH4 0x4A1406B1 PUSH1 0xE1 SHL DUP2 MSTORE PUSH1 0x0 PUSH1 0x4 DUP3 ADD MSTORE PUSH1 0x24 ADD PUSH2 0x563 JUMP JUMPDEST PUSH1 0x1 PUSH1 0x1 PUSH1 0xA0 SHL SUB DUP1 DUP6 AND PUSH1 0x0 SWAP1 DUP2 MSTORE PUSH1 0x1 PUSH1 0x20 SWAP1 DUP2 MSTORE PUSH1 0x40 DUP1 DUP4 KECCAK256 SWAP4 DUP8 AND DUP4 MSTORE SWAP3 SWAP1 MSTORE KECCAK256 DUP3 SWAP1 SSTORE DUP1 ISZERO PUSH2 0xA31 JUMPI DUP3 PUSH1 0x1 PUSH1 0x1 PUSH1 0xA0 SHL SUB AND DUP5 PUSH1 0x1 PUSH1 0x1 PUSH1 0xA0 SHL SUB AND PUSH32 0x8C5BE1E5EBEC7D5BD14F71427D1E84F3DD0314C0F7B2291E5B200AC8C7C3B925 DUP5 PUSH1 0x40 MLOAD PUSH2 0xC48 SWAP2 DUP2 MSTORE PUSH1 0x20 ADD SWAP1 JUMP JUMPDEST PUSH1 0x40 MLOAD DUP1 SWAP2 SUB SWAP1 LOG3 POP POP POP POP JUMP JUMPDEST PUSH1 0x1 PUSH1 0x1 PUSH1 0xA0 SHL SUB DUP4 AND PUSH2 0xC81 JUMPI DUP1 PUSH1 0x2 PUSH1 0x0 DUP3 DUP3 SLOAD PUSH2 0xC76 SWAP2 SWAP1 PUSH2 0xF75 JUMP JUMPDEST SWAP1 SWAP2 SSTORE POP PUSH2 0xCF3 SWAP1 POP JUMP JUMPDEST PUSH1 0x1 PUSH1 0x1 PUSH1 0xA0 SHL SUB DUP4 AND PUSH1 0x0 SWAP1 DUP2 MSTORE PUSH1 0x20 DUP2 SWAP1 MSTORE PUSH1 0x40 SWAP1 KECCAK256 SLOAD DUP2 DUP2 LT ISZERO PUSH2 0xCD4 JUMPI PUSH1 0x40 MLOAD PUSH4 0x391434E3 PUSH1 0xE2 SHL DUP2 MSTORE PUSH1 0x1 PUSH1 0x1 PUSH1 0xA0 SHL SUB DUP6 AND PUSH1 0x4 DUP3 ADD MSTORE PUSH1 0x24 DUP2 ADD DUP3 SWAP1 MSTORE PUSH1 0x44 DUP2 ADD DUP4 SWAP1 MSTORE PUSH1 0x64 ADD PUSH2 0x563 JUMP JUMPDEST PUSH1 0x1 PUSH1 0x1 PUSH1 0xA0 SHL SUB DUP5 AND PUSH1 0x0 SWAP1 DUP2 MSTORE PUSH1 0x20 DUP2 SWAP1 MSTORE PUSH1 0x40 SWAP1 KECCAK256 SWAP1 DUP3 SWAP1 SUB SWAP1 SSTORE JUMPDEST PUSH1 0x1 PUSH1 0x1 PUSH1 0xA0 SHL SUB DUP3 AND PUSH2 0xD0F JUMPI PUSH1 0x2 DUP1 SLOAD DUP3 SWAP1 SUB SWAP1 SSTORE PUSH2 0xD2E JUMP JUMPDEST PUSH1 0x1 PUSH1 0x1 PUSH1 0xA0 SHL SUB DUP3 AND PUSH1 0x0 SWAP1 DUP2 MSTORE PUSH1 0x20 DUP2 SWAP1 MSTORE PUSH1 0x40 SWAP1 KECCAK256 DUP1 SLOAD DUP3 ADD SWAP1 SSTORE JUMPDEST DUP2 PUSH1 0x1 PUSH1 0x1 PUSH1 0xA0 SHL SUB AND DUP4 PUSH1 0x1 PUSH1 0x1 PUSH1 0xA0 SHL SUB AND PUSH32 0xDDF252AD1BE2C89B69C2B068FC378DAA952BA7F163C4A11628F55A4DF523B3EF DUP4 PUSH1 0x40 MLOAD PUSH2 0xD73 SWAP2 DUP2 MSTORE PUSH1 0x20 ADD SWAP1 JUMP JUMPDEST PUSH1 0x40 MLOAD DUP1 SWAP2 SUB SWAP1 LOG3 POP POP POP JUMP JUMPDEST PUSH1 0x0 DUP2 MLOAD DUP1 DUP5 MSTORE PUSH1 0x0 JUMPDEST DUP2 DUP2 LT ISZERO PUSH2 0xDA6 JUMPI PUSH1 0x20 DUP2 DUP6 ADD DUP2 ADD MLOAD DUP7 DUP4 ADD DUP3 ADD MSTORE ADD PUSH2 0xD8A JUMP JUMPDEST POP PUSH1 0x0 PUSH1 0x20 DUP3 DUP7 ADD ADD MSTORE PUSH1 0x20 PUSH1 0x1F NOT PUSH1 0x1F DUP4 ADD AND DUP6 ADD ADD SWAP2 POP POP SWAP3 SWAP2 POP POP JUMP JUMPDEST PUSH1 0x20 DUP2 MSTORE PUSH1 0x0 PUSH2 0xDD9 PUSH1 0x20 DUP4 ADD DUP5 PUSH2 0xD80 JUMP JUMPDEST SWAP4 SWAP3 POP POP POP JUMP JUMPDEST DUP1 CALLDATALOAD PUSH1 0x1 PUSH1 0x1 PUSH1 0xA0 SHL SUB DUP2 AND DUP2 EQ PUSH2 0xDF7 JUMPI PUSH1 0x0 DUP1 REVERT JUMPDEST SWAP2 SWAP1 POP JUMP JUMPDEST PUSH1 0x0 DUP1 PUSH1 0x40 DUP4 DUP6 SUB SLT ISZERO PUSH2 0xE0F JUMPI PUSH1 0x0 DUP1 REVERT JUMPDEST PUSH2 0xE18 DUP4 PUSH2 0xDE0 JUMP JUMPDEST SWAP5 PUSH1 0x20 SWAP4 SWAP1 SWAP4 ADD CALLDATALOAD SWAP4 POP POP POP JUMP JUMPDEST PUSH1 0x0 DUP1 PUSH1 0x0 PUSH1 0x60 DUP5 DUP7 SUB SLT ISZERO PUSH2 0xE3B JUMPI PUSH1 0x0 DUP1 REVERT JUMPDEST PUSH2 0xE44 DUP5 PUSH2 0xDE0 JUMP JUMPDEST SWAP3 POP PUSH2 0xE52 PUSH1 0x20 DUP6 ADD PUSH2 0xDE0 JUMP JUMPDEST SWAP2 POP PUSH1 0x40 DUP5 ADD CALLDATALOAD SWAP1 POP SWAP3 POP SWAP3 POP SWAP3 JUMP JUMPDEST PUSH1 0x0 PUSH1 0x20 DUP3 DUP5 SUB SLT ISZERO PUSH2 0xE74 JUMPI PUSH1 0x0 DUP1 REVERT JUMPDEST POP CALLDATALOAD SWAP2 SWAP1 POP JUMP JUMPDEST PUSH1 0x0 PUSH1 0x20 DUP3 DUP5 SUB SLT ISZERO PUSH2 0xE8D JUMPI PUSH1 0x0 DUP1 REVERT JUMPDEST DUP2 CALLDATALOAD DUP1 ISZERO ISZERO DUP2 EQ PUSH2 0xDD9 JUMPI PUSH1 0x0 DUP1 REVERT JUMPDEST PUSH1 0xE0 DUP2 MSTORE PUSH1 0x0 PUSH2 0xEB0 PUSH1 0xE0 DUP4 ADD DUP11 PUSH2 0xD80 JUMP JUMPDEST DUP3 DUP2 SUB PUSH1 0x20 DUP5 ADD MSTORE PUSH2 0xEC2 DUP2 DUP11 PUSH2 0xD80 JUMP JUMPDEST PUSH1 0x40 DUP5 ADD SWAP9 SWAP1 SWAP9 MSTORE POP POP PUSH1 0x60 DUP2 ADD SWAP5 SWAP1 SWAP5 MSTORE PUSH1 0x80 DUP5 ADD SWAP3 SWAP1 SWAP3 MSTORE PUSH1 0xA0 DUP4 ADD MSTORE PUSH1 0xC0 SWAP1 SWAP2 ADD MSTORE SWAP3 SWAP2 POP POP JUMP JUMPDEST PUSH1 0x0 PUSH1 0x20 DUP3 DUP5 SUB SLT ISZERO PUSH2 0xEFF JUMPI PUSH1 0x0 DUP1 REVERT JUMPDEST PUSH2 0xDD9 DUP3 PUSH2 0xDE0 JUMP JUMPDEST PUSH1 0x0 DUP1 PUSH1 0x40 DUP4 DUP6 SUB SLT ISZERO PUSH2 0xF1B JUMPI PUSH1 0x0 DUP1 REVERT JUMPDEST PUSH2 0xF24 DUP4 PUSH2 0xDE0 JUMP JUMPDEST SWAP2 POP PUSH2 0xF32 PUSH1 0x20 DUP5 ADD PUSH2 0xDE0 JUMP JUMPDEST SWAP1 POP SWAP3 POP SWAP3 SWAP1 POP JUMP JUMPDEST PUSH1 0x1 DUP2 DUP2 SHR SWAP1 DUP3 AND DUP1 PUSH2 0xF4F JUMPI PUSH1 0x7F DUP3 AND SWAP2 POP JUMPDEST PUSH1 0x20 DUP3 LT DUP2 SUB PUSH2 0xF6F JUMPI PUSH4 0x4E487B71 PUSH1 0xE0 SHL PUSH1 0x0 MSTORE PUSH1 0x22 PUSH1 0x4 MSTORE PUSH1 0x24 PUSH1 0x0 REVERT JUMPDEST POP SWAP2 SWAP1 POP JUMP JUMPDEST DUP1 DUP3 ADD DUP1 DUP3 GT ISZERO PUSH2 0x45F JUMPI PUSH4 0x4E487B71 PUSH1 0xE0 SHL PUSH1 0x0 MSTORE PUSH1 0x11 PUSH1 0x4 MSTORE PUSH1 0x24 PUSH1 0x0 REVERT INVALID LOG2 PUSH5 0x6970667358 0x22 SLT KECCAK256 SWAP16 PUSH18 0xF0AEE6F36FBDECDD6C195F20C45B6D79431A 0xEF ADD DUP16 0x2B SWAP10 DUP2 0x5E PUSH32 0x3924952F64736F6C63430008140033A264697066735822122011672A98E0E2F8 0xD0 CODECOPY 0xDF PUSH1 0x20 PUSH2 0x28A9 CREATE2 LOG2 SWAP5 SLOAD CALL 0x4C PUSH8 0x6A030763B607B218 0xE8 DUP9 PUSH5 0x736F6C6343 STOP ADDMOD EQ STOP CALLER "},"methodIdentifiers":{"deployToken(string,string,string,string,uint256,uint256,uint256,uint256)":"13ad9a56","deployedTokens(uint256)":"ec81aadb","getDeployedTokenCount()":"804215f6","getDeployedTokens()":"622ae7aa","isTokenDeployed(address)":"a6c74fd4"}}}}}