{"contracts/QuantumVault.sol":{"QuantumVault":{"abi":[{"inputs":[],"stateMutability":"nonpayable","type":"constructor"},{"inputs":[{"internalType":"address","name":"owner","type":"address"}],"name":"OwnableInvalidOwner","type":"error"},{"inputs":[{"internalType":"address","name":"account","type":"address"}],"name":"OwnableUnauthorizedAccount","type":"error"},{"inputs":[],"name":"ReentrancyGuardReentrantCall","type":"error"},{"anonymous":false,"inputs":[{"indexed":true,"internalType":"uint256","name":"depositId","type":"uint256"},{"indexed":true,"internalType":"address","name":"depositor","type":"address"},{"indexed":true,"internalType":"address","name":"tokenAddress","type":"address"},{"indexed":false,"internalType":"uint256","name":"amount","type":"uint256"},{"indexed":false,"internalType":"uint256","name":"lockUntil","type":"uint256"},{"indexed":false,"internalType":"enum QuantumVault.VaultTier","name":"tier","type":"uint8"},{"indexed":false,"internalType":"bool","name":"quantumEnabled","type":"bool"}],"name":"DepositCreated","type":"event"},{"anonymous":false,"inputs":[{"indexed":true,"internalType":"uint256","name":"depositId","type":"uint256"},{"indexed":true,"internalType":"address","name":"depositor","type":"address"},{"indexed":false,"internalType":"uint256","name":"amount","type":"uint256"},{"indexed":false,"internalType":"uint256","name":"fee","type":"uint256"},{"indexed":false,"internalType":"uint256","name":"timestamp","type":"uint256"}],"name":"DepositWithdrawn","type":"event"},{"anonymous":false,"inputs":[{"indexed":true,"internalType":"address","name":"recipient","type":"address"},{"indexed":false,"internalType":"uint256","name":"amount","type":"uint256"}],"name":"FeesWithdrawn","type":"event"},{"anonymous":false,"inputs":[{"indexed":true,"internalType":"address","name":"previousOwner","type":"address"},{"indexed":true,"internalType":"address","name":"newOwner","type":"address"}],"name":"OwnershipTransferred","type":"event"},{"anonymous":false,"inputs":[{"indexed":false,"internalType":"uint256","name":"oldFee","type":"uint256"},{"indexed":false,"internalType":"uint256","name":"newFee","type":"uint256"}],"name":"PlatformFeeUpdated","type":"event"},{"anonymous":false,"inputs":[{"indexed":false,"internalType":"uint256","name":"oldThreshold","type":"uint256"},{"indexed":false,"internalType":"uint256","name":"newThreshold","type":"uint256"}],"name":"QuantumThresholdUpdated","type":"event"},{"anonymous":false,"inputs":[{"indexed":false,"internalType":"enum QuantumVault.VaultTier","name":"tier","type":"uint8"},{"indexed":false,"internalType":"uint256","name":"minDeposit","type":"uint256"},{"indexed":false,"internalType":"uint256","name":"maxDeposit","type":"uint256"},{"indexed":false,"internalType":"uint256","name":"fee","type":"uint256"}],"name":"TierUpdated","type":"event"},{"inputs":[{"internalType":"uint256","name":"","type":"uint256"}],"name":"activeDepositIds","outputs":[{"internalType":"uint256","name":"","type":"uint256"}],"stateMutability":"view","type":"function"},{"inputs":[{"internalType":"uint256","name":"depositId","type":"uint256"}],"name":"calculateWithdrawalFee","outputs":[{"internalType":"uint256","name":"fee","type":"uint256"}],"stateMutability":"view","type":"function"},{"inputs":[{"internalType":"address","name":"tokenAddress","type":"address"},{"internalType":"uint256","name":"amount","type":"uint256"},{"internalType":"uint256","name":"lockUntil","type":"uint256"},{"internalType":"enum QuantumVault.VaultTier","name":"tier","type":"uint8"}],"name":"createDeposit","outputs":[{"internalType":"uint256","name":"","type":"uint256"}],"stateMutability":"nonpayable","type":"function"},{"inputs":[{"internalType":"uint256","name":"","type":"uint256"}],"name":"deposits","outputs":[{"internalType":"uint256","name":"id","type":"uint256"},{"internalType":"address","name":"depositor","type":"address"},{"internalType":"address","name":"tokenAddress","type":"address"},{"internalType":"uint256","name":"amount","type":"uint256"},{"internalType":"uint256","name":"createdAt","type":"uint256"},{"internalType":"uint256","name":"lockUntil","type":"uint256"},{"internalType":"enum QuantumVault.VaultTier","name":"tier","type":"uint8"},{"internalType":"bool","name":"quantumEnabled","type":"bool"},{"internalType":"bool","name":"active","type":"bool"}],"stateMutability":"view","type":"function"},{"inputs":[],"name":"getActiveDeposits","outputs":[{"internalType":"uint256[]","name":"","type":"uint256[]"}],"stateMutability":"view","type":"function"},{"inputs":[{"internalType":"uint256","name":"depositId","type":"uint256"}],"name":"getDeposit","outputs":[{"components":[{"internalType":"uint256","name":"id","type":"uint256"},{"internalType":"address","name":"depositor","type":"address"},{"internalType":"address","name":"tokenAddress","type":"address"},{"internalType":"uint256","name":"amount","type":"uint256"},{"internalType":"uint256","name":"createdAt","type":"uint256"},{"internalType":"uint256","name":"lockUntil","type":"uint256"},{"internalType":"enum QuantumVault.VaultTier","name":"tier","type":"uint8"},{"internalType":"bool","name":"quantumEnabled","type":"bool"},{"internalType":"bool","name":"active","type":"bool"}],"internalType":"struct QuantumVault.Deposit","name":"","type":"tuple"}],"stateMutability":"view","type":"function"},{"inputs":[{"internalType":"enum QuantumVault.VaultTier","name":"tier","type":"uint8"}],"name":"getDepositsByTier","outputs":[{"internalType":"uint256[]","name":"","type":"uint256[]"}],"stateMutability":"view","type":"function"},{"inputs":[{"internalType":"address","name":"user","type":"address"}],"name":"getUserDeposits","outputs":[{"internalType":"uint256[]","name":"","type":"uint256[]"}],"stateMutability":"view","type":"function"},{"inputs":[],"name":"getVaultStats","outputs":[{"internalType":"uint256","name":"totalDeposits","type":"uint256"},{"internalType":"uint256","name":"activeDepositsCount","type":"uint256"},{"internalType":"uint256","name":"totalDepositedAmount","type":"uint256"},{"internalType":"uint256","name":"quantumEnabledCount","type":"uint256"},{"internalType":"uint256","name":"institutionalCount","type":"uint256"},{"internalType":"uint256","name":"sovereignCount","type":"uint256"}],"stateMutability":"view","type":"function"},{"inputs":[],"name":"owner","outputs":[{"internalType":"address","name":"","type":"address"}],"stateMutability":"view","type":"function"},{"inputs":[],"name":"platformFee","outputs":[{"internalType":"uint256","name":"","type":"uint256"}],"stateMutability":"view","type":"function"},{"inputs":[],"name":"quantumThreshold","outputs":[{"internalType":"uint256","name":"","type":"uint256"}],"stateMutability":"view","type":"function"},{"inputs":[],"name":"renounceOwnership","outputs":[],"stateMutability":"nonpayable","type":"function"},{"inputs":[{"internalType":"address","name":"_usdcToken","type":"address"}],"name":"setUSDCToken","outputs":[],"stateMutability":"nonpayable","type":"function"},{"inputs":[{"internalType":"enum QuantumVault.VaultTier","name":"","type":"uint8"}],"name":"tierFee","outputs":[{"internalType":"uint256","name":"","type":"uint256"}],"stateMutability":"view","type":"function"},{"inputs":[{"internalType":"enum QuantumVault.VaultTier","name":"","type":"uint8"}],"name":"tierMaxDeposit","outputs":[{"internalType":"uint256","name":"","type":"uint256"}],"stateMutability":"view","type":"function"},{"inputs":[{"internalType":"enum QuantumVault.VaultTier","name":"","type":"uint8"}],"name":"tierMinDeposit","outputs":[{"internalType":"uint256","name":"","type":"uint256"}],"stateMutability":"view","type":"function"},{"inputs":[{"internalType":"address","name":"newOwner","type":"address"}],"name":"transferOwnership","outputs":[],"stateMutability":"nonpayable","type":"function"},{"inputs":[{"internalType":"uint256","name":"newFee","type":"uint256"}],"name":"updatePlatformFee","outputs":[],"stateMutability":"nonpayable","type":"function"},{"inputs":[{"internalType":"uint256","name":"newThreshold","type":"uint256"}],"name":"updateQuantumThreshold","outputs":[],"stateMutability":"nonpayable","type":"function"},{"inputs":[{"internalType":"enum QuantumVault.VaultTier","name":"tier","type":"uint8"},{"internalType":"uint256","name":"minDeposit","type":"uint256"},{"internalType":"uint256","name":"maxDeposit","type":"uint256"},{"internalType":"uint256","name":"fee","type":"uint256"}],"name":"updateTier","outputs":[],"stateMutability":"nonpayable","type":"function"},{"inputs":[],"name":"usdcToken","outputs":[{"internalType":"address","name":"","type":"address"}],"stateMutability":"view","type":"function"},{"inputs":[{"internalType":"address","name":"","type":"address"},{"internalType":"uint256","name":"","type":"uint256"}],"name":"userDeposits","outputs":[{"internalType":"uint256","name":"","type":"uint256"}],"stateMutability":"view","type":"function"},{"inputs":[{"internalType":"uint256","name":"depositId","type":"uint256"}],"name":"withdrawDeposit","outputs":[],"stateMutability":"nonpayable","type":"function"},{"inputs":[],"name":"withdrawFees","outputs":[],"stateMutability":"nonpayable","type":"function"}],"evm":{"bytecode":{"linkReferences":{},"object":"6080604052601960095564e8d4a51000600a5534801561001e57600080fd5b50338061004557604051631e4fbdf760e01b81526000600482015260240160405180910390fd5b61004e816101dc565b5060017f9b779b17422d0df92223018b32b4d1fa46e071723d6817e2486d003becc55f008190558055633b9aca007f54cdd369e4e8a8515e52ca72ec816c2101831ad1f18bf44102ed171459c9b4f85564174876e8007f6d5257204ebe7d88fd91ae87941cb2dd9d8062b64ae5a2bd2d28ec40b9fbf6df81905560327f5eff886ea0ce6ca488a3d6e336d6c0f75f46d19b42c06ce5ee98e42c96d256c7557f3e5fec24aa4dc4e5aee2e025e51e1392c72a2500577559fae9665c6d52bd6a31556509184e72a0007fb39221ace053465ec3453ce2b36430bd138b997ecea25c1043da0c366812b828819055601e7fad67d757c34507f157cacfa2e3153e9f260a2244f30428821be7be64587ac55f5560026000527f8819ef417987f8ae7a81f42cdfb18815282fe989326fbff903d13cf0e03ace295566038d7ea4c680007fb7c774451310d1be4108bc180d1b52823cb0ee0274a6c0081bcaf94f115fb96d556008602052600a7f6add646517a5b0f6793cd5891b7937d28a5b2981a5d88ebc7cd776088fea90415561022c565b600080546001600160a01b038381166001600160a01b0319831681178455604051919092169283917f8be0079c531659141344cd1fd0a4f28419497f9722a3daafe3b4186f6b6457e09190a35050565b611e4e8061023b6000396000f3fe608060405234801561001057600080fd5b50600436106101735760003560e01c80637212609f116100de578063b02c43d011610097578063da6e1cf911610071578063da6e1cf9146103c2578063e7410fc4146103d5578063f2fde38b146103f5578063f2fe288a1461040857600080fd5b8063b02c43d01461030d578063b571ff051461038f578063d7712de2146103af57600080fd5b80637212609f14610279578063769e66ac1461028c5780638da5cb5b146102945780639f9fb968146102a5578063a59aa5a6146102c5578063aa0b5988146102fa57600080fd5b80632a5bf6d2116101305780632a5bf6d21461021a57806333289a461461023a5780633fe969121461024d578063476343ee146102565780635ea6fffa1461025e578063715018a61461027157600080fd5b806308f43333146101785780630f239faa1461019e5780630f5a9d01146101be57806311eac855146101d357806318e1b3bb146101fe57806326232a2e14610211575b600080fd5b61018b610186366004611a25565b61041b565b6040519081526020015b60405180910390f35b61018b6101ac366004611a5e565b60066020526000908152604090205481565b6101d16101cc366004611a80565b61044c565b005b6005546101e6906001600160a01b031681565b6040516001600160a01b039091168152602001610195565b61018b61020c366004611a9b565b6104c8565b61018b60095481565b61022d610228366004611a80565b610664565b6040516101959190611ab4565b6101d1610248366004611a9b565b6106d0565b61018b600a5481565b6101d16109ca565b6101d161026c366004611af8565b610b35565b6101d1610d0e565b61018b610287366004611a9b565b610d22565b61022d610d43565b6000546001600160a01b03166101e6565b6102b86102b3366004611a9b565b610d9b565b6040516101959190611b69565b6102cd610e65565b604080519687526020870195909552938501929092526060840152608083015260a082015260c001610195565b6101d1610308366004611a9b565b611021565b61037a61031b366004611a9b565b6002602081905260009182526040909120805460018201549282015460038301546004840154600585015460069095015493956001600160a01b03908116959316939192909160ff808216916101008104821691620100009091041689565b60405161019599989796959493929190611bee565b61018b61039d366004611a5e565b60086020526000908152604090205481565b6101d16103bd366004611a9b565b6110b0565b61022d6103d0366004611a5e565b61113a565b61018b6103e3366004611a5e565b60076020526000908152604090205481565b6101d1610403366004611a80565b611340565b61018b610416366004611c4c565b61137b565b6004602052816000526040600020818154811061043757600080fd5b90600052602060002001600091509150505481565b610454611815565b6001600160a01b0381166104a65760405162461bcd60e51b8152602060048201526014602482015273496e76616c69642055534443206164647265737360601b60448201526064015b60405180910390fd5b600580546001600160a01b0319166001600160a01b0392909216919091179055565b60008181526002602081815260408084208151610120810183528154815260018201546001600160a01b039081169482019490945281850154909316918301919091526003810154606083015260048101546080830152600581015460a08301526006810154849360c084019160ff169081111561054857610548611b31565b600281111561055957610559611b31565b81526006919091015460ff61010082048116151560208401526201000090910416151560409091015260808101519091506000906105979042611ca8565b905060006105a96301e1338083611cc1565b90506000600860008560c0015160028111156105c7576105c7611b31565b60028111156105d8576105d8611b31565b81526020019081526020016000205490506000600583116105f957826105fc565b60055b90506000612710828488606001516106149190611ce3565b61061e9190611ce3565b6106289190611cc1565b9050600061271060095488606001516106419190611ce3565b61064b9190611cc1565b90506106578183611cfa565b9998505050505050505050565b6001600160a01b0381166000908152600460209081526040918290208054835181840281018401909452808452606093928301828280156106c457602002820191906000526020600020905b8154815260200190600101908083116106b0575b50505050509050919050565b6106d8611842565b6000818152600260205260409020600681015462010000900460ff166107355760405162461bcd60e51b81526020600482015260126024820152714465706f736974206e6f742061637469766560701b604482015260640161049d565b60018101546001600160a01b031633146107915760405162461bcd60e51b815260206004820152601b60248201527f4f6e6c79206465706f7369746f722063616e2077697468647261770000000000604482015260640161049d565b6005810154156107e65780600501544210156107e65760405162461bcd60e51b815260206004820152601460248201527311195c1bdcda5d081cdd1a5b1b081b1bd8dad95960621b604482015260640161049d565b60008160040154426107f89190611ca8565b9050600061080a6301e1338083611cc1565b6006840154909150600090600890829060ff16600281111561082e5761082e611b31565b600281111561083f5761083f611b31565b81526020019081526020016000205490506000600583116108605782610863565b60055b905060006127108284886003015461087b9190611ce3565b6108859190611ce3565b61088f9190611cc1565b9050600061271060095488600301546108a89190611ce3565b6108b29190611cc1565b905060006108c08284611cfa565b905060008189600301546108d49190611ca8565b60028a015460405163a9059cbb60e01b8152336004820152602481018390529192506001600160a01b03169063a9059cbb906044016020604051808303816000875af1158015610928573d6000803e3d6000fd5b505050506040513d601f19601f8201168201806040525081019061094c9190611d0d565b5060068901805462ff0000191690556109648a61185e565b60408051828152602081018490524281830152905133918c917fe4a16c51b3ba9d162ee99e982dab7e18096015e3b0cb21b6fc0743da18205e179181900360600190a35050505050505050506109c76001600080516020611df983398151915255565b50565b6109d2611815565b6005546040516370a0823160e01b81523060048201526000916001600160a01b0316906370a0823190602401602060405180830381865afa158015610a1b573d6000803e3d6000fd5b505050506040513d601f19601f82011682018060405250810190610a3f9190611d2f565b905060008111610a875760405162461bcd60e51b81526020600482015260136024820152724e6f206665657320746f20776974686472617760681b604482015260640161049d565b60055460405163a9059cbb60e01b8152336004820152602481018390526001600160a01b039091169063a9059cbb906044016020604051808303816000875af1158015610ad8573d6000803e3d6000fd5b505050506040513d601f19601f82011682018060405250810190610afc9190611d0d565b5060405181815233907fc0819c13be868895eb93e40eaceb96de976442fa1d404e5c55f14bb65a8c489a9060200160405180910390a250565b610b3d611815565b60008311610b8d5760405162461bcd60e51b815260206004820152601760248201527f496e76616c6964206d696e696d756d206465706f736974000000000000000000604482015260640161049d565b828211610bdc5760405162461bcd60e51b815260206004820152601760248201527f496e76616c6964206d6178696d756d206465706f736974000000000000000000604482015260640161049d565b6101f4811115610c1d5760405162461bcd60e51b815260206004820152600c60248201526b08ccaca40e8dede40d0d2ced60a31b604482015260640161049d565b8260066000866002811115610c3457610c34611b31565b6002811115610c4557610c45611b31565b8152602001908152602001600020819055508160076000866002811115610c6e57610c6e611b31565b6002811115610c7f57610c7f611b31565b8152602001908152602001600020819055508060086000866002811115610ca857610ca8611b31565b6002811115610cb957610cb9611b31565b8152602001908152602001600020819055507f8a8be32f561bae947d8a12913d5ddbcb7eb4b7e8db9d7474ce283d37adb1ab7384848484604051610d009493929190611d48565b60405180910390a150505050565b610d16611815565b610d20600061191a565b565b60038181548110610d3257600080fd5b600091825260209091200154905081565b60606003805480602002602001604051908101604052809291908181526020018280548015610d9157602002820191906000526020600020905b815481526020019060010190808311610d7d575b5050505050905090565b610da361199a565b6000828152600260208181526040928390208351610120810185528154815260018201546001600160a01b039081169382019390935281840154909216938201939093526003830154606082015260048301546080820152600583015460a0820152600683015490929160c084019160ff1690811115610e2557610e25611b31565b6002811115610e3657610e36611b31565b81526006919091015460ff61010082048116151560208401526201000090910416151560409091015292915050565b60008060008060008060008060008060005b600354811015610ffc5760006002600060038481548110610e9a57610e9a611d71565b6000918252602080832090910154835282810193909352604091820190208151610120810183528154815260018201546001600160a01b0390811694820194909452600280830154909416928101929092526003810154606083015260048101546080830152600581015460a083015260068101549192909160c084019160ff90911690811115610f2d57610f2d611b31565b6002811115610f3e57610f3e611b31565b81526006919091015460ff6101008204811615156020840152620100009091041615156040909101526060810151909150610f799087611cfa565b95508060e0015115610f935784610f8f81611d87565b9550505b60018160c001516002811115610fab57610fab611b31565b03610fbe5783610fba81611d87565b9450505b60028160c001516002811115610fd657610fd6611b31565b03610fe95782610fe581611d87565b9350505b5080610ff481611d87565b915050610e77565b506001805461100b9190611ca8565b600354909b909a50939850919650945092509050565b611029611815565b6101f481111561106a5760405162461bcd60e51b815260206004820152600c60248201526b08ccaca40e8dede40d0d2ced60a31b604482015260640161049d565b600980549082905560408051828152602081018490527fd347e206f25a89b917fc9482f1a2d294d749baa4dc9bde7fb495ee11fe49164391015b60405180910390a15050565b6110b8611815565b600081116110fc5760405162461bcd60e51b8152602060048201526011602482015270125b9d985b1a59081d1a1c995cda1bdb19607a1b604482015260640161049d565b600a80549082905560408051828152602081018490527f781065e43baaba71e5b5cf7827235c92b28041feb5de165ff901e0e9c63d1ed491016110a4565b60035460609060009067ffffffffffffffff81111561115b5761115b611da0565b604051908082528060200260200182016040528015611184578160200160208202803683370190505b5090506000805b60035481101561129b578460028111156111a7576111a7611b31565b60026000600384815481106111be576111be611d71565b6000918252602080832090910154835282019290925260400190206006015460ff1660028111156111f1576111f1611b31565b14801561123b5750600260006003838154811061121057611210611d71565b9060005260206000200154815260200190815260200160002060060160029054906101000a900460ff165b15611289576003818154811061125357611253611d71565b906000526020600020015483838151811061127057611270611d71565b60209081029190910101528161128581611d87565b9250505b8061129381611d87565b91505061118b565b5060008167ffffffffffffffff8111156112b7576112b7611da0565b6040519080825280602002602001820160405280156112e0578160200160208202803683370190505b50905060005b828110156113375783818151811061130057611300611d71565b602002602001015182828151811061131a5761131a611d71565b60209081029190910101528061132f81611d87565b9150506112e6565b50949350505050565b611348611815565b6001600160a01b03811661137257604051631e4fbdf760e01b81526000600482015260240161049d565b6109c78161191a565b6000611385611842565b6001600160a01b0385166113d35760405162461bcd60e51b8152602060048201526015602482015274496e76616c696420746f6b656e206164647265737360581b604482015260640161049d565b600084116114235760405162461bcd60e51b815260206004820152601d60248201527f416d6f756e74206d7573742062652067726561746572207468616e2030000000604482015260640161049d565b6006600083600281111561143957611439611b31565b600281111561144a5761144a611b31565b8152602001908152602001600020548410156114a85760405162461bcd60e51b815260206004820152601960248201527f416d6f756e742062656c6f772074696572206d696e696d756d00000000000000604482015260640161049d565b600760008360028111156114be576114be611b31565b60028111156114cf576114cf611b31565b81526020019081526020016000205484111561152d5760405162461bcd60e51b815260206004820152601960248201527f416d6f756e742061626f76652074696572206d6178696d756d00000000000000604482015260640161049d565b8215611582574283116115825760405162461bcd60e51b815260206004820152601b60248201527f4c6f636b2074696d65206d75737420626520696e206675747572650000000000604482015260640161049d565b600a546040516323b872dd60e01b81523360048201523060248201526044810186905290851015906001600160a01b038716906323b872dd906064016020604051808303816000875af11580156115dd573d6000803e3d6000fd5b505050506040513d601f19601f820116820180604052508101906116019190611d0d565b50600180546000918261161383611d87565b919050559050604051806101200160405280828152602001336001600160a01b03168152602001886001600160a01b0316815260200187815260200142815260200186815260200185600281111561166d5761166d611b31565b8152831515602080830191909152600160409283018190526000858152600280845290849020855181559285015183830180546001600160a01b03199081166001600160a01b0393841617909155948601518483018054909616911617909355606084015160038301556080840151600483015560a0840151600583015560c084015160068301805493949193909260ff1990911691849081111561171457611714611b31565b021790555060e082015160069091018054610100938401511515620100000262ff0000199315159094029290921662ffff0019909216919091179190911790556003805460018181019092557fc2575a0e9e593c00f959f8c92f12db2869c3395a3b0502d05e2516446f71f85b01829055336000818152600460209081526040808320805495860181558352912090920183905590516001600160a01b038916919083907ff3e694e1c318ad84cefc55197dd0cc9c78c5c9317f8714a5129287a175ee76de906117eb908b908b908b908a90611db6565b60405180910390a491505061180d6001600080516020611df983398151915255565b949350505050565b6000546001600160a01b03163314610d205760405163118cdaa760e01b815233600482015260240161049d565b61184a61196a565b6002600080516020611df983398151915255565b60005b60035481101561191657816003828154811061187f5761187f611d71565b906000526020600020015403611904576003805461189f90600190611ca8565b815481106118af576118af611d71565b9060005260206000200154600382815481106118cd576118cd611d71565b60009182526020909120015560038054806118ea576118ea611de2565b600190038181906000526020600020016000905590555050565b8061190e81611d87565b915050611861565b5050565b600080546001600160a01b038381166001600160a01b0319831681178455604051919092169283917f8be0079c531659141344cd1fd0a4f28419497f9722a3daafe3b4186f6b6457e09190a35050565b600080516020611df983398151915254600203610d2057604051633ee5aeb560e01b815260040160405180910390fd5b6040518061012001604052806000815260200160006001600160a01b0316815260200160006001600160a01b03168152602001600081526020016000815260200160008152602001600060028111156119f5576119f5611b31565b815260006020820181905260409091015290565b80356001600160a01b0381168114611a2057600080fd5b919050565b60008060408385031215611a3857600080fd5b611a4183611a09565b946020939093013593505050565b803560038110611a2057600080fd5b600060208284031215611a7057600080fd5b611a7982611a4f565b9392505050565b600060208284031215611a9257600080fd5b611a7982611a09565b600060208284031215611aad57600080fd5b5035919050565b6020808252825182820181905260009190848201906040850190845b81811015611aec57835183529284019291840191600101611ad0565b50909695505050505050565b60008060008060808587031215611b0e57600080fd5b611b1785611a4f565b966020860135965060408601359560600135945092505050565b634e487b7160e01b600052602160045260246000fd5b60038110611b6557634e487b7160e01b600052602160045260246000fd5b9052565b60006101208201905082518252602083015160018060a01b0380821660208501528060408601511660408501525050606083015160608301526080830151608083015260a083015160a083015260c0830151611bc860c0840182611b47565b5060e0830151611bdc60e084018215159052565b50610100928301511515919092015290565b8981526001600160a01b03898116602083015288166040820152606081018790526080810186905260a081018590526101208101611c2f60c0830186611b47565b92151560e082015290151561010090910152979650505050505050565b60008060008060808587031215611c6257600080fd5b611c6b85611a09565b93506020850135925060408501359150611c8760608601611a4f565b905092959194509250565b634e487b7160e01b600052601160045260246000fd5b81810381811115611cbb57611cbb611c92565b92915050565b600082611cde57634e487b7160e01b600052601260045260246000fd5b500490565b8082028115828204841417611cbb57611cbb611c92565b80820180821115611cbb57611cbb611c92565b600060208284031215611d1f57600080fd5b81518015158114611a7957600080fd5b600060208284031215611d4157600080fd5b5051919050565b60808101611d568287611b47565b84602083015283604083015282606083015295945050505050565b634e487b7160e01b600052603260045260246000fd5b600060018201611d9957611d99611c92565b5060010190565b634e487b7160e01b600052604160045260246000fd5b8481526020810184905260808101611dd16040830185611b47565b821515606083015295945050505050565b634e487b7160e01b600052603160045260246000fdfe9b779b17422d0df92223018b32b4d1fa46e071723d6817e2486d003becc55f00a264697066735822122005781e069f33a73f310d1c3d38c097107cdb0ced84c6230af310fddc8950cc5a64736f6c63430008140033","opcodes":"PUSH1 0x80 PUSH1 0x40 MSTORE PUSH1 0x19 PUSH1 0x9 SSTORE PUSH5 0xE8D4A51000 PUSH1 0xA SSTORE CALLVALUE DUP1 ISZERO PUSH2 0x1E JUMPI PUSH1 0x0 DUP1 REVERT JUMPDEST POP CALLER DUP1 PUSH2 0x45 JUMPI PUSH1 0x40 MLOAD PUSH4 0x1E4FBDF7 PUSH1 0xE0 SHL DUP2 MSTORE PUSH1 0x0 PUSH1 0x4 DUP3 ADD MSTORE PUSH1 0x24 ADD PUSH1 0x40 MLOAD DUP1 SWAP2 SUB SWAP1 REVERT JUMPDEST PUSH2 0x4E DUP2 PUSH2 0x1DC JUMP JUMPDEST POP PUSH1 0x1 PUSH32 0x9B779B17422D0DF92223018B32B4D1FA46E071723D6817E2486D003BECC55F00 DUP2 SWAP1 SSTORE DUP1 SSTORE PUSH4 0x3B9ACA00 PUSH32 0x54CDD369E4E8A8515E52CA72EC816C2101831AD1F18BF44102ED171459C9B4F8 SSTORE PUSH5 0x174876E800 PUSH32 0x6D5257204EBE7D88FD91AE87941CB2DD9D8062B64AE5A2BD2D28EC40B9FBF6DF DUP2 SWAP1 SSTORE PUSH1 0x32 PUSH32 0x5EFF886EA0CE6CA488A3D6E336D6C0F75F46D19B42C06CE5EE98E42C96D256C7 SSTORE PUSH32 0x3E5FEC24AA4DC4E5AEE2E025E51E1392C72A2500577559FAE9665C6D52BD6A31 SSTORE PUSH6 0x9184E72A000 PUSH32 0xB39221ACE053465EC3453CE2B36430BD138B997ECEA25C1043DA0C366812B828 DUP2 SWAP1 SSTORE PUSH1 0x1E PUSH32 0xAD67D757C34507F157CACFA2E3153E9F260A2244F30428821BE7BE64587AC55F SSTORE PUSH1 0x2 PUSH1 0x0 MSTORE PUSH32 0x8819EF417987F8AE7A81F42CDFB18815282FE989326FBFF903D13CF0E03ACE29 SSTORE PUSH7 0x38D7EA4C68000 PUSH32 0xB7C774451310D1BE4108BC180D1B52823CB0EE0274A6C0081BCAF94F115FB96D SSTORE PUSH1 0x8 PUSH1 0x20 MSTORE PUSH1 0xA PUSH32 0x6ADD646517A5B0F6793CD5891B7937D28A5B2981A5D88EBC7CD776088FEA9041 SSTORE PUSH2 0x22C JUMP JUMPDEST PUSH1 0x0 DUP1 SLOAD PUSH1 0x1 PUSH1 0x1 PUSH1 0xA0 SHL SUB DUP4 DUP2 AND PUSH1 0x1 PUSH1 0x1 PUSH1 0xA0 SHL SUB NOT DUP4 AND DUP2 OR DUP5 SSTORE PUSH1 0x40 MLOAD SWAP2 SWAP1 SWAP3 AND SWAP3 DUP4 SWAP2 PUSH32 0x8BE0079C531659141344CD1FD0A4F28419497F9722A3DAAFE3B4186F6B6457E0 SWAP2 SWAP1 LOG3 POP POP JUMP JUMPDEST PUSH2 0x1E4E DUP1 PUSH2 0x23B PUSH1 0x0 CODECOPY PUSH1 0x0 RETURN INVALID PUSH1 0x80 PUSH1 0x40 MSTORE CALLVALUE DUP1 ISZERO PUSH2 0x10 JUMPI PUSH1 0x0 DUP1 REVERT JUMPDEST POP PUSH1 0x4 CALLDATASIZE LT PUSH2 0x173 JUMPI PUSH1 0x0 CALLDATALOAD PUSH1 0xE0 SHR DUP1 PUSH4 0x7212609F GT PUSH2 0xDE JUMPI DUP1 PUSH4 0xB02C43D0 GT PUSH2 0x97 JUMPI DUP1 PUSH4 0xDA6E1CF9 GT PUSH2 0x71 JUMPI DUP1 PUSH4 0xDA6E1CF9 EQ PUSH2 0x3C2 JUMPI DUP1 PUSH4 0xE7410FC4 EQ PUSH2 0x3D5 JUMPI DUP1 PUSH4 0xF2FDE38B EQ PUSH2 0x3F5 JUMPI DUP1 PUSH4 0xF2FE288A EQ PUSH2 0x408 JUMPI PUSH1 0x0 DUP1 REVERT JUMPDEST DUP1 PUSH4 0xB02C43D0 EQ PUSH2 0x30D JUMPI DUP1 PUSH4 0xB571FF05 EQ PUSH2 0x38F JUMPI DUP1 PUSH4 0xD7712DE2 EQ PUSH2 0x3AF JUMPI PUSH1 0x0 DUP1 REVERT JUMPDEST DUP1 PUSH4 0x7212609F EQ PUSH2 0x279 JUMPI DUP1 PUSH4 0x769E66AC EQ PUSH2 0x28C JUMPI DUP1 PUSH4 0x8DA5CB5B EQ PUSH2 0x294 JUMPI DUP1 PUSH4 0x9F9FB968 EQ PUSH2 0x2A5 JUMPI DUP1 PUSH4 0xA59AA5A6 EQ PUSH2 0x2C5 JUMPI DUP1 PUSH4 0xAA0B5988 EQ PUSH2 0x2FA JUMPI PUSH1 0x0 DUP1 REVERT JUMPDEST DUP1 PUSH4 0x2A5BF6D2 GT PUSH2 0x130 JUMPI DUP1 PUSH4 0x2A5BF6D2 EQ PUSH2 0x21A JUMPI DUP1 PUSH4 0x33289A46 EQ PUSH2 0x23A JUMPI DUP1 PUSH4 0x3FE96912 EQ PUSH2 0x24D JUMPI DUP1 PUSH4 0x476343EE EQ PUSH2 0x256 JUMPI DUP1 PUSH4 0x5EA6FFFA EQ PUSH2 0x25E JUMPI DUP1 PUSH4 0x715018A6 EQ PUSH2 0x271 JUMPI PUSH1 0x0 DUP1 REVERT JUMPDEST DUP1 PUSH4 0x8F43333 EQ PUSH2 0x178 JUMPI DUP1 PUSH4 0xF239FAA EQ PUSH2 0x19E JUMPI DUP1 PUSH4 0xF5A9D01 EQ PUSH2 0x1BE JUMPI DUP1 PUSH4 0x11EAC855 EQ PUSH2 0x1D3 JUMPI DUP1 PUSH4 0x18E1B3BB EQ PUSH2 0x1FE JUMPI DUP1 PUSH4 0x26232A2E EQ PUSH2 0x211 JUMPI JUMPDEST PUSH1 0x0 DUP1 REVERT JUMPDEST PUSH2 0x18B PUSH2 0x186 CALLDATASIZE PUSH1 0x4 PUSH2 0x1A25 JUMP JUMPDEST PUSH2 0x41B JUMP JUMPDEST PUSH1 0x40 MLOAD SWAP1 DUP2 MSTORE PUSH1 0x20 ADD JUMPDEST PUSH1 0x40 MLOAD DUP1 SWAP2 SUB SWAP1 RETURN JUMPDEST PUSH2 0x18B PUSH2 0x1AC CALLDATASIZE PUSH1 0x4 PUSH2 0x1A5E JUMP JUMPDEST PUSH1 0x6 PUSH1 0x20 MSTORE PUSH1 0x0 SWAP1 DUP2 MSTORE PUSH1 0x40 SWAP1 KECCAK256 SLOAD DUP2 JUMP JUMPDEST PUSH2 0x1D1 PUSH2 0x1CC CALLDATASIZE PUSH1 0x4 PUSH2 0x1A80 JUMP JUMPDEST PUSH2 0x44C JUMP JUMPDEST STOP JUMPDEST PUSH1 0x5 SLOAD PUSH2 0x1E6 SWAP1 PUSH1 0x1 PUSH1 0x1 PUSH1 0xA0 SHL SUB AND DUP2 JUMP JUMPDEST PUSH1 0x40 MLOAD PUSH1 0x1 PUSH1 0x1 PUSH1 0xA0 SHL SUB SWAP1 SWAP2 AND DUP2 MSTORE PUSH1 0x20 ADD PUSH2 0x195 JUMP JUMPDEST PUSH2 0x18B PUSH2 0x20C CALLDATASIZE PUSH1 0x4 PUSH2 0x1A9B JUMP JUMPDEST PUSH2 0x4C8 JUMP JUMPDEST PUSH2 0x18B PUSH1 0x9 SLOAD DUP2 JUMP JUMPDEST PUSH2 0x22D PUSH2 0x228 CALLDATASIZE PUSH1 0x4 PUSH2 0x1A80 JUMP JUMPDEST PUSH2 0x664 JUMP JUMPDEST PUSH1 0x40 MLOAD PUSH2 0x195 SWAP2 SWAP1 PUSH2 0x1AB4 JUMP JUMPDEST PUSH2 0x1D1 PUSH2 0x248 CALLDATASIZE PUSH1 0x4 PUSH2 0x1A9B JUMP JUMPDEST PUSH2 0x6D0 JUMP JUMPDEST PUSH2 0x18B PUSH1 0xA SLOAD DUP2 JUMP JUMPDEST PUSH2 0x1D1 PUSH2 0x9CA JUMP JUMPDEST PUSH2 0x1D1 PUSH2 0x26C CALLDATASIZE PUSH1 0x4 PUSH2 0x1AF8 JUMP JUMPDEST PUSH2 0xB35 JUMP JUMPDEST PUSH2 0x1D1 PUSH2 0xD0E JUMP JUMPDEST PUSH2 0x18B PUSH2 0x287 CALLDATASIZE PUSH1 0x4 PUSH2 0x1A9B JUMP JUMPDEST PUSH2 0xD22 JUMP JUMPDEST PUSH2 0x22D PUSH2 0xD43 JUMP JUMPDEST PUSH1 0x0 SLOAD PUSH1 0x1 PUSH1 0x1 PUSH1 0xA0 SHL SUB AND PUSH2 0x1E6 JUMP JUMPDEST PUSH2 0x2B8 PUSH2 0x2B3 CALLDATASIZE PUSH1 0x4 PUSH2 0x1A9B JUMP JUMPDEST PUSH2 0xD9B JUMP JUMPDEST PUSH1 0x40 MLOAD PUSH2 0x195 SWAP2 SWAP1 PUSH2 0x1B69 JUMP JUMPDEST PUSH2 0x2CD PUSH2 0xE65 JUMP JUMPDEST PUSH1 0x40 DUP1 MLOAD SWAP7 DUP8 MSTORE PUSH1 0x20 DUP8 ADD SWAP6 SWAP1 SWAP6 MSTORE SWAP4 DUP6 ADD SWAP3 SWAP1 SWAP3 MSTORE PUSH1 0x60 DUP5 ADD MSTORE PUSH1 0x80 DUP4 ADD MSTORE PUSH1 0xA0 DUP3 ADD MSTORE PUSH1 0xC0 ADD PUSH2 0x195 JUMP JUMPDEST PUSH2 0x1D1 PUSH2 0x308 CALLDATASIZE PUSH1 0x4 PUSH2 0x1A9B JUMP JUMPDEST PUSH2 0x1021 JUMP JUMPDEST PUSH2 0x37A PUSH2 0x31B CALLDATASIZE PUSH1 0x4 PUSH2 0x1A9B JUMP JUMPDEST PUSH1 0x2 PUSH1 0x20 DUP2 SWAP1 MSTORE PUSH1 0x0 SWAP2 DUP3 MSTORE PUSH1 0x40 SWAP1 SWAP2 KECCAK256 DUP1 SLOAD PUSH1 0x1 DUP3 ADD SLOAD SWAP3 DUP3 ADD SLOAD PUSH1 0x3 DUP4 ADD SLOAD PUSH1 0x4 DUP5 ADD SLOAD PUSH1 0x5 DUP6 ADD SLOAD PUSH1 0x6 SWAP1 SWAP6 ADD SLOAD SWAP4 SWAP6 PUSH1 0x1 PUSH1 0x1 PUSH1 0xA0 SHL SUB SWAP1 DUP2 AND SWAP6 SWAP4 AND SWAP4 SWAP2 SWAP3 SWAP1 SWAP2 PUSH1 0xFF DUP1 DUP3 AND SWAP2 PUSH2 0x100 DUP2 DIV DUP3 AND SWAP2 PUSH3 0x10000 SWAP1 SWAP2 DIV AND DUP10 JUMP JUMPDEST PUSH1 0x40 MLOAD PUSH2 0x195 SWAP10 SWAP9 SWAP8 SWAP7 SWAP6 SWAP5 SWAP4 SWAP3 SWAP2 SWAP1 PUSH2 0x1BEE JUMP JUMPDEST PUSH2 0x18B PUSH2 0x39D CALLDATASIZE PUSH1 0x4 PUSH2 0x1A5E JUMP JUMPDEST PUSH1 0x8 PUSH1 0x20 MSTORE PUSH1 0x0 SWAP1 DUP2 MSTORE PUSH1 0x40 SWAP1 KECCAK256 SLOAD DUP2 JUMP JUMPDEST PUSH2 0x1D1 PUSH2 0x3BD CALLDATASIZE PUSH1 0x4 PUSH2 0x1A9B JUMP JUMPDEST PUSH2 0x10B0 JUMP JUMPDEST PUSH2 0x22D PUSH2 0x3D0 CALLDATASIZE PUSH1 0x4 PUSH2 0x1A5E JUMP JUMPDEST PUSH2 0x113A JUMP JUMPDEST PUSH2 0x18B PUSH2 0x3E3 CALLDATASIZE PUSH1 0x4 PUSH2 0x1A5E JUMP JUMPDEST PUSH1 0x7 PUSH1 0x20 MSTORE PUSH1 0x0 SWAP1 DUP2 MSTORE PUSH1 0x40 SWAP1 KECCAK256 SLOAD DUP2 JUMP JUMPDEST PUSH2 0x1D1 PUSH2 0x403 CALLDATASIZE PUSH1 0x4 PUSH2 0x1A80 JUMP JUMPDEST PUSH2 0x1340 JUMP JUMPDEST PUSH2 0x18B PUSH2 0x416 CALLDATASIZE PUSH1 0x4 PUSH2 0x1C4C JUMP JUMPDEST PUSH2 0x137B JUMP JUMPDEST PUSH1 0x4 PUSH1 0x20 MSTORE DUP2 PUSH1 0x0 MSTORE PUSH1 0x40 PUSH1 0x0 KECCAK256 DUP2 DUP2 SLOAD DUP2 LT PUSH2 0x437 JUMPI PUSH1 0x0 DUP1 REVERT JUMPDEST SWAP1 PUSH1 0x0 MSTORE PUSH1 0x20 PUSH1 0x0 KECCAK256 ADD PUSH1 0x0 SWAP2 POP SWAP2 POP POP SLOAD DUP2 JUMP JUMPDEST PUSH2 0x454 PUSH2 0x1815 JUMP JUMPDEST PUSH1 0x1 PUSH1 0x1 PUSH1 0xA0 SHL SUB DUP2 AND PUSH2 0x4A6 JUMPI PUSH1 0x40 MLOAD PUSH3 0x461BCD PUSH1 0xE5 SHL DUP2 MSTORE PUSH1 0x20 PUSH1 0x4 DUP3 ADD MSTORE PUSH1 0x14 PUSH1 0x24 DUP3 ADD MSTORE PUSH20 0x496E76616C696420555344432061646472657373 PUSH1 0x60 SHL PUSH1 0x44 DUP3 ADD MSTORE PUSH1 0x64 ADD JUMPDEST PUSH1 0x40 MLOAD DUP1 SWAP2 SUB SWAP1 REVERT JUMPDEST PUSH1 0x5 DUP1 SLOAD PUSH1 0x1 PUSH1 0x1 PUSH1 0xA0 SHL SUB NOT AND PUSH1 0x1 PUSH1 0x1 PUSH1 0xA0 SHL SUB SWAP3 SWAP1 SWAP3 AND SWAP2 SWAP1 SWAP2 OR SWAP1 SSTORE JUMP JUMPDEST PUSH1 0x0 DUP2 DUP2 MSTORE PUSH1 0x2 PUSH1 0x20 DUP2 DUP2 MSTORE PUSH1 0x40 DUP1 DUP5 KECCAK256 DUP2 MLOAD PUSH2 0x120 DUP2 ADD DUP4 MSTORE DUP2 SLOAD DUP2 MSTORE PUSH1 0x1 DUP3 ADD SLOAD PUSH1 0x1 PUSH1 0x1 PUSH1 0xA0 SHL SUB SWAP1 DUP2 AND SWAP5 DUP3 ADD SWAP5 SWAP1 SWAP5 MSTORE DUP2 DUP6 ADD SLOAD SWAP1 SWAP4 AND SWAP2 DUP4 ADD SWAP2 SWAP1 SWAP2 MSTORE PUSH1 0x3 DUP2 ADD SLOAD PUSH1 0x60 DUP4 ADD MSTORE PUSH1 0x4 DUP2 ADD SLOAD PUSH1 0x80 DUP4 ADD MSTORE PUSH1 0x5 DUP2 ADD SLOAD PUSH1 0xA0 DUP4 ADD MSTORE PUSH1 0x6 DUP2 ADD SLOAD DUP5 SWAP4 PUSH1 0xC0 DUP5 ADD SWAP2 PUSH1 0xFF AND SWAP1 DUP2 GT ISZERO PUSH2 0x548 JUMPI PUSH2 0x548 PUSH2 0x1B31 JUMP JUMPDEST PUSH1 0x2 DUP2 GT ISZERO PUSH2 0x559 JUMPI PUSH2 0x559 PUSH2 0x1B31 JUMP JUMPDEST DUP2 MSTORE PUSH1 0x6 SWAP2 SWAP1 SWAP2 ADD SLOAD PUSH1 0xFF PUSH2 0x100 DUP3 DIV DUP2 AND ISZERO ISZERO PUSH1 0x20 DUP5 ADD MSTORE PUSH3 0x10000 SWAP1 SWAP2 DIV AND ISZERO ISZERO PUSH1 0x40 SWAP1 SWAP2 ADD MSTORE PUSH1 0x80 DUP2 ADD MLOAD SWAP1 SWAP2 POP PUSH1 0x0 SWAP1 PUSH2 0x597 SWAP1 TIMESTAMP PUSH2 0x1CA8 JUMP JUMPDEST SWAP1 POP PUSH1 0x0 PUSH2 0x5A9 PUSH4 0x1E13380 DUP4 PUSH2 0x1CC1 JUMP JUMPDEST SWAP1 POP PUSH1 0x0 PUSH1 0x8 PUSH1 0x0 DUP6 PUSH1 0xC0 ADD MLOAD PUSH1 0x2 DUP2 GT ISZERO PUSH2 0x5C7 JUMPI PUSH2 0x5C7 PUSH2 0x1B31 JUMP JUMPDEST PUSH1 0x2 DUP2 GT ISZERO PUSH2 0x5D8 JUMPI PUSH2 0x5D8 PUSH2 0x1B31 JUMP JUMPDEST DUP2 MSTORE PUSH1 0x20 ADD SWAP1 DUP2 MSTORE PUSH1 0x20 ADD PUSH1 0x0 KECCAK256 SLOAD SWAP1 POP PUSH1 0x0 PUSH1 0x5 DUP4 GT PUSH2 0x5F9 JUMPI DUP3 PUSH2 0x5FC JUMP JUMPDEST PUSH1 0x5 JUMPDEST SWAP1 POP PUSH1 0x0 PUSH2 0x2710 DUP3 DUP5 DUP9 PUSH1 0x60 ADD MLOAD PUSH2 0x614 SWAP2 SWAP1 PUSH2 0x1CE3 JUMP JUMPDEST PUSH2 0x61E SWAP2 SWAP1 PUSH2 0x1CE3 JUMP JUMPDEST PUSH2 0x628 SWAP2 SWAP1 PUSH2 0x1CC1 JUMP JUMPDEST SWAP1 POP PUSH1 0x0 PUSH2 0x2710 PUSH1 0x9 SLOAD DUP9 PUSH1 0x60 ADD MLOAD PUSH2 0x641 SWAP2 SWAP1 PUSH2 0x1CE3 JUMP JUMPDEST PUSH2 0x64B SWAP2 SWAP1 PUSH2 0x1CC1 JUMP JUMPDEST SWAP1 POP PUSH2 0x657 DUP2 DUP4 PUSH2 0x1CFA JUMP JUMPDEST SWAP10 SWAP9 POP POP POP POP POP POP POP POP POP JUMP JUMPDEST PUSH1 0x1 PUSH1 0x1 PUSH1 0xA0 SHL SUB DUP2 AND PUSH1 0x0 SWAP1 DUP2 MSTORE PUSH1 0x4 PUSH1 0x20 SWAP1 DUP2 MSTORE PUSH1 0x40 SWAP2 DUP3 SWAP1 KECCAK256 DUP1 SLOAD DUP4 MLOAD DUP2 DUP5 MUL DUP2 ADD DUP5 ADD SWAP1 SWAP5 MSTORE DUP1 DUP5 MSTORE PUSH1 0x60 SWAP4 SWAP3 DUP4 ADD DUP3 DUP3 DUP1 ISZERO PUSH2 0x6C4 JUMPI PUSH1 0x20 MUL DUP3 ADD SWAP2 SWAP1 PUSH1 0x0 MSTORE PUSH1 0x20 PUSH1 0x0 KECCAK256 SWAP1 JUMPDEST DUP2 SLOAD DUP2 MSTORE PUSH1 0x20 ADD SWAP1 PUSH1 0x1 ADD SWAP1 DUP1 DUP4 GT PUSH2 0x6B0 JUMPI JUMPDEST POP POP POP POP POP SWAP1 POP SWAP2 SWAP1 POP JUMP JUMPDEST PUSH2 0x6D8 PUSH2 0x1842 JUMP JUMPDEST PUSH1 0x0 DUP2 DUP2 MSTORE PUSH1 0x2 PUSH1 0x20 MSTORE PUSH1 0x40 SWAP1 KECCAK256 PUSH1 0x6 DUP2 ADD SLOAD PUSH3 0x10000 SWAP1 DIV PUSH1 0xFF AND PUSH2 0x735 JUMPI PUSH1 0x40 MLOAD PUSH3 0x461BCD PUSH1 0xE5 SHL DUP2 MSTORE PUSH1 0x20 PUSH1 0x4 DUP3 ADD MSTORE PUSH1 0x12 PUSH1 0x24 DUP3 ADD MSTORE PUSH18 0x4465706F736974206E6F7420616374697665 PUSH1 0x70 SHL PUSH1 0x44 DUP3 ADD MSTORE PUSH1 0x64 ADD PUSH2 0x49D JUMP JUMPDEST PUSH1 0x1 DUP2 ADD SLOAD PUSH1 0x1 PUSH1 0x1 PUSH1 0xA0 SHL SUB AND CALLER EQ PUSH2 0x791 JUMPI PUSH1 0x40 MLOAD PUSH3 0x461BCD PUSH1 0xE5 SHL DUP2 MSTORE PUSH1 0x20 PUSH1 0x4 DUP3 ADD MSTORE PUSH1 0x1B PUSH1 0x24 DUP3 ADD MSTORE PUSH32 0x4F6E6C79206465706F7369746F722063616E2077697468647261770000000000 PUSH1 0x44 DUP3 ADD MSTORE PUSH1 0x64 ADD PUSH2 0x49D JUMP JUMPDEST PUSH1 0x5 DUP2 ADD SLOAD ISZERO PUSH2 0x7E6 JUMPI DUP1 PUSH1 0x5 ADD SLOAD TIMESTAMP LT ISZERO PUSH2 0x7E6 JUMPI PUSH1 0x40 MLOAD PUSH3 0x461BCD PUSH1 0xE5 SHL DUP2 MSTORE PUSH1 0x20 PUSH1 0x4 DUP3 ADD MSTORE PUSH1 0x14 PUSH1 0x24 DUP3 ADD MSTORE PUSH20 0x11195C1BDCDA5D081CDD1A5B1B081B1BD8DAD959 PUSH1 0x62 SHL PUSH1 0x44 DUP3 ADD MSTORE PUSH1 0x64 ADD PUSH2 0x49D JUMP JUMPDEST PUSH1 0x0 DUP2 PUSH1 0x4 ADD SLOAD TIMESTAMP PUSH2 0x7F8 SWAP2 SWAP1 PUSH2 0x1CA8 JUMP JUMPDEST SWAP1 POP PUSH1 0x0 PUSH2 0x80A PUSH4 0x1E13380 DUP4 PUSH2 0x1CC1 JUMP JUMPDEST PUSH1 0x6 DUP5 ADD SLOAD SWAP1 SWAP2 POP PUSH1 0x0 SWAP1 PUSH1 0x8 SWAP1 DUP3 SWAP1 PUSH1 0xFF AND PUSH1 0x2 DUP2 GT ISZERO PUSH2 0x82E JUMPI PUSH2 0x82E PUSH2 0x1B31 JUMP JUMPDEST PUSH1 0x2 DUP2 GT ISZERO PUSH2 0x83F JUMPI PUSH2 0x83F PUSH2 0x1B31 JUMP JUMPDEST DUP2 MSTORE PUSH1 0x20 ADD SWAP1 DUP2 MSTORE PUSH1 0x20 ADD PUSH1 0x0 KECCAK256 SLOAD SWAP1 POP PUSH1 0x0 PUSH1 0x5 DUP4 GT PUSH2 0x860 JUMPI DUP3 PUSH2 0x863 JUMP JUMPDEST PUSH1 0x5 JUMPDEST SWAP1 POP PUSH1 0x0 PUSH2 0x2710 DUP3 DUP5 DUP9 PUSH1 0x3 ADD SLOAD PUSH2 0x87B SWAP2 SWAP1 PUSH2 0x1CE3 JUMP JUMPDEST PUSH2 0x885 SWAP2 SWAP1 PUSH2 0x1CE3 JUMP JUMPDEST PUSH2 0x88F SWAP2 SWAP1 PUSH2 0x1CC1 JUMP JUMPDEST SWAP1 POP PUSH1 0x0 PUSH2 0x2710 PUSH1 0x9 SLOAD DUP9 PUSH1 0x3 ADD SLOAD PUSH2 0x8A8 SWAP2 SWAP1 PUSH2 0x1CE3 JUMP JUMPDEST PUSH2 0x8B2 SWAP2 SWAP1 PUSH2 0x1CC1 JUMP JUMPDEST SWAP1 POP PUSH1 0x0 PUSH2 0x8C0 DUP3 DUP5 PUSH2 0x1CFA JUMP JUMPDEST SWAP1 POP PUSH1 0x0 DUP2 DUP10 PUSH1 0x3 ADD SLOAD PUSH2 0x8D4 SWAP2 SWAP1 PUSH2 0x1CA8 JUMP JUMPDEST PUSH1 0x2 DUP11 ADD SLOAD PUSH1 0x40 MLOAD PUSH4 0xA9059CBB PUSH1 0xE0 SHL DUP2 MSTORE CALLER PUSH1 0x4 DUP3 ADD MSTORE PUSH1 0x24 DUP2 ADD DUP4 SWAP1 MSTORE SWAP2 SWAP3 POP PUSH1 0x1 PUSH1 0x1 PUSH1 0xA0 SHL SUB AND SWAP1 PUSH4 0xA9059CBB SWAP1 PUSH1 0x44 ADD PUSH1 0x20 PUSH1 0x40 MLOAD DUP1 DUP4 SUB DUP2 PUSH1 0x0 DUP8 GAS CALL ISZERO DUP1 ISZERO PUSH2 0x928 JUMPI RETURNDATASIZE PUSH1 0x0 DUP1 RETURNDATACOPY RETURNDATASIZE PUSH1 0x0 REVERT JUMPDEST POP POP POP POP PUSH1 0x40 MLOAD RETURNDATASIZE PUSH1 0x1F NOT PUSH1 0x1F DUP3 ADD AND DUP3 ADD DUP1 PUSH1 0x40 MSTORE POP DUP2 ADD SWAP1 PUSH2 0x94C SWAP2 SWAP1 PUSH2 0x1D0D JUMP JUMPDEST POP PUSH1 0x6 DUP10 ADD DUP1 SLOAD PUSH3 0xFF0000 NOT AND SWAP1 SSTORE PUSH2 0x964 DUP11 PUSH2 0x185E JUMP JUMPDEST PUSH1 0x40 DUP1 MLOAD DUP3 DUP2 MSTORE PUSH1 0x20 DUP2 ADD DUP5 SWAP1 MSTORE TIMESTAMP DUP2 DUP4 ADD MSTORE SWAP1 MLOAD CALLER SWAP2 DUP13 SWAP2 PUSH32 0xE4A16C51B3BA9D162EE99E982DAB7E18096015E3B0CB21B6FC0743DA18205E17 SWAP2 DUP2 SWAP1 SUB PUSH1 0x60 ADD SWAP1 LOG3 POP POP POP POP POP POP POP POP POP PUSH2 0x9C7 PUSH1 0x1 PUSH1 0x0 DUP1 MLOAD PUSH1 0x20 PUSH2 0x1DF9 DUP4 CODECOPY DUP2 MLOAD SWAP2 MSTORE SSTORE JUMP JUMPDEST POP JUMP JUMPDEST PUSH2 0x9D2 PUSH2 0x1815 JUMP JUMPDEST PUSH1 0x5 SLOAD PUSH1 0x40 MLOAD PUSH4 0x70A08231 PUSH1 0xE0 SHL DUP2 MSTORE ADDRESS PUSH1 0x4 DUP3 ADD MSTORE PUSH1 0x0 SWAP2 PUSH1 0x1 PUSH1 0x1 PUSH1 0xA0 SHL SUB AND SWAP1 PUSH4 0x70A08231 SWAP1 PUSH1 0x24 ADD PUSH1 0x20 PUSH1 0x40 MLOAD DUP1 DUP4 SUB DUP2 DUP7 GAS STATICCALL ISZERO DUP1 ISZERO PUSH2 0xA1B JUMPI RETURNDATASIZE PUSH1 0x0 DUP1 RETURNDATACOPY RETURNDATASIZE PUSH1 0x0 REVERT JUMPDEST POP POP POP POP PUSH1 0x40 MLOAD RETURNDATASIZE PUSH1 0x1F NOT PUSH1 0x1F DUP3 ADD AND DUP3 ADD DUP1 PUSH1 0x40 MSTORE POP DUP2 ADD SWAP1 PUSH2 0xA3F SWAP2 SWAP1 PUSH2 0x1D2F JUMP JUMPDEST SWAP1 POP PUSH1 0x0 DUP2 GT PUSH2 0xA87 JUMPI PUSH1 0x40 MLOAD PUSH3 0x461BCD PUSH1 0xE5 SHL DUP2 MSTORE PUSH1 0x20 PUSH1 0x4 DUP3 ADD MSTORE PUSH1 0x13 PUSH1 0x24 DUP3 ADD MSTORE PUSH19 0x4E6F206665657320746F207769746864726177 PUSH1 0x68 SHL PUSH1 0x44 DUP3 ADD MSTORE PUSH1 0x64 ADD PUSH2 0x49D JUMP JUMPDEST PUSH1 0x5 SLOAD PUSH1 0x40 MLOAD PUSH4 0xA9059CBB PUSH1 0xE0 SHL DUP2 MSTORE CALLER PUSH1 0x4 DUP3 ADD MSTORE PUSH1 0x24 DUP2 ADD DUP4 SWAP1 MSTORE PUSH1 0x1 PUSH1 0x1 PUSH1 0xA0 SHL SUB SWAP1 SWAP2 AND SWAP1 PUSH4 0xA9059CBB SWAP1 PUSH1 0x44 ADD PUSH1 0x20 PUSH1 0x40 MLOAD DUP1 DUP4 SUB DUP2 PUSH1 0x0 DUP8 GAS CALL ISZERO DUP1 ISZERO PUSH2 0xAD8 JUMPI RETURNDATASIZE PUSH1 0x0 DUP1 RETURNDATACOPY RETURNDATASIZE PUSH1 0x0 REVERT JUMPDEST POP POP POP POP PUSH1 0x40 MLOAD RETURNDATASIZE PUSH1 0x1F NOT PUSH1 0x1F DUP3 ADD AND DUP3 ADD DUP1 PUSH1 0x40 MSTORE POP DUP2 ADD SWAP1 PUSH2 0xAFC SWAP2 SWAP1 PUSH2 0x1D0D JUMP JUMPDEST POP PUSH1 0x40 MLOAD DUP2 DUP2 MSTORE CALLER SWAP1 PUSH32 0xC0819C13BE868895EB93E40EACEB96DE976442FA1D404E5C55F14BB65A8C489A SWAP1 PUSH1 0x20 ADD PUSH1 0x40 MLOAD DUP1 SWAP2 SUB SWAP1 LOG2 POP JUMP JUMPDEST PUSH2 0xB3D PUSH2 0x1815 JUMP JUMPDEST PUSH1 0x0 DUP4 GT PUSH2 0xB8D JUMPI PUSH1 0x40 MLOAD PUSH3 0x461BCD PUSH1 0xE5 SHL DUP2 MSTORE PUSH1 0x20 PUSH1 0x4 DUP3 ADD MSTORE PUSH1 0x17 PUSH1 0x24 DUP3 ADD MSTORE PUSH32 0x496E76616C6964206D696E696D756D206465706F736974000000000000000000 PUSH1 0x44 DUP3 ADD MSTORE PUSH1 0x64 ADD PUSH2 0x49D JUMP JUMPDEST DUP3 DUP3 GT PUSH2 0xBDC JUMPI PUSH1 0x40 MLOAD PUSH3 0x461BCD PUSH1 0xE5 SHL DUP2 MSTORE PUSH1 0x20 PUSH1 0x4 DUP3 ADD MSTORE PUSH1 0x17 PUSH1 0x24 DUP3 ADD MSTORE PUSH32 0x496E76616C6964206D6178696D756D206465706F736974000000000000000000 PUSH1 0x44 DUP3 ADD MSTORE PUSH1 0x64 ADD PUSH2 0x49D JUMP JUMPDEST PUSH2 0x1F4 DUP2 GT ISZERO PUSH2 0xC1D JUMPI PUSH1 0x40 MLOAD PUSH3 0x461BCD PUSH1 0xE5 SHL DUP2 MSTORE PUSH1 0x20 PUSH1 0x4 DUP3 ADD MSTORE PUSH1 0xC PUSH1 0x24 DUP3 ADD MSTORE PUSH12 0x8CCACA40E8DEDE40D0D2CED PUSH1 0xA3 SHL PUSH1 0x44 DUP3 ADD MSTORE PUSH1 0x64 ADD PUSH2 0x49D JUMP JUMPDEST DUP3 PUSH1 0x6 PUSH1 0x0 DUP7 PUSH1 0x2 DUP2 GT ISZERO PUSH2 0xC34 JUMPI PUSH2 0xC34 PUSH2 0x1B31 JUMP JUMPDEST PUSH1 0x2 DUP2 GT ISZERO PUSH2 0xC45 JUMPI PUSH2 0xC45 PUSH2 0x1B31 JUMP JUMPDEST DUP2 MSTORE PUSH1 0x20 ADD SWAP1 DUP2 MSTORE PUSH1 0x20 ADD PUSH1 0x0 KECCAK256 DUP2 SWAP1 SSTORE POP DUP2 PUSH1 0x7 PUSH1 0x0 DUP7 PUSH1 0x2 DUP2 GT ISZERO PUSH2 0xC6E JUMPI PUSH2 0xC6E PUSH2 0x1B31 JUMP JUMPDEST PUSH1 0x2 DUP2 GT ISZERO PUSH2 0xC7F JUMPI PUSH2 0xC7F PUSH2 0x1B31 JUMP JUMPDEST DUP2 MSTORE PUSH1 0x20 ADD SWAP1 DUP2 MSTORE PUSH1 0x20 ADD PUSH1 0x0 KECCAK256 DUP2 SWAP1 SSTORE POP DUP1 PUSH1 0x8 PUSH1 0x0 DUP7 PUSH1 0x2 DUP2 GT ISZERO PUSH2 0xCA8 JUMPI PUSH2 0xCA8 PUSH2 0x1B31 JUMP JUMPDEST PUSH1 0x2 DUP2 GT ISZERO PUSH2 0xCB9 JUMPI PUSH2 0xCB9 PUSH2 0x1B31 JUMP JUMPDEST DUP2 MSTORE PUSH1 0x20 ADD SWAP1 DUP2 MSTORE PUSH1 0x20 ADD PUSH1 0x0 KECCAK256 DUP2 SWAP1 SSTORE POP PUSH32 0x8A8BE32F561BAE947D8A12913D5DDBCB7EB4B7E8DB9D7474CE283D37ADB1AB73 DUP5 DUP5 DUP5 DUP5 PUSH1 0x40 MLOAD PUSH2 0xD00 SWAP5 SWAP4 SWAP3 SWAP2 SWAP1 PUSH2 0x1D48 JUMP JUMPDEST PUSH1 0x40 MLOAD DUP1 SWAP2 SUB SWAP1 LOG1 POP POP POP POP JUMP JUMPDEST PUSH2 0xD16 PUSH2 0x1815 JUMP JUMPDEST PUSH2 0xD20 PUSH1 0x0 PUSH2 0x191A JUMP JUMPDEST JUMP JUMPDEST PUSH1 0x3 DUP2 DUP2 SLOAD DUP2 LT PUSH2 0xD32 JUMPI PUSH1 0x0 DUP1 REVERT JUMPDEST PUSH1 0x0 SWAP2 DUP3 MSTORE PUSH1 0x20 SWAP1 SWAP2 KECCAK256 ADD SLOAD SWAP1 POP DUP2 JUMP JUMPDEST PUSH1 0x60 PUSH1 0x3 DUP1 SLOAD DUP1 PUSH1 0x20 MUL PUSH1 0x20 ADD PUSH1 0x40 MLOAD SWAP1 DUP2 ADD PUSH1 0x40 MSTORE DUP1 SWAP3 SWAP2 SWAP1 DUP2 DUP2 MSTORE PUSH1 0x20 ADD DUP3 DUP1 SLOAD DUP1 ISZERO PUSH2 0xD91 JUMPI PUSH1 0x20 MUL DUP3 ADD SWAP2 SWAP1 PUSH1 0x0 MSTORE PUSH1 0x20 PUSH1 0x0 KECCAK256 SWAP1 JUMPDEST DUP2 SLOAD DUP2 MSTORE PUSH1 0x20 ADD SWAP1 PUSH1 0x1 ADD SWAP1 DUP1 DUP4 GT PUSH2 0xD7D JUMPI JUMPDEST POP POP POP POP POP SWAP1 POP SWAP1 JUMP JUMPDEST PUSH2 0xDA3 PUSH2 0x199A JUMP JUMPDEST PUSH1 0x0 DUP3 DUP2 MSTORE PUSH1 0x2 PUSH1 0x20 DUP2 DUP2 MSTORE PUSH1 0x40 SWAP3 DUP4 SWAP1 KECCAK256 DUP4 MLOAD PUSH2 0x120 DUP2 ADD DUP6 MSTORE DUP2 SLOAD DUP2 MSTORE PUSH1 0x1 DUP3 ADD SLOAD PUSH1 0x1 PUSH1 0x1 PUSH1 0xA0 SHL SUB SWAP1 DUP2 AND SWAP4 DUP3 ADD SWAP4 SWAP1 SWAP4 MSTORE DUP2 DUP5 ADD SLOAD SWAP1 SWAP3 AND SWAP4 DUP3 ADD SWAP4 SWAP1 SWAP4 MSTORE PUSH1 0x3 DUP4 ADD SLOAD PUSH1 0x60 DUP3 ADD MSTORE PUSH1 0x4 DUP4 ADD SLOAD PUSH1 0x80 DUP3 ADD MSTORE PUSH1 0x5 DUP4 ADD SLOAD PUSH1 0xA0 DUP3 ADD MSTORE PUSH1 0x6 DUP4 ADD SLOAD SWAP1 SWAP3 SWAP2 PUSH1 0xC0 DUP5 ADD SWAP2 PUSH1 0xFF AND SWAP1 DUP2 GT ISZERO PUSH2 0xE25 JUMPI PUSH2 0xE25 PUSH2 0x1B31 JUMP JUMPDEST PUSH1 0x2 DUP2 GT ISZERO PUSH2 0xE36 JUMPI PUSH2 0xE36 PUSH2 0x1B31 JUMP JUMPDEST DUP2 MSTORE PUSH1 0x6 SWAP2 SWAP1 SWAP2 ADD SLOAD PUSH1 0xFF PUSH2 0x100 DUP3 DIV DUP2 AND ISZERO ISZERO PUSH1 0x20 DUP5 ADD MSTORE PUSH3 0x10000 SWAP1 SWAP2 DIV AND ISZERO ISZERO PUSH1 0x40 SWAP1 SWAP2 ADD MSTORE SWAP3 SWAP2 POP POP JUMP JUMPDEST PUSH1 0x0 DUP1 PUSH1 0x0 DUP1 PUSH1 0x0 DUP1 PUSH1 0x0 DUP1 PUSH1 0x0 DUP1 PUSH1 0x0 JUMPDEST PUSH1 0x3 SLOAD DUP2 LT ISZERO PUSH2 0xFFC JUMPI PUSH1 0x0 PUSH1 0x2 PUSH1 0x0 PUSH1 0x3 DUP5 DUP2 SLOAD DUP2 LT PUSH2 0xE9A JUMPI PUSH2 0xE9A PUSH2 0x1D71 JUMP JUMPDEST PUSH1 0x0 SWAP2 DUP3 MSTORE PUSH1 0x20 DUP1 DUP4 KECCAK256 SWAP1 SWAP2 ADD SLOAD DUP4 MSTORE DUP3 DUP2 ADD SWAP4 SWAP1 SWAP4 MSTORE PUSH1 0x40 SWAP2 DUP3 ADD SWAP1 KECCAK256 DUP2 MLOAD PUSH2 0x120 DUP2 ADD DUP4 MSTORE DUP2 SLOAD DUP2 MSTORE PUSH1 0x1 DUP3 ADD SLOAD PUSH1 0x1 PUSH1 0x1 PUSH1 0xA0 SHL SUB SWAP1 DUP2 AND SWAP5 DUP3 ADD SWAP5 SWAP1 SWAP5 MSTORE PUSH1 0x2 DUP1 DUP4 ADD SLOAD SWAP1 SWAP5 AND SWAP3 DUP2 ADD SWAP3 SWAP1 SWAP3 MSTORE PUSH1 0x3 DUP2 ADD SLOAD PUSH1 0x60 DUP4 ADD MSTORE PUSH1 0x4 DUP2 ADD SLOAD PUSH1 0x80 DUP4 ADD MSTORE PUSH1 0x5 DUP2 ADD SLOAD PUSH1 0xA0 DUP4 ADD MSTORE PUSH1 0x6 DUP2 ADD SLOAD SWAP2 SWAP3 SWAP1 SWAP2 PUSH1 0xC0 DUP5 ADD SWAP2 PUSH1 0xFF SWAP1 SWAP2 AND SWAP1 DUP2 GT ISZERO PUSH2 0xF2D JUMPI PUSH2 0xF2D PUSH2 0x1B31 JUMP JUMPDEST PUSH1 0x2 DUP2 GT ISZERO PUSH2 0xF3E JUMPI PUSH2 0xF3E PUSH2 0x1B31 JUMP JUMPDEST DUP2 MSTORE PUSH1 0x6 SWAP2 SWAP1 SWAP2 ADD SLOAD PUSH1 0xFF PUSH2 0x100 DUP3 DIV DUP2 AND ISZERO ISZERO PUSH1 0x20 DUP5 ADD MSTORE PUSH3 0x10000 SWAP1 SWAP2 DIV AND ISZERO ISZERO PUSH1 0x40 SWAP1 SWAP2 ADD MSTORE PUSH1 0x60 DUP2 ADD MLOAD SWAP1 SWAP2 POP PUSH2 0xF79 SWAP1 DUP8 PUSH2 0x1CFA JUMP JUMPDEST SWAP6 POP DUP1 PUSH1 0xE0 ADD MLOAD ISZERO PUSH2 0xF93 JUMPI DUP5 PUSH2 0xF8F DUP2 PUSH2 0x1D87 JUMP JUMPDEST SWAP6 POP POP JUMPDEST PUSH1 0x1 DUP2 PUSH1 0xC0 ADD MLOAD PUSH1 0x2 DUP2 GT ISZERO PUSH2 0xFAB JUMPI PUSH2 0xFAB PUSH2 0x1B31 JUMP JUMPDEST SUB PUSH2 0xFBE JUMPI DUP4 PUSH2 0xFBA DUP2 PUSH2 0x1D87 JUMP JUMPDEST SWAP5 POP POP JUMPDEST PUSH1 0x2 DUP2 PUSH1 0xC0 ADD MLOAD PUSH1 0x2 DUP2 GT ISZERO PUSH2 0xFD6 JUMPI PUSH2 0xFD6 PUSH2 0x1B31 JUMP JUMPDEST SUB PUSH2 0xFE9 JUMPI DUP3 PUSH2 0xFE5 DUP2 PUSH2 0x1D87 JUMP JUMPDEST SWAP4 POP POP JUMPDEST POP DUP1 PUSH2 0xFF4 DUP2 PUSH2 0x1D87 JUMP JUMPDEST SWAP2 POP POP PUSH2 0xE77 JUMP JUMPDEST POP PUSH1 0x1 DUP1 SLOAD PUSH2 0x100B SWAP2 SWAP1 PUSH2 0x1CA8 JUMP JUMPDEST PUSH1 0x3 SLOAD SWAP1 SWAP12 SWAP1 SWAP11 POP SWAP4 SWAP9 POP SWAP2 SWAP7 POP SWAP5 POP SWAP3 POP SWAP1 POP JUMP JUMPDEST PUSH2 0x1029 PUSH2 0x1815 JUMP JUMPDEST PUSH2 0x1F4 DUP2 GT ISZERO PUSH2 0x106A JUMPI PUSH1 0x40 MLOAD PUSH3 0x461BCD PUSH1 0xE5 SHL DUP2 MSTORE PUSH1 0x20 PUSH1 0x4 DUP3 ADD MSTORE PUSH1 0xC PUSH1 0x24 DUP3 ADD MSTORE PUSH12 0x8CCACA40E8DEDE40D0D2CED PUSH1 0xA3 SHL PUSH1 0x44 DUP3 ADD MSTORE PUSH1 0x64 ADD PUSH2 0x49D JUMP JUMPDEST PUSH1 0x9 DUP1 SLOAD SWAP1 DUP3 SWAP1 SSTORE PUSH1 0x40 DUP1 MLOAD DUP3 DUP2 MSTORE PUSH1 0x20 DUP2 ADD DUP5 SWAP1 MSTORE PUSH32 0xD347E206F25A89B917FC9482F1A2D294D749BAA4DC9BDE7FB495EE11FE491643 SWAP2 ADD JUMPDEST PUSH1 0x40 MLOAD DUP1 SWAP2 SUB SWAP1 LOG1 POP POP JUMP JUMPDEST PUSH2 0x10B8 PUSH2 0x1815 JUMP JUMPDEST PUSH1 0x0 DUP2 GT PUSH2 0x10FC JUMPI PUSH1 0x40 MLOAD PUSH3 0x461BCD PUSH1 0xE5 SHL DUP2 MSTORE PUSH1 0x20 PUSH1 0x4 DUP3 ADD MSTORE PUSH1 0x11 PUSH1 0x24 DUP3 ADD MSTORE PUSH17 0x125B9D985B1A59081D1A1C995CDA1BDB19 PUSH1 0x7A SHL PUSH1 0x44 DUP3 ADD MSTORE PUSH1 0x64 ADD PUSH2 0x49D JUMP JUMPDEST PUSH1 0xA DUP1 SLOAD SWAP1 DUP3 SWAP1 SSTORE PUSH1 0x40 DUP1 MLOAD DUP3 DUP2 MSTORE PUSH1 0x20 DUP2 ADD DUP5 SWAP1 MSTORE PUSH32 0x781065E43BAABA71E5B5CF7827235C92B28041FEB5DE165FF901E0E9C63D1ED4 SWAP2 ADD PUSH2 0x10A4 JUMP JUMPDEST PUSH1 0x3 SLOAD PUSH1 0x60 SWAP1 PUSH1 0x0 SWAP1 PUSH8 0xFFFFFFFFFFFFFFFF DUP2 GT ISZERO PUSH2 0x115B JUMPI PUSH2 0x115B PUSH2 0x1DA0 JUMP JUMPDEST PUSH1 0x40 MLOAD SWAP1 DUP1 DUP3 MSTORE DUP1 PUSH1 0x20 MUL PUSH1 0x20 ADD DUP3 ADD PUSH1 0x40 MSTORE DUP1 ISZERO PUSH2 0x1184 JUMPI DUP2 PUSH1 0x20 ADD PUSH1 0x20 DUP3 MUL DUP1 CALLDATASIZE DUP4 CALLDATACOPY ADD SWAP1 POP JUMPDEST POP SWAP1 POP PUSH1 0x0 DUP1 JUMPDEST PUSH1 0x3 SLOAD DUP2 LT ISZERO PUSH2 0x129B JUMPI DUP5 PUSH1 0x2 DUP2 GT ISZERO PUSH2 0x11A7 JUMPI PUSH2 0x11A7 PUSH2 0x1B31 JUMP JUMPDEST PUSH1 0x2 PUSH1 0x0 PUSH1 0x3 DUP5 DUP2 SLOAD DUP2 LT PUSH2 0x11BE JUMPI PUSH2 0x11BE PUSH2 0x1D71 JUMP JUMPDEST PUSH1 0x0 SWAP2 DUP3 MSTORE PUSH1 0x20 DUP1 DUP4 KECCAK256 SWAP1 SWAP2 ADD SLOAD DUP4 MSTORE DUP3 ADD SWAP3 SWAP1 SWAP3 MSTORE PUSH1 0x40 ADD SWAP1 KECCAK256 PUSH1 0x6 ADD SLOAD PUSH1 0xFF AND PUSH1 0x2 DUP2 GT ISZERO PUSH2 0x11F1 JUMPI PUSH2 0x11F1 PUSH2 0x1B31 JUMP JUMPDEST EQ DUP1 ISZERO PUSH2 0x123B JUMPI POP PUSH1 0x2 PUSH1 0x0 PUSH1 0x3 DUP4 DUP2 SLOAD DUP2 LT PUSH2 0x1210 JUMPI PUSH2 0x1210 PUSH2 0x1D71 JUMP JUMPDEST SWAP1 PUSH1 0x0 MSTORE PUSH1 0x20 PUSH1 0x0 KECCAK256 ADD SLOAD DUP2 MSTORE PUSH1 0x20 ADD SWAP1 DUP2 MSTORE PUSH1 0x20 ADD PUSH1 0x0 KECCAK256 PUSH1 0x6 ADD PUSH1 0x2 SWAP1 SLOAD SWAP1 PUSH2 0x100 EXP SWAP1 DIV PUSH1 0xFF AND JUMPDEST ISZERO PUSH2 0x1289 JUMPI PUSH1 0x3 DUP2 DUP2 SLOAD DUP2 LT PUSH2 0x1253 JUMPI PUSH2 0x1253 PUSH2 0x1D71 JUMP JUMPDEST SWAP1 PUSH1 0x0 MSTORE PUSH1 0x20 PUSH1 0x0 KECCAK256 ADD SLOAD DUP4 DUP4 DUP2 MLOAD DUP2 LT PUSH2 0x1270 JUMPI PUSH2 0x1270 PUSH2 0x1D71 JUMP JUMPDEST PUSH1 0x20 SWAP1 DUP2 MUL SWAP2 SWAP1 SWAP2 ADD ADD MSTORE DUP2 PUSH2 0x1285 DUP2 PUSH2 0x1D87 JUMP JUMPDEST SWAP3 POP POP JUMPDEST DUP1 PUSH2 0x1293 DUP2 PUSH2 0x1D87 JUMP JUMPDEST SWAP2 POP POP PUSH2 0x118B JUMP JUMPDEST POP PUSH1 0x0 DUP2 PUSH8 0xFFFFFFFFFFFFFFFF DUP2 GT ISZERO PUSH2 0x12B7 JUMPI PUSH2 0x12B7 PUSH2 0x1DA0 JUMP JUMPDEST PUSH1 0x40 MLOAD SWAP1 DUP1 DUP3 MSTORE DUP1 PUSH1 0x20 MUL PUSH1 0x20 ADD DUP3 ADD PUSH1 0x40 MSTORE DUP1 ISZERO PUSH2 0x12E0 JUMPI DUP2 PUSH1 0x20 ADD PUSH1 0x20 DUP3 MUL DUP1 CALLDATASIZE DUP4 CALLDATACOPY ADD SWAP1 POP JUMPDEST POP SWAP1 POP PUSH1 0x0 JUMPDEST DUP3 DUP2 LT ISZERO PUSH2 0x1337 JUMPI DUP4 DUP2 DUP2 MLOAD DUP2 LT PUSH2 0x1300 JUMPI PUSH2 0x1300 PUSH2 0x1D71 JUMP JUMPDEST PUSH1 0x20 MUL PUSH1 0x20 ADD ADD MLOAD DUP3 DUP3 DUP2 MLOAD DUP2 LT PUSH2 0x131A JUMPI PUSH2 0x131A PUSH2 0x1D71 JUMP JUMPDEST PUSH1 0x20 SWAP1 DUP2 MUL SWAP2 SWAP1 SWAP2 ADD ADD MSTORE DUP1 PUSH2 0x132F DUP2 PUSH2 0x1D87 JUMP JUMPDEST SWAP2 POP POP PUSH2 0x12E6 JUMP JUMPDEST POP SWAP5 SWAP4 POP POP POP POP JUMP JUMPDEST PUSH2 0x1348 PUSH2 0x1815 JUMP JUMPDEST PUSH1 0x1 PUSH1 0x1 PUSH1 0xA0 SHL SUB DUP2 AND PUSH2 0x1372 JUMPI PUSH1 0x40 MLOAD PUSH4 0x1E4FBDF7 PUSH1 0xE0 SHL DUP2 MSTORE PUSH1 0x0 PUSH1 0x4 DUP3 ADD MSTORE PUSH1 0x24 ADD PUSH2 0x49D JUMP JUMPDEST PUSH2 0x9C7 DUP2 PUSH2 0x191A JUMP JUMPDEST PUSH1 0x0 PUSH2 0x1385 PUSH2 0x1842 JUMP JUMPDEST PUSH1 0x1 PUSH1 0x1 PUSH1 0xA0 SHL SUB DUP6 AND PUSH2 0x13D3 JUMPI PUSH1 0x40 MLOAD PUSH3 0x461BCD PUSH1 0xE5 SHL DUP2 MSTORE PUSH1 0x20 PUSH1 0x4 DUP3 ADD MSTORE PUSH1 0x15 PUSH1 0x24 DUP3 ADD MSTORE PUSH21 0x496E76616C696420746F6B656E2061646472657373 PUSH1 0x58 SHL PUSH1 0x44 DUP3 ADD MSTORE PUSH1 0x64 ADD PUSH2 0x49D JUMP JUMPDEST PUSH1 0x0 DUP5 GT PUSH2 0x1423 JUMPI PUSH1 0x40 MLOAD PUSH3 0x461BCD PUSH1 0xE5 SHL DUP2 MSTORE PUSH1 0x20 PUSH1 0x4 DUP3 ADD MSTORE PUSH1 0x1D PUSH1 0x24 DUP3 ADD MSTORE PUSH32 0x416D6F756E74206D7573742062652067726561746572207468616E2030000000 PUSH1 0x44 DUP3 ADD MSTORE PUSH1 0x64 ADD PUSH2 0x49D JUMP JUMPDEST PUSH1 0x6 PUSH1 0x0 DUP4 PUSH1 0x2 DUP2 GT ISZERO PUSH2 0x1439 JUMPI PUSH2 0x1439 PUSH2 0x1B31 JUMP JUMPDEST PUSH1 0x2 DUP2 GT ISZERO PUSH2 0x144A JUMPI PUSH2 0x144A PUSH2 0x1B31 JUMP JUMPDEST DUP2 MSTORE PUSH1 0x20 ADD SWAP1 DUP2 MSTORE PUSH1 0x20 ADD PUSH1 0x0 KECCAK256 SLOAD DUP5 LT ISZERO PUSH2 0x14A8 JUMPI PUSH1 0x40 MLOAD PUSH3 0x461BCD PUSH1 0xE5 SHL DUP2 MSTORE PUSH1 0x20 PUSH1 0x4 DUP3 ADD MSTORE PUSH1 0x19 PUSH1 0x24 DUP3 ADD MSTORE PUSH32 0x416D6F756E742062656C6F772074696572206D696E696D756D00000000000000 PUSH1 0x44 DUP3 ADD MSTORE PUSH1 0x64 ADD PUSH2 0x49D JUMP JUMPDEST PUSH1 0x7 PUSH1 0x0 DUP4 PUSH1 0x2 DUP2 GT ISZERO PUSH2 0x14BE JUMPI PUSH2 0x14BE PUSH2 0x1B31 JUMP JUMPDEST PUSH1 0x2 DUP2 GT ISZERO PUSH2 0x14CF JUMPI PUSH2 0x14CF PUSH2 0x1B31 JUMP JUMPDEST DUP2 MSTORE PUSH1 0x20 ADD SWAP1 DUP2 MSTORE PUSH1 0x20 ADD PUSH1 0x0 KECCAK256 SLOAD DUP5 GT ISZERO PUSH2 0x152D JUMPI PUSH1 0x40 MLOAD PUSH3 0x461BCD PUSH1 0xE5 SHL DUP2 MSTORE PUSH1 0x20 PUSH1 0x4 DUP3 ADD MSTORE PUSH1 0x19 PUSH1 0x24 DUP3 ADD MSTORE PUSH32 0x416D6F756E742061626F76652074696572206D6178696D756D00000000000000 PUSH1 0x44 DUP3 ADD MSTORE PUSH1 0x64 ADD PUSH2 0x49D JUMP JUMPDEST DUP3 ISZERO PUSH2 0x1582 JUMPI TIMESTAMP DUP4 GT PUSH2 0x1582 JUMPI PUSH1 0x40 MLOAD PUSH3 0x461BCD PUSH1 0xE5 SHL DUP2 MSTORE PUSH1 0x20 PUSH1 0x4 DUP3 ADD MSTORE PUSH1 0x1B PUSH1 0x24 DUP3 ADD MSTORE PUSH32 0x4C6F636B2074696D65206D75737420626520696E206675747572650000000000 PUSH1 0x44 DUP3 ADD MSTORE PUSH1 0x64 ADD PUSH2 0x49D JUMP JUMPDEST PUSH1 0xA SLOAD PUSH1 0x40 MLOAD PUSH4 0x23B872DD PUSH1 0xE0 SHL DUP2 MSTORE CALLER PUSH1 0x4 DUP3 ADD MSTORE ADDRESS PUSH1 0x24 DUP3 ADD MSTORE PUSH1 0x44 DUP2 ADD DUP7 SWAP1 MSTORE SWAP1 DUP6 LT ISZERO SWAP1 PUSH1 0x1 PUSH1 0x1 PUSH1 0xA0 SHL SUB DUP8 AND SWAP1 PUSH4 0x23B872DD SWAP1 PUSH1 0x64 ADD PUSH1 0x20 PUSH1 0x40 MLOAD DUP1 DUP4 SUB DUP2 PUSH1 0x0 DUP8 GAS CALL ISZERO DUP1 ISZERO PUSH2 0x15DD JUMPI RETURNDATASIZE PUSH1 0x0 DUP1 RETURNDATACOPY RETURNDATASIZE PUSH1 0x0 REVERT JUMPDEST POP POP POP POP PUSH1 0x40 MLOAD RETURNDATASIZE PUSH1 0x1F NOT PUSH1 0x1F DUP3 ADD AND DUP3 ADD DUP1 PUSH1 0x40 MSTORE POP DUP2 ADD SWAP1 PUSH2 0x1601 SWAP2 SWAP1 PUSH2 0x1D0D JUMP JUMPDEST POP PUSH1 0x1 DUP1 SLOAD PUSH1 0x0 SWAP2 DUP3 PUSH2 0x1613 DUP4 PUSH2 0x1D87 JUMP JUMPDEST SWAP2 SWAP1 POP SSTORE SWAP1 POP PUSH1 0x40 MLOAD DUP1 PUSH2 0x120 ADD PUSH1 0x40 MSTORE DUP1 DUP3 DUP2 MSTORE PUSH1 0x20 ADD CALLER PUSH1 0x1 PUSH1 0x1 PUSH1 0xA0 SHL SUB AND DUP2 MSTORE PUSH1 0x20 ADD DUP9 PUSH1 0x1 PUSH1 0x1 PUSH1 0xA0 SHL SUB AND DUP2 MSTORE PUSH1 0x20 ADD DUP8 DUP2 MSTORE PUSH1 0x20 ADD TIMESTAMP DUP2 MSTORE PUSH1 0x20 ADD DUP7 DUP2 MSTORE PUSH1 0x20 ADD DUP6 PUSH1 0x2 DUP2 GT ISZERO PUSH2 0x166D JUMPI PUSH2 0x166D PUSH2 0x1B31 JUMP JUMPDEST DUP2 MSTORE DUP4 ISZERO ISZERO PUSH1 0x20 DUP1 DUP4 ADD SWAP2 SWAP1 SWAP2 MSTORE PUSH1 0x1 PUSH1 0x40 SWAP3 DUP4 ADD DUP2 SWAP1 MSTORE PUSH1 0x0 DUP6 DUP2 MSTORE PUSH1 0x2 DUP1 DUP5 MSTORE SWAP1 DUP5 SWAP1 KECCAK256 DUP6 MLOAD DUP2 SSTORE SWAP3 DUP6 ADD MLOAD DUP4 DUP4 ADD DUP1 SLOAD PUSH1 0x1 PUSH1 0x1 PUSH1 0xA0 SHL SUB NOT SWAP1 DUP2 AND PUSH1 0x1 PUSH1 0x1 PUSH1 0xA0 SHL SUB SWAP4 DUP5 AND OR SWAP1 SWAP2 SSTORE SWAP5 DUP7 ADD MLOAD DUP5 DUP4 ADD DUP1 SLOAD SWAP1 SWAP7 AND SWAP2 AND OR SWAP1 SWAP4 SSTORE PUSH1 0x60 DUP5 ADD MLOAD PUSH1 0x3 DUP4 ADD SSTORE PUSH1 0x80 DUP5 ADD MLOAD PUSH1 0x4 DUP4 ADD SSTORE PUSH1 0xA0 DUP5 ADD MLOAD PUSH1 0x5 DUP4 ADD SSTORE PUSH1 0xC0 DUP5 ADD MLOAD PUSH1 0x6 DUP4 ADD DUP1 SLOAD SWAP4 SWAP5 SWAP2 SWAP4 SWAP1 SWAP3 PUSH1 0xFF NOT SWAP1 SWAP2 AND SWAP2 DUP5 SWAP1 DUP2 GT ISZERO PUSH2 0x1714 JUMPI PUSH2 0x1714 PUSH2 0x1B31 JUMP JUMPDEST MUL OR SWAP1 SSTORE POP PUSH1 0xE0 DUP3 ADD MLOAD PUSH1 0x6 SWAP1 SWAP2 ADD DUP1 SLOAD PUSH2 0x100 SWAP4 DUP5 ADD MLOAD ISZERO ISZERO PUSH3 0x10000 MUL PUSH3 0xFF0000 NOT SWAP4 ISZERO ISZERO SWAP1 SWAP5 MUL SWAP3 SWAP1 SWAP3 AND PUSH3 0xFFFF00 NOT SWAP1 SWAP3 AND SWAP2 SWAP1 SWAP2 OR SWAP2 SWAP1 SWAP2 OR SWAP1 SSTORE PUSH1 0x3 DUP1 SLOAD PUSH1 0x1 DUP2 DUP2 ADD SWAP1 SWAP3 SSTORE PUSH32 0xC2575A0E9E593C00F959F8C92F12DB2869C3395A3B0502D05E2516446F71F85B ADD DUP3 SWAP1 SSTORE CALLER PUSH1 0x0 DUP2 DUP2 MSTORE PUSH1 0x4 PUSH1 0x20 SWAP1 DUP2 MSTORE PUSH1 0x40 DUP1 DUP4 KECCAK256 DUP1 SLOAD SWAP6 DUP7 ADD DUP2 SSTORE DUP4 MSTORE SWAP2 KECCAK256 SWAP1 SWAP3 ADD DUP4 SWAP1 SSTORE SWAP1 MLOAD PUSH1 0x1 PUSH1 0x1 PUSH1 0xA0 SHL SUB DUP10 AND SWAP2 SWAP1 DUP4 SWAP1 PUSH32 0xF3E694E1C318AD84CEFC55197DD0CC9C78C5C9317F8714A5129287A175EE76DE SWAP1 PUSH2 0x17EB SWAP1 DUP12 SWAP1 DUP12 SWAP1 DUP12 SWAP1 DUP11 SWAP1 PUSH2 0x1DB6 JUMP JUMPDEST PUSH1 0x40 MLOAD DUP1 SWAP2 SUB SWAP1 LOG4 SWAP2 POP POP PUSH2 0x180D PUSH1 0x1 PUSH1 0x0 DUP1 MLOAD PUSH1 0x20 PUSH2 0x1DF9 DUP4 CODECOPY DUP2 MLOAD SWAP2 MSTORE SSTORE JUMP JUMPDEST SWAP5 SWAP4 POP POP POP POP JUMP JUMPDEST PUSH1 0x0 SLOAD PUSH1 0x1 PUSH1 0x1 PUSH1 0xA0 SHL SUB AND CALLER EQ PUSH2 0xD20 JUMPI PUSH1 0x40 MLOAD PUSH4 0x118CDAA7 PUSH1 0xE0 SHL DUP2 MSTORE CALLER PUSH1 0x4 DUP3 ADD MSTORE PUSH1 0x24 ADD PUSH2 0x49D JUMP JUMPDEST PUSH2 0x184A PUSH2 0x196A JUMP JUMPDEST PUSH1 0x2 PUSH1 0x0 DUP1 MLOAD PUSH1 0x20 PUSH2 0x1DF9 DUP4 CODECOPY DUP2 MLOAD SWAP2 MSTORE SSTORE JUMP JUMPDEST PUSH1 0x0 JUMPDEST PUSH1 0x3 SLOAD DUP2 LT ISZERO PUSH2 0x1916 JUMPI DUP2 PUSH1 0x3 DUP3 DUP2 SLOAD DUP2 LT PUSH2 0x187F JUMPI PUSH2 0x187F PUSH2 0x1D71 JUMP JUMPDEST SWAP1 PUSH1 0x0 MSTORE PUSH1 0x20 PUSH1 0x0 KECCAK256 ADD SLOAD SUB PUSH2 0x1904 JUMPI PUSH1 0x3 DUP1 SLOAD PUSH2 0x189F SWAP1 PUSH1 0x1 SWAP1 PUSH2 0x1CA8 JUMP JUMPDEST DUP2 SLOAD DUP2 LT PUSH2 0x18AF JUMPI PUSH2 0x18AF PUSH2 0x1D71 JUMP JUMPDEST SWAP1 PUSH1 0x0 MSTORE PUSH1 0x20 PUSH1 0x0 KECCAK256 ADD SLOAD PUSH1 0x3 DUP3 DUP2 SLOAD DUP2 LT PUSH2 0x18CD JUMPI PUSH2 0x18CD PUSH2 0x1D71 JUMP JUMPDEST PUSH1 0x0 SWAP2 DUP3 MSTORE PUSH1 0x20 SWAP1 SWAP2 KECCAK256 ADD SSTORE PUSH1 0x3 DUP1 SLOAD DUP1 PUSH2 0x18EA JUMPI PUSH2 0x18EA PUSH2 0x1DE2 JUMP JUMPDEST PUSH1 0x1 SWAP1 SUB DUP2 DUP2 SWAP1 PUSH1 0x0 MSTORE PUSH1 0x20 PUSH1 0x0 KECCAK256 ADD PUSH1 0x0 SWAP1 SSTORE SWAP1 SSTORE POP POP JUMP JUMPDEST DUP1 PUSH2 0x190E DUP2 PUSH2 0x1D87 JUMP JUMPDEST SWAP2 POP POP PUSH2 0x1861 JUMP JUMPDEST POP POP JUMP JUMPDEST PUSH1 0x0 DUP1 SLOAD PUSH1 0x1 PUSH1 0x1 PUSH1 0xA0 SHL SUB DUP4 DUP2 AND PUSH1 0x1 PUSH1 0x1 PUSH1 0xA0 SHL SUB NOT DUP4 AND DUP2 OR DUP5 SSTORE PUSH1 0x40 MLOAD SWAP2 SWAP1 SWAP3 AND SWAP3 DUP4 SWAP2 PUSH32 0x8BE0079C531659141344CD1FD0A4F28419497F9722A3DAAFE3B4186F6B6457E0 SWAP2 SWAP1 LOG3 POP POP JUMP JUMPDEST PUSH1 0x0 DUP1 MLOAD PUSH1 0x20 PUSH2 0x1DF9 DUP4 CODECOPY DUP2 MLOAD SWAP2 MSTORE SLOAD PUSH1 0x2 SUB PUSH2 0xD20 JUMPI PUSH1 0x40 MLOAD PUSH4 0x3EE5AEB5 PUSH1 0xE0 SHL DUP2 MSTORE PUSH1 0x4 ADD PUSH1 0x40 MLOAD DUP1 SWAP2 SUB SWAP1 REVERT JUMPDEST PUSH1 0x40 MLOAD DUP1 PUSH2 0x120 ADD PUSH1 0x40 MSTORE DUP1 PUSH1 0x0 DUP2 MSTORE PUSH1 0x20 ADD PUSH1 0x0 PUSH1 0x1 PUSH1 0x1 PUSH1 0xA0 SHL SUB AND DUP2 MSTORE PUSH1 0x20 ADD PUSH1 0x0 PUSH1 0x1 PUSH1 0x1 PUSH1 0xA0 SHL SUB AND DUP2 MSTORE PUSH1 0x20 ADD PUSH1 0x0 DUP2 MSTORE PUSH1 0x20 ADD PUSH1 0x0 DUP2 MSTORE PUSH1 0x20 ADD PUSH1 0x0 DUP2 MSTORE PUSH1 0x20 ADD PUSH1 0x0 PUSH1 0x2 DUP2 GT ISZERO PUSH2 0x19F5 JUMPI PUSH2 0x19F5 PUSH2 0x1B31 JUMP JUMPDEST DUP2 MSTORE PUSH1 0x0 PUSH1 0x20 DUP3 ADD DUP2 SWAP1 MSTORE PUSH1 0x40 SWAP1 SWAP2 ADD MSTORE SWAP1 JUMP JUMPDEST DUP1 CALLDATALOAD PUSH1 0x1 PUSH1 0x1 PUSH1 0xA0 SHL SUB DUP2 AND DUP2 EQ PUSH2 0x1A20 JUMPI PUSH1 0x0 DUP1 REVERT JUMPDEST SWAP2 SWAP1 POP JUMP JUMPDEST PUSH1 0x0 DUP1 PUSH1 0x40 DUP4 DUP6 SUB SLT ISZERO PUSH2 0x1A38 JUMPI PUSH1 0x0 DUP1 REVERT JUMPDEST PUSH2 0x1A41 DUP4 PUSH2 0x1A09 JUMP JUMPDEST SWAP5 PUSH1 0x20 SWAP4 SWAP1 SWAP4 ADD CALLDATALOAD SWAP4 POP POP POP JUMP JUMPDEST DUP1 CALLDATALOAD PUSH1 0x3 DUP2 LT PUSH2 0x1A20 JUMPI PUSH1 0x0 DUP1 REVERT JUMPDEST PUSH1 0x0 PUSH1 0x20 DUP3 DUP5 SUB SLT ISZERO PUSH2 0x1A70 JUMPI PUSH1 0x0 DUP1 REVERT JUMPDEST PUSH2 0x1A79 DUP3 PUSH2 0x1A4F JUMP JUMPDEST SWAP4 SWAP3 POP POP POP JUMP JUMPDEST PUSH1 0x0 PUSH1 0x20 DUP3 DUP5 SUB SLT ISZERO PUSH2 0x1A92 JUMPI PUSH1 0x0 DUP1 REVERT JUMPDEST PUSH2 0x1A79 DUP3 PUSH2 0x1A09 JUMP JUMPDEST PUSH1 0x0 PUSH1 0x20 DUP3 DUP5 SUB SLT ISZERO PUSH2 0x1AAD JUMPI PUSH1 0x0 DUP1 REVERT JUMPDEST POP CALLDATALOAD SWAP2 SWAP1 POP JUMP JUMPDEST PUSH1 0x20 DUP1 DUP3 MSTORE DUP3 MLOAD DUP3 DUP3 ADD DUP2 SWAP1 MSTORE PUSH1 0x0 SWAP2 SWAP1 DUP5 DUP3 ADD SWAP1 PUSH1 0x40 DUP6 ADD SWAP1 DUP5 JUMPDEST DUP2 DUP2 LT ISZERO PUSH2 0x1AEC JUMPI DUP4 MLOAD DUP4 MSTORE SWAP3 DUP5 ADD SWAP3 SWAP2 DUP5 ADD SWAP2 PUSH1 0x1 ADD PUSH2 0x1AD0 JUMP JUMPDEST POP SWAP1 SWAP7 SWAP6 POP POP POP POP POP POP JUMP JUMPDEST PUSH1 0x0 DUP1 PUSH1 0x0 DUP1 PUSH1 0x80 DUP6 DUP8 SUB SLT ISZERO PUSH2 0x1B0E JUMPI PUSH1 0x0 DUP1 REVERT JUMPDEST PUSH2 0x1B17 DUP6 PUSH2 0x1A4F JUMP JUMPDEST SWAP7 PUSH1 0x20 DUP7 ADD CALLDATALOAD SWAP7 POP PUSH1 0x40 DUP7 ADD CALLDATALOAD SWAP6 PUSH1 0x60 ADD CALLDATALOAD SWAP5 POP SWAP3 POP POP POP JUMP JUMPDEST PUSH4 0x4E487B71 PUSH1 0xE0 SHL PUSH1 0x0 MSTORE PUSH1 0x21 PUSH1 0x4 MSTORE PUSH1 0x24 PUSH1 0x0 REVERT JUMPDEST PUSH1 0x3 DUP2 LT PUSH2 0x1B65 JUMPI PUSH4 0x4E487B71 PUSH1 0xE0 SHL PUSH1 0x0 MSTORE PUSH1 0x21 PUSH1 0x4 MSTORE PUSH1 0x24 PUSH1 0x0 REVERT JUMPDEST SWAP1 MSTORE JUMP JUMPDEST PUSH1 0x0 PUSH2 0x120 DUP3 ADD SWAP1 POP DUP3 MLOAD DUP3 MSTORE PUSH1 0x20 DUP4 ADD MLOAD PUSH1 0x1 DUP1 PUSH1 0xA0 SHL SUB DUP1 DUP3 AND PUSH1 0x20 DUP6 ADD MSTORE DUP1 PUSH1 0x40 DUP7 ADD MLOAD AND PUSH1 0x40 DUP6 ADD MSTORE POP POP PUSH1 0x60 DUP4 ADD MLOAD PUSH1 0x60 DUP4 ADD MSTORE PUSH1 0x80 DUP4 ADD MLOAD PUSH1 0x80 DUP4 ADD MSTORE PUSH1 0xA0 DUP4 ADD MLOAD PUSH1 0xA0 DUP4 ADD MSTORE PUSH1 0xC0 DUP4 ADD MLOAD PUSH2 0x1BC8 PUSH1 0xC0 DUP5 ADD DUP3 PUSH2 0x1B47 JUMP JUMPDEST POP PUSH1 0xE0 DUP4 ADD MLOAD PUSH2 0x1BDC PUSH1 0xE0 DUP5 ADD DUP3 ISZERO ISZERO SWAP1 MSTORE JUMP JUMPDEST POP PUSH2 0x100 SWAP3 DUP4 ADD MLOAD ISZERO ISZERO SWAP2 SWAP1 SWAP3 ADD MSTORE SWAP1 JUMP JUMPDEST DUP10 DUP2 MSTORE PUSH1 0x1 PUSH1 0x1 PUSH1 0xA0 SHL SUB DUP10 DUP2 AND PUSH1 0x20 DUP4 ADD MSTORE DUP9 AND PUSH1 0x40 DUP3 ADD MSTORE PUSH1 0x60 DUP2 ADD DUP8 SWAP1 MSTORE PUSH1 0x80 DUP2 ADD DUP7 SWAP1 MSTORE PUSH1 0xA0 DUP2 ADD DUP6 SWAP1 MSTORE PUSH2 0x120 DUP2 ADD PUSH2 0x1C2F PUSH1 0xC0 DUP4 ADD DUP7 PUSH2 0x1B47 JUMP JUMPDEST SWAP3 ISZERO ISZERO PUSH1 0xE0 DUP3 ADD MSTORE SWAP1 ISZERO ISZERO PUSH2 0x100 SWAP1 SWAP2 ADD MSTORE SWAP8 SWAP7 POP POP POP POP POP POP POP JUMP JUMPDEST PUSH1 0x0 DUP1 PUSH1 0x0 DUP1 PUSH1 0x80 DUP6 DUP8 SUB SLT ISZERO PUSH2 0x1C62 JUMPI PUSH1 0x0 DUP1 REVERT JUMPDEST PUSH2 0x1C6B DUP6 PUSH2 0x1A09 JUMP JUMPDEST SWAP4 POP PUSH1 0x20 DUP6 ADD CALLDATALOAD SWAP3 POP PUSH1 0x40 DUP6 ADD CALLDATALOAD SWAP2 POP PUSH2 0x1C87 PUSH1 0x60 DUP7 ADD PUSH2 0x1A4F JUMP JUMPDEST SWAP1 POP SWAP3 SWAP6 SWAP2 SWAP5 POP SWAP3 POP JUMP JUMPDEST PUSH4 0x4E487B71 PUSH1 0xE0 SHL PUSH1 0x0 MSTORE PUSH1 0x11 PUSH1 0x4 MSTORE PUSH1 0x24 PUSH1 0x0 REVERT JUMPDEST DUP2 DUP2 SUB DUP2 DUP2 GT ISZERO PUSH2 0x1CBB JUMPI PUSH2 0x1CBB PUSH2 0x1C92 JUMP JUMPDEST SWAP3 SWAP2 POP POP JUMP JUMPDEST PUSH1 0x0 DUP3 PUSH2 0x1CDE JUMPI PUSH4 0x4E487B71 PUSH1 0xE0 SHL PUSH1 0x0 MSTORE PUSH1 0x12 PUSH1 0x4 MSTORE PUSH1 0x24 PUSH1 0x0 REVERT JUMPDEST POP DIV SWAP1 JUMP JUMPDEST DUP1 DUP3 MUL DUP2 ISZERO DUP3 DUP3 DIV DUP5 EQ OR PUSH2 0x1CBB JUMPI PUSH2 0x1CBB PUSH2 0x1C92 JUMP JUMPDEST DUP1 DUP3 ADD DUP1 DUP3 GT ISZERO PUSH2 0x1CBB JUMPI PUSH2 0x1CBB PUSH2 0x1C92 JUMP JUMPDEST PUSH1 0x0 PUSH1 0x20 DUP3 DUP5 SUB SLT ISZERO PUSH2 0x1D1F JUMPI PUSH1 0x0 DUP1 REVERT JUMPDEST DUP2 MLOAD DUP1 ISZERO ISZERO DUP2 EQ PUSH2 0x1A79 JUMPI PUSH1 0x0 DUP1 REVERT JUMPDEST PUSH1 0x0 PUSH1 0x20 DUP3 DUP5 SUB SLT ISZERO PUSH2 0x1D41 JUMPI PUSH1 0x0 DUP1 REVERT JUMPDEST POP MLOAD SWAP2 SWAP1 POP JUMP JUMPDEST PUSH1 0x80 DUP2 ADD PUSH2 0x1D56 DUP3 DUP8 PUSH2 0x1B47 JUMP JUMPDEST DUP5 PUSH1 0x20 DUP4 ADD MSTORE DUP4 PUSH1 0x40 DUP4 ADD MSTORE DUP3 PUSH1 0x60 DUP4 ADD MSTORE SWAP6 SWAP5 POP POP POP POP POP JUMP JUMPDEST PUSH4 0x4E487B71 PUSH1 0xE0 SHL PUSH1 0x0 MSTORE PUSH1 0x32 PUSH1 0x4 MSTORE PUSH1 0x24 PUSH1 0x0 REVERT JUMPDEST PUSH1 0x0 PUSH1 0x1 DUP3 ADD PUSH2 0x1D99 JUMPI PUSH2 0x1D99 PUSH2 0x1C92 JUMP JUMPDEST POP PUSH1 0x1 ADD SWAP1 JUMP JUMPDEST PUSH4 0x4E487B71 PUSH1 0xE0 SHL PUSH1 0x0 MSTORE PUSH1 0x41 PUSH1 0x4 MSTORE PUSH1 0x24 PUSH1 0x0 REVERT JUMPDEST DUP5 DUP2 MSTORE PUSH1 0x20 DUP2 ADD DUP5 SWAP1 MSTORE PUSH1 0x80 DUP2 ADD PUSH2 0x1DD1 PUSH1 0x40 DUP4 ADD DUP6 PUSH2 0x1B47 JUMP JUMPDEST DUP3 ISZERO ISZERO PUSH1 0x60 DUP4 ADD MSTORE SWAP6 SWAP5 POP POP POP POP POP JUMP JUMPDEST PUSH4 0x4E487B71 PUSH1 0xE0 SHL PUSH1 0x0 MSTORE PUSH1 0x31 PUSH1 0x4 MSTORE PUSH1 0x24 PUSH1 0x0 REVERT INVALID SWAP12 PUSH24 0x9B17422D0DF92223018B32B4D1FA46E071723D6817E2486D STOP EXTCODESIZE 0xEC 0xC5 PUSH0 STOP LOG2 PUSH5 0x6970667358 0x22 SLT KECCAK256 SDIV PUSH25 0x1E069F33A73F310D1C3D38C097107CDB0CED84C6230AF310FD 0xDC DUP10 POP 0xCC GAS PUSH5 0x736F6C6343 STOP ADDMOD EQ STOP CALLER "},"methodIdentifiers":{"activeDepositIds(uint256)":"7212609f","calculateWithdrawalFee(uint256)":"18e1b3bb","createDeposit(address,uint256,uint256,uint8)":"f2fe288a","deposits(uint256)":"b02c43d0","getActiveDeposits()":"769e66ac","getDeposit(uint256)":"9f9fb968","getDepositsByTier(uint8)":"da6e1cf9","getUserDeposits(address)":"2a5bf6d2","getVaultStats()":"a59aa5a6","owner()":"8da5cb5b","platformFee()":"26232a2e","quantumThreshold()":"3fe96912","renounceOwnership()":"715018a6","setUSDCToken(address)":"0f5a9d01","tierFee(uint8)":"b571ff05","tierMaxDeposit(uint8)":"e7410fc4","tierMinDeposit(uint8)":"0f239faa","transferOwnership(address)":"f2fde38b","updatePlatformFee(uint256)":"aa0b5988","updateQuantumThreshold(uint256)":"d7712de2","updateTier(uint8,uint256,uint256,uint256)":"5ea6fffa","usdcToken()":"11eac855","userDeposits(address,uint256)":"08f43333","withdrawDeposit(uint256)":"33289a46","withdrawFees()":"476343ee"}}}}}