{
  "_format": "hh-sol-artifact-1",
  "contractName": "QuantumMarketplace",
  "sourceName": "contracts/QuantumMarketplace.sol",
  "abi": [
    {
      "inputs": [],
      "stateMutability": "nonpayable",
      "type": "constructor"
    },
    {
      "anonymous": false,
      "inputs": [
        {
          "indexed": true,
          "internalType": "address",
          "name": "recipient",
          "type": "address"
        },
        {
          "indexed": false,
          "internalType": "uint256",
          "name": "amount",
          "type": "uint256"
        }
      ],
      "name": "FeesWithdrawn",
      "type": "event"
    },
    {
      "anonymous": false,
      "inputs": [
        {
          "indexed": true,
          "internalType": "uint256",
          "name": "orderId",
          "type": "uint256"
        },
        {
          "indexed": true,
          "internalType": "address",
          "name": "seller",
          "type": "address"
        }
      ],
      "name": "OrderCancelled",
      "type": "event"
    },
    {
      "anonymous": false,
      "inputs": [
        {
          "indexed": true,
          "internalType": "uint256",
          "name": "orderId",
          "type": "uint256"
        },
        {
          "indexed": true,
          "internalType": "address",
          "name": "seller",
          "type": "address"
        },
        {
          "indexed": true,
          "internalType": "address",
          "name": "tokenAddress",
          "type": "address"
        },
        {
          "indexed": false,
          "internalType": "uint256",
          "name": "tokenAmount",
          "type": "uint256"
        },
        {
          "indexed": false,
          "internalType": "uint256",
          "name": "pricePerToken",
          "type": "uint256"
        },
        {
          "indexed": false,
          "internalType": "uint256",
          "name": "totalPrice",
          "type": "uint256"
        }
      ],
      "name": "OrderCreated",
      "type": "event"
    },
    {
      "anonymous": false,
      "inputs": [
        {
          "indexed": true,
          "internalType": "uint256",
          "name": "orderId",
          "type": "uint256"
        },
        {
          "indexed": true,
          "internalType": "address",
          "name": "buyer",
          "type": "address"
        },
        {
          "indexed": true,
          "internalType": "address",
          "name": "seller",
          "type": "address"
        },
        {
          "indexed": false,
          "internalType": "uint256",
          "name": "tokenAmount",
          "type": "uint256"
        },
        {
          "indexed": false,
          "internalType": "uint256",
          "name": "totalPrice",
          "type": "uint256"
        }
      ],
      "name": "OrderFilled",
      "type": "event"
    },
    {
      "anonymous": false,
      "inputs": [
        {
          "indexed": true,
          "internalType": "address",
          "name": "previousOwner",
          "type": "address"
        },
        {
          "indexed": true,
          "internalType": "address",
          "name": "newOwner",
          "type": "address"
        }
      ],
      "name": "OwnershipTransferred",
      "type": "event"
    },
    {
      "anonymous": false,
      "inputs": [
        {
          "indexed": false,
          "internalType": "uint256",
          "name": "oldFee",
          "type": "uint256"
        },
        {
          "indexed": false,
          "internalType": "uint256",
          "name": "newFee",
          "type": "uint256"
        }
      ],
      "name": "PlatformFeeUpdated",
      "type": "event"
    },
    {
      "inputs": [
        {
          "internalType": "uint256",
          "name": "",
          "type": "uint256"
        }
      ],
      "name": "activeOrderIds",
      "outputs": [
        {
          "internalType": "uint256",
          "name": "",
          "type": "uint256"
        }
      ],
      "stateMutability": "view",
      "type": "function"
    },
    {
      "inputs": [
        {
          "internalType": "uint256",
          "name": "orderId",
          "type": "uint256"
        }
      ],
      "name": "cancelOrder",
      "outputs": [],
      "stateMutability": "nonpayable",
      "type": "function"
    },
    {
      "inputs": [
        {
          "internalType": "address",
          "name": "tokenAddress",
          "type": "address"
        },
        {
          "internalType": "uint256",
          "name": "tokenAmount",
          "type": "uint256"
        },
        {
          "internalType": "uint256",
          "name": "pricePerToken",
          "type": "uint256"
        }
      ],
      "name": "createOrder",
      "outputs": [],
      "stateMutability": "nonpayable",
      "type": "function"
    },
    {
      "inputs": [
        {
          "internalType": "uint256",
          "name": "orderId",
          "type": "uint256"
        }
      ],
      "name": "fillOrder",
      "outputs": [],
      "stateMutability": "nonpayable",
      "type": "function"
    },
    {
      "inputs": [],
      "name": "getActiveOrders",
      "outputs": [
        {
          "internalType": "uint256[]",
          "name": "",
          "type": "uint256[]"
        }
      ],
      "stateMutability": "view",
      "type": "function"
    },
    {
      "inputs": [],
      "name": "getMarketplaceStats",
      "outputs": [
        {
          "internalType": "uint256",
          "name": "totalOrders",
          "type": "uint256"
        },
        {
          "internalType": "uint256",
          "name": "activeOrdersCount",
          "type": "uint256"
        },
        {
          "internalType": "uint256",
          "name": "totalVolume",
          "type": "uint256"
        },
        {
          "internalType": "uint256",
          "name": "totalFees",
          "type": "uint256"
        }
      ],
      "stateMutability": "view",
      "type": "function"
    },
    {
      "inputs": [
        {
          "internalType": "uint256",
          "name": "orderId",
          "type": "uint256"
        }
      ],
      "name": "getOrder",
      "outputs": [
        {
          "components": [
            {
              "internalType": "uint256",
              "name": "id",
              "type": "uint256"
            },
            {
              "internalType": "address",
              "name": "seller",
              "type": "address"
            },
            {
              "internalType": "address",
              "name": "tokenAddress",
              "type": "address"
            },
            {
              "internalType": "uint256",
              "name": "tokenAmount",
              "type": "uint256"
            },
            {
              "internalType": "uint256",
              "name": "pricePerToken",
              "type": "uint256"
            },
            {
              "internalType": "uint256",
              "name": "totalPrice",
              "type": "uint256"
            },
            {
              "internalType": "bool",
              "name": "active",
              "type": "bool"
            },
            {
              "internalType": "uint256",
              "name": "createdAt",
              "type": "uint256"
            }
          ],
          "internalType": "struct QuantumMarketplace.Order",
          "name": "",
          "type": "tuple"
        }
      ],
      "stateMutability": "view",
      "type": "function"
    },
    {
      "inputs": [
        {
          "internalType": "address",
          "name": "tokenAddress",
          "type": "address"
        }
      ],
      "name": "getOrdersByToken",
      "outputs": [
        {
          "internalType": "uint256[]",
          "name": "",
          "type": "uint256[]"
        }
      ],
      "stateMutability": "view",
      "type": "function"
    },
    {
      "inputs": [
        {
          "internalType": "address",
          "name": "user",
          "type": "address"
        }
      ],
      "name": "getUserOrders",
      "outputs": [
        {
          "internalType": "uint256[]",
          "name": "",
          "type": "uint256[]"
        }
      ],
      "stateMutability": "view",
      "type": "function"
    },
    {
      "inputs": [
        {
          "internalType": "uint256",
          "name": "",
          "type": "uint256"
        }
      ],
      "name": "orders",
      "outputs": [
        {
          "internalType": "uint256",
          "name": "id",
          "type": "uint256"
        },
        {
          "internalType": "address",
          "name": "seller",
          "type": "address"
        },
        {
          "internalType": "address",
          "name": "tokenAddress",
          "type": "address"
        },
        {
          "internalType": "uint256",
          "name": "tokenAmount",
          "type": "uint256"
        },
        {
          "internalType": "uint256",
          "name": "pricePerToken",
          "type": "uint256"
        },
        {
          "internalType": "uint256",
          "name": "totalPrice",
          "type": "uint256"
        },
        {
          "internalType": "bool",
          "name": "active",
          "type": "bool"
        },
        {
          "internalType": "uint256",
          "name": "createdAt",
          "type": "uint256"
        }
      ],
      "stateMutability": "view",
      "type": "function"
    },
    {
      "inputs": [],
      "name": "owner",
      "outputs": [
        {
          "internalType": "address",
          "name": "",
          "type": "address"
        }
      ],
      "stateMutability": "view",
      "type": "function"
    },
    {
      "inputs": [],
      "name": "platformFee",
      "outputs": [
        {
          "internalType": "uint256",
          "name": "",
          "type": "uint256"
        }
      ],
      "stateMutability": "view",
      "type": "function"
    },
    {
      "inputs": [
        {
          "internalType": "address",
          "name": "_usdcToken",
          "type": "address"
        }
      ],
      "name": "setUSDCToken",
      "outputs": [],
      "stateMutability": "nonpayable",
      "type": "function"
    },
    {
      "inputs": [
        {
          "internalType": "address",
          "name": "newOwner",
          "type": "address"
        }
      ],
      "name": "transferOwnership",
      "outputs": [],
      "stateMutability": "nonpayable",
      "type": "function"
    },
    {
      "inputs": [
        {
          "internalType": "uint256",
          "name": "newFee",
          "type": "uint256"
        }
      ],
      "name": "updatePlatformFee",
      "outputs": [],
      "stateMutability": "nonpayable",
      "type": "function"
    },
    {
      "inputs": [],
      "name": "usdcToken",
      "outputs": [
        {
          "internalType": "address",
          "name": "",
          "type": "address"
        }
      ],
      "stateMutability": "view",
      "type": "function"
    },
    {
      "inputs": [
        {
          "internalType": "address",
          "name": "",
          "type": "address"
        }
      ],
      "name": "userOrderCount",
      "outputs": [
        {
          "internalType": "uint256",
          "name": "",
          "type": "uint256"
        }
      ],
      "stateMutability": "view",
      "type": "function"
    },
    {
      "inputs": [
        {
          "internalType": "address",
          "name": "",
          "type": "address"
        },
        {
          "internalType": "uint256",
          "name": "",
          "type": "uint256"
        }
      ],
      "name": "userOrders",
      "outputs": [
        {
          "internalType": "uint256",
          "name": "",
          "type": "uint256"
        }
      ],
      "stateMutability": "view",
      "type": "function"
    },
    {
      "inputs": [],
      "name": "withdrawFees",
      "outputs": [],
      "stateMutability": "nonpayable",
      "type": "function"
    }
  ],
  "bytecode": "0x608060405260c860075534801561001557600080fd5b50600680546001600160a01b0319163317905560016000819055600855611634806100416000396000f3fe608060405234801561001057600080fd5b50600436106101205760003560e01c8063812d966a116100ad578063acfee8ed11610071578063acfee8ed146102fa578063d09ef2411461030d578063eabc1bb71461038c578063ec4eb4f91461039f578063f2fde38b146103bf57600080fd5b8063812d966a146101ee578063856652e9146102165780638da5cb5b14610229578063a85c38ef1461023c578063aa0b5988146102e757600080fd5b806326232a2e116100f457806326232a2e14610196578063476343ee146101ad578063514fcac7146101b557806363c69f08146101c857806367b830ad146101db57600080fd5b806286e68b1461012557806303d5f9a6146101435780630f5a9d011461015657806311eac8551461016b575b600080fd5b61012d6103d2565b60405161013a91906113ae565b60405180910390f35b61012d61015136600461140e565b61042a565b61016961016436600461140e565b610615565b005b60055461017e906001600160a01b031681565b6040516001600160a01b03909116815260200161013a565b61019f60075481565b60405190815260200161013a565b6101696106b7565b6101696101c3366004611430565b610844565b61012d6101d636600461140e565b6109dc565b6101696101e9366004611430565b610a48565b6101f6610d44565b60408051948552602085019390935291830152606082015260800161013a565b61019f610224366004611449565b610d6c565b60065461017e906001600160a01b031681565b61029e61024a366004611430565b6001602081905260009182526040909120805491810154600282015460038301546004840154600585015460068601546007909601546001600160a01b0395861696949095169492939192909160ff169088565b604080519889526001600160a01b0397881660208a015295909616948701949094526060860192909252608085015260a0840152151560c083015260e08201526101000161013a565b6101696102f5366004611430565b610d9d565b610169610308366004611473565b610e4d565b61032061031b366004611430565b611131565b60408051825181526020808401516001600160a01b0390811691830191909152838301511691810191909152606080830151908201526080808301519082015260a0808301519082015260c08083015115159082015260e091820151918101919091526101000161013a565b61019f61039a366004611430565b61120d565b61019f6103ad36600461140e565b60046020526000908152604090205481565b6101696103cd36600461140e565b61122e565b6060600280548060200260200160405190810160405280929190818152602001828054801561042057602002820191906000526020600020905b81548152602001906001019080831161040c575b5050505050905090565b60025460609060009067ffffffffffffffff81111561044b5761044b6114a6565b604051908082528060200260200182016040528015610474578160200160208202803683370190505b5090506000805b60025481101561057057846001600160a01b031660016000600284815481106104a6576104a66114bc565b600091825260208083209091015483528201929092526040019020600201546001600160a01b0316148015610510575060016000600283815481106104ed576104ed6114bc565b6000918252602080832090910154835282019290925260400190206006015460ff165b1561055e5760028181548110610528576105286114bc565b9060005260206000200154838381518110610545576105456114bc565b60209081029190910101528161055a816114e8565b9250505b80610568816114e8565b91505061047b565b5060008167ffffffffffffffff81111561058c5761058c6114a6565b6040519080825280602002602001820160405280156105b5578160200160208202803683370190505b50905060005b8281101561060c578381815181106105d5576105d56114bc565b60200260200101518282815181106105ef576105ef6114bc565b602090810291909101015280610604816114e8565b9150506105bb565b50949350505050565b6006546001600160a01b031633146106485760405162461bcd60e51b815260040161063f90611501565b60405180910390fd5b6001600160a01b0381166106955760405162461bcd60e51b8152602060048201526014602482015273496e76616c69642055534443206164647265737360601b604482015260640161063f565b600580546001600160a01b0319166001600160a01b0392909216919091179055565b6006546001600160a01b031633146106e15760405162461bcd60e51b815260040161063f90611501565b6005546040516370a0823160e01b81523060048201526000916001600160a01b0316906370a0823190602401602060405180830381865afa15801561072a573d6000803e3d6000fd5b505050506040513d601f19601f8201168201806040525081019061074e9190611524565b9050600081116107965760405162461bcd60e51b81526020600482015260136024820152724e6f206665657320746f20776974686472617760681b604482015260640161063f565b60055460405163a9059cbb60e01b8152336004820152602481018390526001600160a01b039091169063a9059cbb906044016020604051808303816000875af11580156107e7573d6000803e3d6000fd5b505050506040513d601f19601f8201168201806040525081019061080b919061153d565b5060405181815233907fc0819c13be868895eb93e40eaceb96de976442fa1d404e5c55f14bb65a8c489a9060200160405180910390a250565b6008546001146108665760405162461bcd60e51b815260040161063f9061155f565b60026008556000818152600160205260409020600681015460ff166108c05760405162461bcd60e51b815260206004820152601060248201526f4f72646572206e6f742061637469766560801b604482015260640161063f565b60018101546001600160a01b0316331461090d5760405162461bcd60e51b815260206004820152600e60248201526d2737ba103cb7bab91037b93232b960911b604482015260640161063f565b60028101546001820154600383015460405163a9059cbb60e01b81526001600160a01b039283166004820152602481019190915291169063a9059cbb906044016020604051808303816000875af115801561096c573d6000803e3d6000fd5b505050506040513d601f19601f82011682018060405250810190610990919061153d565b5060068101805460ff191690556109a6826112f2565b604051339083907fc0362da6f2ff36b382b34aec0814f6b3cdf89f5ef282a1d1f114d0c0b036d59690600090a350506001600855565b6001600160a01b038116600090815260036020908152604091829020805483518184028101840190945280845260609392830182828015610a3c57602002820191906000526020600020905b815481526020019060010190808311610a28575b50505050509050919050565b600854600114610a6a5760405162461bcd60e51b815260040161063f9061155f565b60026008556000818152600160205260409020600681015460ff16610ac45760405162461bcd60e51b815260206004820152601060248201526f4f72646572206e6f742061637469766560801b604482015260640161063f565b6001810154336001600160a01b0390911603610b195760405162461bcd60e51b815260206004820152601460248201527321b0b73737ba10313abc9037bbb71037b93232b960611b604482015260640161063f565b60006127106007548360050154610b309190611596565b610b3a91906115b3565b90506000818360050154610b4e91906115d5565b60058054908501546040516323b872dd60e01b815233600482015230602482015260448101919091529192506001600160a01b0316906323b872dd906064016020604051808303816000875af1158015610bac573d6000803e3d6000fd5b505050506040513d601f19601f82011682018060405250810190610bd0919061153d565b50600554600184015460405163a9059cbb60e01b81526001600160a01b0391821660048201526024810184905291169063a9059cbb906044016020604051808303816000875af1158015610c28573d6000803e3d6000fd5b505050506040513d601f19601f82011682018060405250810190610c4c919061153d565b506002830154600384015460405163a9059cbb60e01b815233600482015260248101919091526001600160a01b039091169063a9059cbb906044016020604051808303816000875af1158015610ca6573d6000803e3d6000fd5b505050506040513d601f19601f82011682018060405250810190610cca919061153d565b5060068301805460ff19169055610ce0846112f2565b6001830154600384015460058501546040805192835260208301919091526001600160a01b0390921691339187917f88af4c696532bdbd05ad505c8c3f6c6dd786ab24777c70949ebb2a6ec2a3020d910160405180910390a4505060016008555050565b6000806000806001600054610d5991906115d5565b6002549095909450600093508392509050565b60036020528160005260406000208181548110610d8857600080fd5b90600052602060002001600091509150505481565b6006546001600160a01b03163314610dc75760405162461bcd60e51b815260040161063f90611501565b6103e8811115610e085760405162461bcd60e51b815260206004820152600c60248201526b08ccaca40e8dede40d0d2ced60a31b604482015260640161063f565b600780549082905560408051828152602081018490527fd347e206f25a89b917fc9482f1a2d294d749baa4dc9bde7fb495ee11fe491643910160405180910390a15050565b600854600114610e6f5760405162461bcd60e51b815260040161063f9061155f565b600260085581610eb85760405162461bcd60e51b8152602060048201526014602482015273125b9d985b1a59081d1bdad95b88185b5bdd5b9d60621b604482015260640161063f565b60008111610ef85760405162461bcd60e51b815260206004820152600d60248201526c496e76616c696420707269636560981b604482015260640161063f565b6000670de0b6b3a7640000610f0d8385611596565b610f1791906115b3565b6040516323b872dd60e01b8152336004820152306024820152604481018590529091506001600160a01b038516906323b872dd906064016020604051808303816000875af1158015610f6d573d6000803e3d6000fd5b505050506040513d601f19601f82011682018060405250810190610f91919061153d565b50600080548180610fa1836114e8565b9091555060408051610100810182528281523360208083018281526001600160a01b038b8116858701908152606086018c8152608087018c815260a088018c8152600160c08a018181524260e08c0190815260008e8152838b528d81209c518d5598518c840180546001600160a01b0319908116928b1692909217905596516002808e018054909916919099161790965593516003808c019190915592516004808c0191909155915160058b0155925160068a01805460ff1916911515919091179055925160079098019790975582548082019093557f405787fa12a823e0f2b7631cc41b3ba8828b3321ca811111fa75cd3aa3bb5ace90920188905584835294835285822080549182018155825282822001869055918252919091529081208054929350906110d0836114e8565b909155505060408051858152602081018590529081018390526001600160a01b03861690339083907f34a488e30be72501cf73f84a697e99dcc9efa94b95e327e94dafeb18f80ee4699060600160405180910390a450506001600855505050565b61118d6040518061010001604052806000815260200160006001600160a01b0316815260200160006001600160a01b03168152602001600081526020016000815260200160008152602001600015158152602001600081525090565b5060009081526001602081815260409283902083516101008101855281548152928101546001600160a01b03908116928401929092526002810154909116928201929092526003820154606082015260048201546080820152600582015460a0820152600682015460ff16151560c082015260079091015460e082015290565b6002818154811061121d57600080fd5b600091825260209091200154905081565b6006546001600160a01b031633146112585760405162461bcd60e51b815260040161063f90611501565b6001600160a01b0381166112a05760405162461bcd60e51b815260206004820152600f60248201526e496e76616c6964206164647265737360881b604482015260640161063f565b600680546001600160a01b038381166001600160a01b0319831681179093556040519116919082907f8be0079c531659141344cd1fd0a4f28419497f9722a3daafe3b4186f6b6457e090600090a35050565b60005b6002548110156113aa578160028281548110611313576113136114bc565b9060005260206000200154036113985760028054611333906001906115d5565b81548110611343576113436114bc565b906000526020600020015460028281548110611361576113616114bc565b600091825260209091200155600280548061137e5761137e6115e8565b600190038181906000526020600020016000905590555050565b806113a2816114e8565b9150506112f5565b5050565b6020808252825182820181905260009190848201906040850190845b818110156113e6578351835292840192918401916001016113ca565b50909695505050505050565b80356001600160a01b038116811461140957600080fd5b919050565b60006020828403121561142057600080fd5b611429826113f2565b9392505050565b60006020828403121561144257600080fd5b5035919050565b6000806040838503121561145c57600080fd5b611465836113f2565b946020939093013593505050565b60008060006060848603121561148857600080fd5b611491846113f2565b95602085013595506040909401359392505050565b634e487b7160e01b600052604160045260246000fd5b634e487b7160e01b600052603260045260246000fd5b634e487b7160e01b600052601160045260246000fd5b6000600182016114fa576114fa6114d2565b5060010190565b6020808252600990820152682737ba1037bbb732b960b91b604082015260600190565b60006020828403121561153657600080fd5b5051919050565b60006020828403121561154f57600080fd5b8151801515811461142957600080fd5b6020808252601f908201527f5265656e7472616e637947756172643a207265656e7472616e742063616c6c00604082015260600190565b80820281158282048414176115ad576115ad6114d2565b92915050565b6000826115d057634e487b7160e01b600052601260045260246000fd5b500490565b818103818111156115ad576115ad6114d2565b634e487b7160e01b600052603160045260246000fdfea26469706673582212206fd701f29dfab894621b50f40f736e47f5710e728fe68c482c61ad8d609e83d864736f6c63430008140033",
  "linkReferences": {},
  "deployedLinkReferences": {}
}