{
  "_format": "hh-sol-artifact-1",
  "contractName": "QuantumRWA",
  "sourceName": "contracts/QuantumRWA.sol",
  "abi": [
    {
      "inputs": [
        {
          "internalType": "string",
          "name": "_name",
          "type": "string"
        },
        {
          "internalType": "string",
          "name": "_symbol",
          "type": "string"
        },
        {
          "internalType": "string",
          "name": "_assetName",
          "type": "string"
        },
        {
          "internalType": "string",
          "name": "_assetType",
          "type": "string"
        },
        {
          "internalType": "uint256",
          "name": "_totalAssetValue",
          "type": "uint256"
        },
        {
          "internalType": "uint256",
          "name": "_apy",
          "type": "uint256"
        },
        {
          "internalType": "uint256",
          "name": "_maturityDate",
          "type": "uint256"
        },
        {
          "internalType": "uint256",
          "name": "_maxSupply",
          "type": "uint256"
        }
      ],
      "stateMutability": "nonpayable",
      "type": "constructor"
    },
    {
      "inputs": [
        {
          "internalType": "address",
          "name": "spender",
          "type": "address"
        },
        {
          "internalType": "uint256",
          "name": "allowance",
          "type": "uint256"
        },
        {
          "internalType": "uint256",
          "name": "needed",
          "type": "uint256"
        }
      ],
      "name": "ERC20InsufficientAllowance",
      "type": "error"
    },
    {
      "inputs": [
        {
          "internalType": "address",
          "name": "sender",
          "type": "address"
        },
        {
          "internalType": "uint256",
          "name": "balance",
          "type": "uint256"
        },
        {
          "internalType": "uint256",
          "name": "needed",
          "type": "uint256"
        }
      ],
      "name": "ERC20InsufficientBalance",
      "type": "error"
    },
    {
      "inputs": [
        {
          "internalType": "address",
          "name": "approver",
          "type": "address"
        }
      ],
      "name": "ERC20InvalidApprover",
      "type": "error"
    },
    {
      "inputs": [
        {
          "internalType": "address",
          "name": "receiver",
          "type": "address"
        }
      ],
      "name": "ERC20InvalidReceiver",
      "type": "error"
    },
    {
      "inputs": [
        {
          "internalType": "address",
          "name": "sender",
          "type": "address"
        }
      ],
      "name": "ERC20InvalidSender",
      "type": "error"
    },
    {
      "inputs": [
        {
          "internalType": "address",
          "name": "spender",
          "type": "address"
        }
      ],
      "name": "ERC20InvalidSpender",
      "type": "error"
    },
    {
      "inputs": [
        {
          "internalType": "address",
          "name": "owner",
          "type": "address"
        }
      ],
      "name": "OwnableInvalidOwner",
      "type": "error"
    },
    {
      "inputs": [
        {
          "internalType": "address",
          "name": "account",
          "type": "address"
        }
      ],
      "name": "OwnableUnauthorizedAccount",
      "type": "error"
    },
    {
      "anonymous": false,
      "inputs": [
        {
          "indexed": false,
          "internalType": "uint256",
          "name": "oldAPY",
          "type": "uint256"
        },
        {
          "indexed": false,
          "internalType": "uint256",
          "name": "newAPY",
          "type": "uint256"
        }
      ],
      "name": "APYUpdated",
      "type": "event"
    },
    {
      "anonymous": false,
      "inputs": [
        {
          "indexed": true,
          "internalType": "address",
          "name": "owner",
          "type": "address"
        },
        {
          "indexed": true,
          "internalType": "address",
          "name": "spender",
          "type": "address"
        },
        {
          "indexed": false,
          "internalType": "uint256",
          "name": "value",
          "type": "uint256"
        }
      ],
      "name": "Approval",
      "type": "event"
    },
    {
      "anonymous": false,
      "inputs": [
        {
          "indexed": true,
          "internalType": "address",
          "name": "to",
          "type": "address"
        },
        {
          "indexed": false,
          "internalType": "uint256",
          "name": "amount",
          "type": "uint256"
        },
        {
          "indexed": false,
          "internalType": "uint256",
          "name": "timestamp",
          "type": "uint256"
        }
      ],
      "name": "AssetMinted",
      "type": "event"
    },
    {
      "anonymous": false,
      "inputs": [
        {
          "indexed": true,
          "internalType": "address",
          "name": "from",
          "type": "address"
        },
        {
          "indexed": false,
          "internalType": "uint256",
          "name": "amount",
          "type": "uint256"
        },
        {
          "indexed": false,
          "internalType": "uint256",
          "name": "timestamp",
          "type": "uint256"
        }
      ],
      "name": "AssetRedeemed",
      "type": "event"
    },
    {
      "anonymous": false,
      "inputs": [
        {
          "indexed": false,
          "internalType": "uint256",
          "name": "oldDate",
          "type": "uint256"
        },
        {
          "indexed": false,
          "internalType": "uint256",
          "name": "newDate",
          "type": "uint256"
        }
      ],
      "name": "MaturityDateUpdated",
      "type": "event"
    },
    {
      "anonymous": false,
      "inputs": [
        {
          "indexed": true,
          "internalType": "address",
          "name": "previousOwner",
          "type": "address"
        },
        {
          "indexed": true,
          "internalType": "address",
          "name": "newOwner",
          "type": "address"
        }
      ],
      "name": "OwnershipTransferred",
      "type": "event"
    },
    {
      "anonymous": false,
      "inputs": [
        {
          "indexed": true,
          "internalType": "address",
          "name": "from",
          "type": "address"
        },
        {
          "indexed": true,
          "internalType": "address",
          "name": "to",
          "type": "address"
        },
        {
          "indexed": false,
          "internalType": "uint256",
          "name": "value",
          "type": "uint256"
        }
      ],
      "name": "Transfer",
      "type": "event"
    },
    {
      "inputs": [
        {
          "internalType": "address",
          "name": "owner",
          "type": "address"
        },
        {
          "internalType": "address",
          "name": "spender",
          "type": "address"
        }
      ],
      "name": "allowance",
      "outputs": [
        {
          "internalType": "uint256",
          "name": "",
          "type": "uint256"
        }
      ],
      "stateMutability": "view",
      "type": "function"
    },
    {
      "inputs": [
        {
          "internalType": "address",
          "name": "spender",
          "type": "address"
        },
        {
          "internalType": "uint256",
          "name": "value",
          "type": "uint256"
        }
      ],
      "name": "approve",
      "outputs": [
        {
          "internalType": "bool",
          "name": "",
          "type": "bool"
        }
      ],
      "stateMutability": "nonpayable",
      "type": "function"
    },
    {
      "inputs": [],
      "name": "apy",
      "outputs": [
        {
          "internalType": "uint256",
          "name": "",
          "type": "uint256"
        }
      ],
      "stateMutability": "view",
      "type": "function"
    },
    {
      "inputs": [],
      "name": "assetName",
      "outputs": [
        {
          "internalType": "string",
          "name": "",
          "type": "string"
        }
      ],
      "stateMutability": "view",
      "type": "function"
    },
    {
      "inputs": [],
      "name": "assetType",
      "outputs": [
        {
          "internalType": "string",
          "name": "",
          "type": "string"
        }
      ],
      "stateMutability": "view",
      "type": "function"
    },
    {
      "inputs": [
        {
          "internalType": "address",
          "name": "account",
          "type": "address"
        }
      ],
      "name": "balanceOf",
      "outputs": [
        {
          "internalType": "uint256",
          "name": "",
          "type": "uint256"
        }
      ],
      "stateMutability": "view",
      "type": "function"
    },
    {
      "inputs": [
        {
          "internalType": "uint256",
          "name": "value",
          "type": "uint256"
        }
      ],
      "name": "burn",
      "outputs": [],
      "stateMutability": "nonpayable",
      "type": "function"
    },
    {
      "inputs": [
        {
          "internalType": "address",
          "name": "account",
          "type": "address"
        },
        {
          "internalType": "uint256",
          "name": "value",
          "type": "uint256"
        }
      ],
      "name": "burnFrom",
      "outputs": [],
      "stateMutability": "nonpayable",
      "type": "function"
    },
    {
      "inputs": [],
      "name": "decimals",
      "outputs": [
        {
          "internalType": "uint8",
          "name": "",
          "type": "uint8"
        }
      ],
      "stateMutability": "view",
      "type": "function"
    },
    {
      "inputs": [],
      "name": "getAssetInfo",
      "outputs": [
        {
          "internalType": "string",
          "name": "_assetName",
          "type": "string"
        },
        {
          "internalType": "string",
          "name": "_assetType",
          "type": "string"
        },
        {
          "internalType": "uint256",
          "name": "_totalAssetValue",
          "type": "uint256"
        },
        {
          "internalType": "uint256",
          "name": "_apy",
          "type": "uint256"
        },
        {
          "internalType": "uint256",
          "name": "_maturityDate",
          "type": "uint256"
        },
        {
          "internalType": "uint256",
          "name": "_totalSupply",
          "type": "uint256"
        },
        {
          "internalType": "uint256",
          "name": "_maxSupply",
          "type": "uint256"
        }
      ],
      "stateMutability": "view",
      "type": "function"
    },
    {
      "inputs": [],
      "name": "maturityDate",
      "outputs": [
        {
          "internalType": "uint256",
          "name": "",
          "type": "uint256"
        }
      ],
      "stateMutability": "view",
      "type": "function"
    },
    {
      "inputs": [],
      "name": "maxSupply",
      "outputs": [
        {
          "internalType": "uint256",
          "name": "",
          "type": "uint256"
        }
      ],
      "stateMutability": "view",
      "type": "function"
    },
    {
      "inputs": [
        {
          "internalType": "address",
          "name": "to",
          "type": "address"
        },
        {
          "internalType": "uint256",
          "name": "amount",
          "type": "uint256"
        }
      ],
      "name": "mint",
      "outputs": [],
      "stateMutability": "nonpayable",
      "type": "function"
    },
    {
      "inputs": [],
      "name": "mintingEnabled",
      "outputs": [
        {
          "internalType": "bool",
          "name": "",
          "type": "bool"
        }
      ],
      "stateMutability": "view",
      "type": "function"
    },
    {
      "inputs": [],
      "name": "name",
      "outputs": [
        {
          "internalType": "string",
          "name": "",
          "type": "string"
        }
      ],
      "stateMutability": "view",
      "type": "function"
    },
    {
      "inputs": [],
      "name": "owner",
      "outputs": [
        {
          "internalType": "address",
          "name": "",
          "type": "address"
        }
      ],
      "stateMutability": "view",
      "type": "function"
    },
    {
      "inputs": [
        {
          "internalType": "uint256",
          "name": "amount",
          "type": "uint256"
        }
      ],
      "name": "redeem",
      "outputs": [],
      "stateMutability": "nonpayable",
      "type": "function"
    },
    {
      "inputs": [],
      "name": "renounceOwnership",
      "outputs": [],
      "stateMutability": "nonpayable",
      "type": "function"
    },
    {
      "inputs": [
        {
          "internalType": "bool",
          "name": "_enabled",
          "type": "bool"
        }
      ],
      "name": "setMintingEnabled",
      "outputs": [],
      "stateMutability": "nonpayable",
      "type": "function"
    },
    {
      "inputs": [],
      "name": "symbol",
      "outputs": [
        {
          "internalType": "string",
          "name": "",
          "type": "string"
        }
      ],
      "stateMutability": "view",
      "type": "function"
    },
    {
      "inputs": [],
      "name": "totalAssetValue",
      "outputs": [
        {
          "internalType": "uint256",
          "name": "",
          "type": "uint256"
        }
      ],
      "stateMutability": "view",
      "type": "function"
    },
    {
      "inputs": [],
      "name": "totalSupply",
      "outputs": [
        {
          "internalType": "uint256",
          "name": "",
          "type": "uint256"
        }
      ],
      "stateMutability": "view",
      "type": "function"
    },
    {
      "inputs": [
        {
          "internalType": "address",
          "name": "to",
          "type": "address"
        },
        {
          "internalType": "uint256",
          "name": "value",
          "type": "uint256"
        }
      ],
      "name": "transfer",
      "outputs": [
        {
          "internalType": "bool",
          "name": "",
          "type": "bool"
        }
      ],
      "stateMutability": "nonpayable",
      "type": "function"
    },
    {
      "inputs": [
        {
          "internalType": "address",
          "name": "from",
          "type": "address"
        },
        {
          "internalType": "address",
          "name": "to",
          "type": "address"
        },
        {
          "internalType": "uint256",
          "name": "value",
          "type": "uint256"
        }
      ],
      "name": "transferFrom",
      "outputs": [
        {
          "internalType": "bool",
          "name": "",
          "type": "bool"
        }
      ],
      "stateMutability": "nonpayable",
      "type": "function"
    },
    {
      "inputs": [
        {
          "internalType": "address",
          "name": "newOwner",
          "type": "address"
        }
      ],
      "name": "transferOwnership",
      "outputs": [],
      "stateMutability": "nonpayable",
      "type": "function"
    },
    {
      "inputs": [
        {
          "internalType": "uint256",
          "name": "newAPY",
          "type": "uint256"
        }
      ],
      "name": "updateAPY",
      "outputs": [],
      "stateMutability": "nonpayable",
      "type": "function"
    },
    {
      "inputs": [
        {
          "internalType": "uint256",
          "name": "newMaturityDate",
          "type": "uint256"
        }
      ],
      "name": "updateMaturityDate",
      "outputs": [],
      "stateMutability": "nonpayable",
      "type": "function"
    }
  ],
  "bytecode": "0x6080604052600b805460ff191660011790553480156200001e57600080fd5b5060405162001408380380620014088339810160408190526200004191620001f1565b338888600362000052838262000360565b50600462000061828262000360565b5050506001600160a01b0381166200009357604051631e4fbdf760e01b81526000600482015260240160405180910390fd5b6200009e81620000da565b506006620000ad878262000360565b506007620000bc868262000360565b50600893909355600991909155600a55600c55506200042c92505050565b600580546001600160a01b038381166001600160a01b0319831681179093556040519116919082907f8be0079c531659141344cd1fd0a4f28419497f9722a3daafe3b4186f6b6457e090600090a35050565b634e487b7160e01b600052604160045260246000fd5b600082601f8301126200015457600080fd5b81516001600160401b03808211156200017157620001716200012c565b604051601f8301601f19908116603f011681019082821181831017156200019c576200019c6200012c565b81604052838152602092508683858801011115620001b957600080fd5b600091505b83821015620001dd5785820183015181830184015290820190620001be565b600093810190920192909252949350505050565b600080600080600080600080610100898b0312156200020f57600080fd5b88516001600160401b03808211156200022757600080fd5b620002358c838d0162000142565b995060208b01519150808211156200024c57600080fd5b6200025a8c838d0162000142565b985060408b01519150808211156200027157600080fd5b6200027f8c838d0162000142565b975060608b01519150808211156200029657600080fd5b50620002a58b828c0162000142565b9550506080890151935060a0890151925060c0890151915060e089015190509295985092959890939650565b600181811c90821680620002e657607f821691505b6020821081036200030757634e487b7160e01b600052602260045260246000fd5b50919050565b601f8211156200035b57600081815260208120601f850160051c81016020861015620003365750805b601f850160051c820191505b81811015620003575782815560010162000342565b5050505b505050565b81516001600160401b038111156200037c576200037c6200012c565b62000394816200038d8454620002d1565b846200030d565b602080601f831160018114620003cc5760008415620003b35750858301515b600019600386901b1c1916600185901b17855562000357565b600085815260208120601f198616915b82811015620003fd57888601518255948401946001909101908401620003dc565b50858210156200041c5787850151600019600388901b60f8161c191681555b5050505050600190811b01905550565b610fcc806200043c6000396000f3fe608060405234801561001057600080fd5b50600436106101a95760003560e01c806379cc6790116100f9578063c9230c5d11610097578063db006a7511610071578063db006a7514610347578063dd62ed3e1461035a578063f2fde38b14610393578063fae728cd146103a657600080fd5b8063c9230c5d1461032d578063d59624b414610335578063d5abeb011461033e57600080fd5b806395d89b41116100d357806395d89b41146102f25780639fd6db12146102fa578063a9059cbb14610307578063c7a6ca351461031a57600080fd5b806379cc6790146102bb5780638da5cb5b146102ce5780638f90ae5a146102e957600080fd5b80633fe3347a116101665780634ea3871a116101405780634ea3871a1461025c5780635e3109e71461026f57806370a082311461028a578063715018a6146102b357600080fd5b80633fe3347a1461022c57806340c10f191461023457806342966c681461024957600080fd5b806306fdde03146101ae578063095ea7b3146101cc57806318160ddd146101ef57806323b872dd14610201578063313ce567146102145780633bcfc4b814610223575b600080fd5b6101b66103b9565b6040516101c39190610dc6565b60405180910390f35b6101df6101da366004610dfc565b61044b565b60405190151581526020016101c3565b6002545b6040519081526020016101c3565b6101df61020f366004610e26565b610465565b604051601281526020016101c3565b6101f360095481565b6101b6610489565b610247610242366004610dfc565b610517565b005b610247610257366004610e62565b610617565b61024761026a366004610e7b565b610624565b61027761063f565b6040516101c39796959493929190610e9d565b6101f3610298366004610eed565b6001600160a01b031660009081526020819052604090205490565b610247610792565b6102476102c9366004610dfc565b6107a6565b6005546040516001600160a01b0390911681526020016101c3565b6101f360085481565b6101b66107bf565b600b546101df9060ff1681565b6101df610315366004610dfc565b6107ce565b610247610328366004610e62565b6107dc565b6101b661082a565b6101f3600a5481565b6101f3600c5481565b610247610355366004610e62565b610837565b6101f3610368366004610f08565b6001600160a01b03918216600090815260016020908152604080832093909416825291909152205490565b6102476103a1366004610eed565b610925565b6102476103b4366004610e62565b610960565b6060600380546103c890610f3b565b80601f01602080910402602001604051908101604052809291908181526020018280546103f490610f3b565b80156104415780601f1061041657610100808354040283529160200191610441565b820191906000526020600020905b81548152906001019060200180831161042457829003601f168201915b5050505050905090565b6000336104598185856109a6565b60019150505b92915050565b6000336104738582856109b8565b61047e858585610a37565b506001949350505050565b6007805461049690610f3b565b80601f01602080910402602001604051908101604052809291908181526020018280546104c290610f3b565b801561050f5780601f106104e45761010080835404028352916020019161050f565b820191906000526020600020905b8154815290600101906020018083116104f257829003601f168201915b505050505081565b61051f610a96565b600b5460ff1661056c5760405162461bcd60e51b8152602060048201526013602482015272135a5b9d1a5b99c81a5cc8191a5cd8589b1959606a1b60448201526064015b60405180910390fd5b600c548161057960025490565b6105839190610f75565b11156105c65760405162461bcd60e51b815260206004820152601260248201527145786365656473206d617820737570706c7960701b6044820152606401610563565b6105d08282610ac3565b604080518281524260208201526001600160a01b038416917fae6f573e24512836b8d9f28578ff4ce358e90bc8ef0bfc89838fe2775ed6b294910160405180910390a25050565b6106213382610af9565b50565b61062c610a96565b600b805460ff1916911515919091179055565b606080600080600080600060066007600854600954600a5461066060025490565b600c5486805461066f90610f3b565b80601f016020809104026020016040519081016040528092919081815260200182805461069b90610f3b565b80156106e85780601f106106bd576101008083540402835291602001916106e8565b820191906000526020600020905b8154815290600101906020018083116106cb57829003601f168201915b505050505096508580546106fb90610f3b565b80601f016020809104026020016040519081016040528092919081815260200182805461072790610f3b565b80156107745780601f1061074957610100808354040283529160200191610774565b820191906000526020600020905b81548152906001019060200180831161075757829003601f168201915b50505050509550965096509650965096509650965090919293949596565b61079a610a96565b6107a46000610b2f565b565b6107b18233836109b8565b6107bb8282610af9565b5050565b6060600480546103c890610f3b565b600033610459818585610a37565b6107e4610a96565b600a80549082905560408051828152602081018490527fa48099c9062f9d4078fbda2b682d4671df1c2da28c684ac0a45d02393cca13fe91015b60405180910390a15050565b6006805461049690610f3b565b3360009081526020819052604090205481111561088d5760405162461bcd60e51b8152602060048201526014602482015273496e73756666696369656e742062616c616e636560601b6044820152606401610563565b600a54156108df57600a544210156108df5760405162461bcd60e51b8152602060048201526015602482015274105cdcd95d081b9bdd081b585d1d5c9959081e595d605a1b6044820152606401610563565b6108e881610617565b6040805182815242602082015233917f9e6d67515e2bbe86f12a5db49672c07b83805378d93a9c3a41e5350af97b65b3910160405180910390a250565b61092d610a96565b6001600160a01b03811661095757604051631e4fbdf760e01b815260006004820152602401610563565b61062181610b2f565b610968610a96565b600980549082905560408051828152602081018490527f787a1fca55641ce34a438271930bbb9401df20db2b4f510d4f252227d85df43d910161081e565b6109b38383836001610b81565b505050565b6001600160a01b03838116600090815260016020908152604080832093861683529290522054600019811015610a315781811015610a2257604051637dc7a0d960e11b81526001600160a01b03841660048201526024810182905260448101839052606401610563565b610a3184848484036000610b81565b50505050565b6001600160a01b038316610a6157604051634b637e8f60e11b815260006004820152602401610563565b6001600160a01b038216610a8b5760405163ec442f0560e01b815260006004820152602401610563565b6109b3838383610c56565b6005546001600160a01b031633146107a45760405163118cdaa760e01b8152336004820152602401610563565b6001600160a01b038216610aed5760405163ec442f0560e01b815260006004820152602401610563565b6107bb60008383610c56565b6001600160a01b038216610b2357604051634b637e8f60e11b815260006004820152602401610563565b6107bb82600083610c56565b600580546001600160a01b038381166001600160a01b0319831681179093556040519116919082907f8be0079c531659141344cd1fd0a4f28419497f9722a3daafe3b4186f6b6457e090600090a35050565b6001600160a01b038416610bab5760405163e602df0560e01b815260006004820152602401610563565b6001600160a01b038316610bd557604051634a1406b160e11b815260006004820152602401610563565b6001600160a01b0380851660009081526001602090815260408083209387168352929052208290558015610a3157826001600160a01b0316846001600160a01b03167f8c5be1e5ebec7d5bd14f71427d1e84f3dd0314c0f7b2291e5b200ac8c7c3b92584604051610c4891815260200190565b60405180910390a350505050565b6001600160a01b038316610c81578060026000828254610c769190610f75565b90915550610cf39050565b6001600160a01b03831660009081526020819052604090205481811015610cd45760405163391434e360e21b81526001600160a01b03851660048201526024810182905260448101839052606401610563565b6001600160a01b03841660009081526020819052604090209082900390555b6001600160a01b038216610d0f57600280548290039055610d2e565b6001600160a01b03821660009081526020819052604090208054820190555b816001600160a01b0316836001600160a01b03167fddf252ad1be2c89b69c2b068fc378daa952ba7f163c4a11628f55a4df523b3ef83604051610d7391815260200190565b60405180910390a3505050565b6000815180845260005b81811015610da657602081850181015186830182015201610d8a565b506000602082860101526020601f19601f83011685010191505092915050565b602081526000610dd96020830184610d80565b9392505050565b80356001600160a01b0381168114610df757600080fd5b919050565b60008060408385031215610e0f57600080fd5b610e1883610de0565b946020939093013593505050565b600080600060608486031215610e3b57600080fd5b610e4484610de0565b9250610e5260208501610de0565b9150604084013590509250925092565b600060208284031215610e7457600080fd5b5035919050565b600060208284031215610e8d57600080fd5b81358015158114610dd957600080fd5b60e081526000610eb060e083018a610d80565b8281036020840152610ec2818a610d80565b604084019890985250506060810194909452608084019290925260a083015260c09091015292915050565b600060208284031215610eff57600080fd5b610dd982610de0565b60008060408385031215610f1b57600080fd5b610f2483610de0565b9150610f3260208401610de0565b90509250929050565b600181811c90821680610f4f57607f821691505b602082108103610f6f57634e487b7160e01b600052602260045260246000fd5b50919050565b8082018082111561045f57634e487b7160e01b600052601160045260246000fdfea26469706673582212209f71f0aee6f36fbdecdd6c195f20c45b6d79431aef018f2b99815e7f3924952f64736f6c63430008140033",
  "linkReferences": {},
  "deployedLinkReferences": {}
}