{
  "_format": "hh-sol-artifact-1",
  "contractName": "QuantumEscrow",
  "sourceName": "contracts/QuantumEscrow.sol",
  "abi": [
    {
      "inputs": [],
      "stateMutability": "nonpayable",
      "type": "constructor"
    },
    {
      "inputs": [
        {
          "internalType": "address",
          "name": "owner",
          "type": "address"
        }
      ],
      "name": "OwnableInvalidOwner",
      "type": "error"
    },
    {
      "inputs": [
        {
          "internalType": "address",
          "name": "account",
          "type": "address"
        }
      ],
      "name": "OwnableUnauthorizedAccount",
      "type": "error"
    },
    {
      "inputs": [],
      "name": "ReentrancyGuardReentrantCall",
      "type": "error"
    },
    {
      "anonymous": false,
      "inputs": [
        {
          "indexed": true,
          "internalType": "uint256",
          "name": "escrowId",
          "type": "uint256"
        },
        {
          "indexed": true,
          "internalType": "address",
          "name": "depositor",
          "type": "address"
        },
        {
          "indexed": false,
          "internalType": "uint256",
          "name": "amount",
          "type": "uint256"
        },
        {
          "indexed": false,
          "internalType": "uint256",
          "name": "timestamp",
          "type": "uint256"
        }
      ],
      "name": "EscrowCancelled",
      "type": "event"
    },
    {
      "anonymous": false,
      "inputs": [
        {
          "indexed": true,
          "internalType": "uint256",
          "name": "escrowId",
          "type": "uint256"
        },
        {
          "indexed": true,
          "internalType": "address",
          "name": "depositor",
          "type": "address"
        },
        {
          "indexed": true,
          "internalType": "address",
          "name": "beneficiary",
          "type": "address"
        },
        {
          "indexed": false,
          "internalType": "address",
          "name": "tokenAddress",
          "type": "address"
        },
        {
          "indexed": false,
          "internalType": "uint256",
          "name": "amount",
          "type": "uint256"
        },
        {
          "indexed": false,
          "internalType": "uint256",
          "name": "releaseTime",
          "type": "uint256"
        },
        {
          "indexed": false,
          "internalType": "bool",
          "name": "quantumEnabled",
          "type": "bool"
        }
      ],
      "name": "EscrowCreated",
      "type": "event"
    },
    {
      "anonymous": false,
      "inputs": [
        {
          "indexed": true,
          "internalType": "uint256",
          "name": "escrowId",
          "type": "uint256"
        },
        {
          "indexed": true,
          "internalType": "address",
          "name": "depositor",
          "type": "address"
        },
        {
          "indexed": false,
          "internalType": "uint256",
          "name": "amount",
          "type": "uint256"
        },
        {
          "indexed": false,
          "internalType": "uint256",
          "name": "timestamp",
          "type": "uint256"
        }
      ],
      "name": "EscrowExpired",
      "type": "event"
    },
    {
      "anonymous": false,
      "inputs": [
        {
          "indexed": true,
          "internalType": "uint256",
          "name": "escrowId",
          "type": "uint256"
        },
        {
          "indexed": true,
          "internalType": "address",
          "name": "beneficiary",
          "type": "address"
        },
        {
          "indexed": false,
          "internalType": "uint256",
          "name": "amount",
          "type": "uint256"
        },
        {
          "indexed": false,
          "internalType": "uint256",
          "name": "timestamp",
          "type": "uint256"
        }
      ],
      "name": "EscrowReleased",
      "type": "event"
    },
    {
      "anonymous": false,
      "inputs": [
        {
          "indexed": true,
          "internalType": "address",
          "name": "recipient",
          "type": "address"
        },
        {
          "indexed": false,
          "internalType": "uint256",
          "name": "amount",
          "type": "uint256"
        }
      ],
      "name": "FeesWithdrawn",
      "type": "event"
    },
    {
      "anonymous": false,
      "inputs": [
        {
          "indexed": true,
          "internalType": "address",
          "name": "previousOwner",
          "type": "address"
        },
        {
          "indexed": true,
          "internalType": "address",
          "name": "newOwner",
          "type": "address"
        }
      ],
      "name": "OwnershipTransferred",
      "type": "event"
    },
    {
      "anonymous": false,
      "inputs": [
        {
          "indexed": false,
          "internalType": "uint256",
          "name": "oldFee",
          "type": "uint256"
        },
        {
          "indexed": false,
          "internalType": "uint256",
          "name": "newFee",
          "type": "uint256"
        }
      ],
      "name": "PlatformFeeUpdated",
      "type": "event"
    },
    {
      "inputs": [
        {
          "internalType": "uint256",
          "name": "",
          "type": "uint256"
        }
      ],
      "name": "activeEscrowIds",
      "outputs": [
        {
          "internalType": "uint256",
          "name": "",
          "type": "uint256"
        }
      ],
      "stateMutability": "view",
      "type": "function"
    },
    {
      "inputs": [
        {
          "internalType": "uint256",
          "name": "escrowId",
          "type": "uint256"
        }
      ],
      "name": "cancelEscrow",
      "outputs": [],
      "stateMutability": "nonpayable",
      "type": "function"
    },
    {
      "inputs": [
        {
          "internalType": "uint256",
          "name": "escrowId",
          "type": "uint256"
        }
      ],
      "name": "checkExpiration",
      "outputs": [],
      "stateMutability": "nonpayable",
      "type": "function"
    },
    {
      "inputs": [
        {
          "internalType": "address",
          "name": "beneficiary",
          "type": "address"
        },
        {
          "internalType": "address",
          "name": "tokenAddress",
          "type": "address"
        },
        {
          "internalType": "uint256",
          "name": "amount",
          "type": "uint256"
        },
        {
          "internalType": "uint256",
          "name": "releaseTime",
          "type": "uint256"
        },
        {
          "internalType": "string",
          "name": "metadata",
          "type": "string"
        },
        {
          "internalType": "bool",
          "name": "quantumEnabled",
          "type": "bool"
        }
      ],
      "name": "createEscrow",
      "outputs": [
        {
          "internalType": "uint256",
          "name": "",
          "type": "uint256"
        }
      ],
      "stateMutability": "nonpayable",
      "type": "function"
    },
    {
      "inputs": [
        {
          "internalType": "uint256",
          "name": "",
          "type": "uint256"
        }
      ],
      "name": "escrows",
      "outputs": [
        {
          "internalType": "uint256",
          "name": "id",
          "type": "uint256"
        },
        {
          "internalType": "address",
          "name": "depositor",
          "type": "address"
        },
        {
          "internalType": "address",
          "name": "beneficiary",
          "type": "address"
        },
        {
          "internalType": "address",
          "name": "tokenAddress",
          "type": "address"
        },
        {
          "internalType": "uint256",
          "name": "amount",
          "type": "uint256"
        },
        {
          "internalType": "uint256",
          "name": "releaseTime",
          "type": "uint256"
        },
        {
          "internalType": "uint256",
          "name": "createdAt",
          "type": "uint256"
        },
        {
          "internalType": "enum QuantumEscrow.EscrowStatus",
          "name": "status",
          "type": "uint8"
        },
        {
          "internalType": "string",
          "name": "metadata",
          "type": "string"
        },
        {
          "internalType": "bool",
          "name": "quantumEnabled",
          "type": "bool"
        }
      ],
      "stateMutability": "view",
      "type": "function"
    },
    {
      "inputs": [],
      "name": "getActiveEscrows",
      "outputs": [
        {
          "internalType": "uint256[]",
          "name": "",
          "type": "uint256[]"
        }
      ],
      "stateMutability": "view",
      "type": "function"
    },
    {
      "inputs": [
        {
          "internalType": "uint256",
          "name": "escrowId",
          "type": "uint256"
        }
      ],
      "name": "getEscrow",
      "outputs": [
        {
          "components": [
            {
              "internalType": "uint256",
              "name": "id",
              "type": "uint256"
            },
            {
              "internalType": "address",
              "name": "depositor",
              "type": "address"
            },
            {
              "internalType": "address",
              "name": "beneficiary",
              "type": "address"
            },
            {
              "internalType": "address",
              "name": "tokenAddress",
              "type": "address"
            },
            {
              "internalType": "uint256",
              "name": "amount",
              "type": "uint256"
            },
            {
              "internalType": "uint256",
              "name": "releaseTime",
              "type": "uint256"
            },
            {
              "internalType": "uint256",
              "name": "createdAt",
              "type": "uint256"
            },
            {
              "internalType": "enum QuantumEscrow.EscrowStatus",
              "name": "status",
              "type": "uint8"
            },
            {
              "internalType": "string",
              "name": "metadata",
              "type": "string"
            },
            {
              "internalType": "bool",
              "name": "quantumEnabled",
              "type": "bool"
            }
          ],
          "internalType": "struct QuantumEscrow.Escrow",
          "name": "",
          "type": "tuple"
        }
      ],
      "stateMutability": "view",
      "type": "function"
    },
    {
      "inputs": [],
      "name": "getEscrowStats",
      "outputs": [
        {
          "internalType": "uint256",
          "name": "totalEscrows",
          "type": "uint256"
        },
        {
          "internalType": "uint256",
          "name": "activeEscrowsCount",
          "type": "uint256"
        },
        {
          "internalType": "uint256",
          "name": "totalEscrowedAmount",
          "type": "uint256"
        },
        {
          "internalType": "uint256",
          "name": "quantumEnabledCount",
          "type": "uint256"
        }
      ],
      "stateMutability": "view",
      "type": "function"
    },
    {
      "inputs": [
        {
          "internalType": "address",
          "name": "user",
          "type": "address"
        }
      ],
      "name": "getUserEscrows",
      "outputs": [
        {
          "internalType": "uint256[]",
          "name": "",
          "type": "uint256[]"
        }
      ],
      "stateMutability": "view",
      "type": "function"
    },
    {
      "inputs": [],
      "name": "maxEscrowDuration",
      "outputs": [
        {
          "internalType": "uint256",
          "name": "",
          "type": "uint256"
        }
      ],
      "stateMutability": "view",
      "type": "function"
    },
    {
      "inputs": [],
      "name": "minEscrowDuration",
      "outputs": [
        {
          "internalType": "uint256",
          "name": "",
          "type": "uint256"
        }
      ],
      "stateMutability": "view",
      "type": "function"
    },
    {
      "inputs": [],
      "name": "owner",
      "outputs": [
        {
          "internalType": "address",
          "name": "",
          "type": "address"
        }
      ],
      "stateMutability": "view",
      "type": "function"
    },
    {
      "inputs": [],
      "name": "platformFee",
      "outputs": [
        {
          "internalType": "uint256",
          "name": "",
          "type": "uint256"
        }
      ],
      "stateMutability": "view",
      "type": "function"
    },
    {
      "inputs": [
        {
          "internalType": "uint256",
          "name": "escrowId",
          "type": "uint256"
        }
      ],
      "name": "releaseEscrow",
      "outputs": [],
      "stateMutability": "nonpayable",
      "type": "function"
    },
    {
      "inputs": [],
      "name": "renounceOwnership",
      "outputs": [],
      "stateMutability": "nonpayable",
      "type": "function"
    },
    {
      "inputs": [
        {
          "internalType": "address",
          "name": "_usdcToken",
          "type": "address"
        }
      ],
      "name": "setUSDCToken",
      "outputs": [],
      "stateMutability": "nonpayable",
      "type": "function"
    },
    {
      "inputs": [
        {
          "internalType": "address",
          "name": "newOwner",
          "type": "address"
        }
      ],
      "name": "transferOwnership",
      "outputs": [],
      "stateMutability": "nonpayable",
      "type": "function"
    },
    {
      "inputs": [
        {
          "internalType": "uint256",
          "name": "newDuration",
          "type": "uint256"
        }
      ],
      "name": "updateMaxEscrowDuration",
      "outputs": [],
      "stateMutability": "nonpayable",
      "type": "function"
    },
    {
      "inputs": [
        {
          "internalType": "uint256",
          "name": "newDuration",
          "type": "uint256"
        }
      ],
      "name": "updateMinEscrowDuration",
      "outputs": [],
      "stateMutability": "nonpayable",
      "type": "function"
    },
    {
      "inputs": [
        {
          "internalType": "uint256",
          "name": "newFee",
          "type": "uint256"
        }
      ],
      "name": "updatePlatformFee",
      "outputs": [],
      "stateMutability": "nonpayable",
      "type": "function"
    },
    {
      "inputs": [],
      "name": "usdcToken",
      "outputs": [
        {
          "internalType": "address",
          "name": "",
          "type": "address"
        }
      ],
      "stateMutability": "view",
      "type": "function"
    },
    {
      "inputs": [
        {
          "internalType": "address",
          "name": "",
          "type": "address"
        },
        {
          "internalType": "uint256",
          "name": "",
          "type": "uint256"
        }
      ],
      "name": "userEscrows",
      "outputs": [
        {
          "internalType": "uint256",
          "name": "",
          "type": "uint256"
        }
      ],
      "stateMutability": "view",
      "type": "function"
    },
    {
      "inputs": [],
      "name": "withdrawFees",
      "outputs": [],
      "stateMutability": "nonpayable",
      "type": "function"
    }
  ],
  "bytecode": "0x6080604052603260065562278d006007556312cc030060085534801561002457600080fd5b50338061004b57604051631e4fbdf760e01b81526000600482015260240160405180910390fd5b61005481610082565b5060017f9b779b17422d0df92223018b32b4d1fa46e071723d6817e2486d003becc55f0055600180556100d2565b600080546001600160a01b038381166001600160a01b0319831681178455604051919092169283917f8be0079c531659141344cd1fd0a4f28419497f9722a3daafe3b4186f6b6457e09190a35050565b611eb9806100e16000396000f3fe608060405234801561001057600080fd5b506004361061014d5760003560e01c80637d19e596116100c3578063acff2b091161007c578063acff2b09146102bf578063c870e74f146102e7578063e0182436146102f0578063e638171414610303578063ed65316414610316578063f2fde38b1461032957600080fd5b80637d19e596146102425780637f944dd0146102625780638571f999146102755780638da5cb5b14610288578063a5dc196f14610299578063aa0b5988146102ac57600080fd5b8063475cc88e11610115578063475cc88e146101ee578063476343ee146102035780635ccea85e1461020b57806370da8b5e1461021e578063715018a614610227578063723931ca1461022f57600080fd5b8063012f52ee146101525780630f5a9d011461018457806311eac855146101995780631948b764146101c457806326232a2e146101e5575b600080fd5b610165610160366004611865565b61033c565b60405161017b9a999897969594939291906118fc565b60405180910390f35b61019761019236600461198f565b61042e565b005b6005546101ac906001600160a01b031681565b6040516001600160a01b03909116815260200161017b565b6101d76101d2366004611865565b6104aa565b60405190815260200161017b565b6101d760065481565b6101f66104cb565b60405161017b91906119b1565b610197610523565b6101f661021936600461198f565b61068e565b6101d760085481565b6101976106fa565b61019761023d366004611865565b61070e565b610255610250366004611865565b610896565b60405161017b91906119f5565b6101d7610270366004611aab565b610a33565b610197610283366004611865565b610a64565b6000546001600160a01b03166101ac565b6101d76102a7366004611b04565b610ab9565b6101976102ba366004611865565b610fa9565b6102c7611037565b60408051948552602085019390935291830152606082015260800161017b565b6101d760075481565b6101976102fe366004611865565b61121c565b610197610311366004611865565b611420565b610197610324366004611865565b611475565b61019761033736600461198f565b6116a5565b600260208190526000918252604090912080546001820154928201546003830154600484015460058501546006860154600787015460088801805497996001600160a01b03908116999781169896169694959394929360ff90921692916103a290611bf9565b80601f01602080910402602001604051908101604052809291908181526020018280546103ce90611bf9565b801561041b5780601f106103f05761010080835404028352916020019161041b565b820191906000526020600020905b8154815290600101906020018083116103fe57829003601f168201915b5050506009909301549192505060ff168a565b6104366116e0565b6001600160a01b0381166104885760405162461bcd60e51b8152602060048201526014602482015273496e76616c69642055534443206164647265737360601b60448201526064015b60405180910390fd5b600580546001600160a01b0319166001600160a01b0392909216919091179055565b600381815481106104ba57600080fd5b600091825260209091200154905081565b6060600380548060200260200160405190810160405280929190818152602001828054801561051957602002820191906000526020600020905b815481526020019060010190808311610505575b5050505050905090565b61052b6116e0565b6005546040516370a0823160e01b81523060048201526000916001600160a01b0316906370a0823190602401602060405180830381865afa158015610574573d6000803e3d6000fd5b505050506040513d601f19601f820116820180604052508101906105989190611c33565b9050600081116105e05760405162461bcd60e51b81526020600482015260136024820152724e6f206665657320746f20776974686472617760681b604482015260640161047f565b60055460405163a9059cbb60e01b8152336004820152602481018390526001600160a01b039091169063a9059cbb906044016020604051808303816000875af1158015610631573d6000803e3d6000fd5b505050506040513d601f19601f820116820180604052508101906106559190611c4c565b5060405181815233907fc0819c13be868895eb93e40eaceb96de976442fa1d404e5c55f14bb65a8c489a9060200160405180910390a250565b6001600160a01b0381166000908152600460209081526040918290208054835181840281018401909452808452606093928301828280156106ee57602002820191906000526020600020905b8154815260200190600101908083116106da575b50505050509050919050565b6107026116e0565b61070c600061170d565b565b60008181526002602052604090206001600782015460ff1660048111156107375761073761187e565b146107545760405162461bcd60e51b815260040161047f90611c69565b60058101546107669062278d00611caa565b42116107a65760405162461bcd60e51b815260206004820152600f60248201526e139bdd08195e1c1a5c9959081e595d608a1b604482015260640161047f565b6003810154600182015460048084015460405163a9059cbb60e01b81526001600160a01b0393841692810192909252602482015291169063a9059cbb906044016020604051808303816000875af1158015610805573d6000803e3d6000fd5b505050506040513d601f19601f820116820180604052508101906108299190611c4c565b5060078101805460ff191660041790556108428261175d565b60018101546004820154604080519182524260208301526001600160a01b039092169184917fe7c40e1da95e43951c76fb2f17d14107bd80a4b572c45097417b94f35da84202910160405180910390a35050565b604080516101408101825260008082526020820181905291810182905260608082018390526080820183905260a0820183905260c0820183905260e082018390526101008201526101208101919091526000828152600260208181526040928390208351610140810185528154815260018201546001600160a01b03908116938201939093529281015482169383019390935260038301541660608201526004808301546080830152600583015460a0830152600683015460c0830152600783015491929160e084019160ff909116908111156109755761097561187e565b60048111156109865761098661187e565b815260200160088201805461099a90611bf9565b80601f01602080910402602001604051908101604052809291908181526020018280546109c690611bf9565b8015610a135780601f106109e857610100808354040283529160200191610a13565b820191906000526020600020905b8154815290600101906020018083116109f657829003601f168201915b50505091835250506009919091015460ff16151560209091015292915050565b60046020528160005260406000208181548110610a4f57600080fd5b90600052602060002001600091509150505481565b610a6c6116e0565b63bbf81e00811115610ab45760405162461bcd60e51b81526020600482015260116024820152704475726174696f6e20746f6f206c6f6e6760781b604482015260640161047f565b600855565b6000610ac3611819565b6001600160a01b038716610b0f5760405162461bcd60e51b8152602060048201526013602482015272496e76616c69642062656e656669636961727960681b604482015260640161047f565b336001600160a01b03881603610b675760405162461bcd60e51b815260206004820152601960248201527f43616e6e6f74206265206f776e2062656e656669636961727900000000000000604482015260640161047f565b6001600160a01b038616610bb55760405162461bcd60e51b8152602060048201526015602482015274496e76616c696420746f6b656e206164647265737360581b604482015260640161047f565b60008511610c055760405162461bcd60e51b815260206004820152601d60248201527f416d6f756e74206d7573742062652067726561746572207468616e2030000000604482015260640161047f565b428411610c545760405162461bcd60e51b815260206004820152601e60248201527f52656c656173652074696d65206d75737420626520696e206675747572650000604482015260640161047f565b6000610c604286611cc3565b9050600754811015610ca95760405162461bcd60e51b8152602060048201526012602482015271111d5c985d1a5bdb881d1bdbc81cda1bdc9d60721b604482015260640161047f565b600854811115610cef5760405162461bcd60e51b81526020600482015260116024820152704475726174696f6e20746f6f206c6f6e6760781b604482015260640161047f565b6040516323b872dd60e01b8152336004820152306024820152604481018790526001600160a01b038816906323b872dd906064016020604051808303816000875af1158015610d42573d6000803e3d6000fd5b505050506040513d601f19601f82011682018060405250810190610d669190611c4c565b506001805460009182610d7883611cd6565b919050559050604051806101400160405280828152602001336001600160a01b031681526020018a6001600160a01b03168152602001896001600160a01b0316815260200188815260200187815260200142815260200160016004811115610de257610de261187e565b8152602080820188905286151560409283015260008481526002808352908390208451815591840151600180840180546001600160a01b03199081166001600160a01b03948516179091559486015192840180548616938316939093179092556060850151600384018054909516911617909255608083015160048083019190915560a0840151600583015560c0840151600683015560e084015160078301805493949193909260ff1990911691908490811115610ea257610ea261187e565b02179055506101008201516008820190610ebc9082611d3e565b5061012091909101516009909101805460ff19169115159190911790556003805460018181019092557fc2575a0e9e593c00f959f8c92f12db2869c3395a3b0502d05e2516446f71f85b018290553360008181526004602090815260408083208054958601815583529181902090930184905580516001600160a01b038c811682529381018b90529081018990528615156060820152918b169183907fc4c12f06a20d0b834b14aac68dda6ff16c25c58fac151e5bc8830cbee0e35ac19060800160405180910390a4915050610f9f6001600080516020611e6483398151915255565b9695505050505050565b610fb16116e0565b6101f4811115610ff25760405162461bcd60e51b815260206004820152600c60248201526b08ccaca40e8dede40d0d2ced60a31b604482015260640161047f565b600680549082905560408051828152602081018490527fd347e206f25a89b917fc9482f1a2d294d749baa4dc9bde7fb495ee11fe491643910160405180910390a15050565b60008060008060008060005b6003548110156111fc576000600260006003848154811061106657611066611dfe565b6000918252602080832090910154835282810193909352604091820190208151610140810183528154815260018201546001600160a01b03908116948201949094526002820154841692810192909252600381015490921660608201526004808301546080830152600583015460a0830152600683015460c0830152600783015491929160e084019160ff909116908111156111045761110461187e565b60048111156111155761111561187e565b815260200160088201805461112990611bf9565b80601f016020809104026020016040519081016040528092919081815260200182805461115590611bf9565b80156111a25780601f10611177576101008083540402835291602001916111a2565b820191906000526020600020905b81548152906001019060200180831161118557829003601f168201915b50505091835250506009919091015460ff16151560209091015260808101519091506111ce9085611caa565b9350806101200151156111e957826111e581611cd6565b9350505b50806111f481611cd6565b915050611043565b506001805461120b9190611cc3565b600354909790965091945092509050565b611224611819565b60008181526002602052604090206001600782015460ff16600481111561124d5761124d61187e565b1461126a5760405162461bcd60e51b815260040161047f90611c69565b60018101546001600160a01b031633146112c65760405162461bcd60e51b815260206004820152601960248201527f4f6e6c79206465706f7369746f722063616e2063616e63656c00000000000000604482015260640161047f565b806005015442106113195760405162461bcd60e51b815260206004820181905260248201527f43616e6e6f742063616e63656c2061667465722072656c656173652074696d65604482015260640161047f565b6003810154600182015460048084015460405163a9059cbb60e01b81526001600160a01b0393841692810192909252602482015291169063a9059cbb906044016020604051808303816000875af1158015611378573d6000803e3d6000fd5b505050506040513d601f19601f8201168201806040525081019061139c9190611c4c565b5060078101805460ff191660031790556113b58261175d565b60018101546004820154604080519182524260208301526001600160a01b039092169184917f9cbb559b6781d2ec602f3b43124b009cef3c77120507d3fab248055f03fcddb1910160405180910390a35061141d6001600080516020611e6483398151915255565b50565b6114286116e0565b620151808110156114705760405162461bcd60e51b8152602060048201526012602482015271111d5c985d1a5bdb881d1bdbc81cda1bdc9d60721b604482015260640161047f565b600755565b61147d611819565b60008181526002602052604090206001600782015460ff1660048111156114a6576114a661187e565b146114c35760405162461bcd60e51b815260040161047f90611c69565b80600501544210156115175760405162461bcd60e51b815260206004820152601860248201527f52656c656173652074696d65206e6f7420726561636865640000000000000000604482015260640161047f565b60028101546001600160a01b031633146115735760405162461bcd60e51b815260206004820152601c60248201527f4f6e6c792062656e65666963696172792063616e2072656c6561736500000000604482015260640161047f565b6000612710600654836004015461158a9190611e14565b6115949190611e2b565b905060008183600401546115a89190611cc3565b6003840154600285015460405163a9059cbb60e01b81526001600160a01b03918216600482015260248101849052929350169063a9059cbb906044016020604051808303816000875af1158015611603573d6000803e3d6000fd5b505050506040513d601f19601f820116820180604052508101906116279190611c4c565b5060078301805460ff191660021790556116408461175d565b6002830154604080518381524260208201526001600160a01b039092169186917f07dd78b97459a0754e75d3d53bbd26afd8a683f317c40b50eea07d05c49f966b910160405180910390a350505061141d6001600080516020611e6483398151915255565b6116ad6116e0565b6001600160a01b0381166116d757604051631e4fbdf760e01b81526000600482015260240161047f565b61141d8161170d565b6000546001600160a01b0316331461070c5760405163118cdaa760e01b815233600482015260240161047f565b600080546001600160a01b038381166001600160a01b0319831681178455604051919092169283917f8be0079c531659141344cd1fd0a4f28419497f9722a3daafe3b4186f6b6457e09190a35050565b60005b60035481101561181557816003828154811061177e5761177e611dfe565b906000526020600020015403611803576003805461179e90600190611cc3565b815481106117ae576117ae611dfe565b9060005260206000200154600382815481106117cc576117cc611dfe565b60009182526020909120015560038054806117e9576117e9611e4d565b600190038181906000526020600020016000905590555050565b8061180d81611cd6565b915050611760565b5050565b611821611835565b6002600080516020611e6483398151915255565b600080516020611e648339815191525460020361070c57604051633ee5aeb560e01b815260040160405180910390fd5b60006020828403121561187757600080fd5b5035919050565b634e487b7160e01b600052602160045260246000fd5b600581106118b257634e487b7160e01b600052602160045260246000fd5b9052565b6000815180845260005b818110156118dc576020818501810151868301820152016118c0565b506000602082860101526020601f19601f83011685010191505092915050565b8a81526001600160a01b038a811660208301528981166040830152881660608201526080810187905260a0810186905260c08101859052600061014061194560e0840187611894565b80610100840152611958818401866118b6565b9150508215156101208301529b9a5050505050505050505050565b80356001600160a01b038116811461198a57600080fd5b919050565b6000602082840312156119a157600080fd5b6119aa82611973565b9392505050565b6020808252825182820181905260009190848201906040850190845b818110156119e9578351835292840192918401916001016119cd565b50909695505050505050565b602081528151602082015260006020830151611a1c60408401826001600160a01b03169052565b5060408301516001600160a01b03811660608401525060608301516001600160a01b038116608084015250608083015160a083015260a083015160c083015260c083015160e083015260e0830151610100611a7981850183611894565b808501519150506101406101208181860152611a996101608601846118b6565b95015115159301929092525090919050565b60008060408385031215611abe57600080fd5b611ac783611973565b946020939093013593505050565b634e487b7160e01b600052604160045260246000fd5b801515811461141d57600080fd5b803561198a81611aeb565b60008060008060008060c08789031215611b1d57600080fd5b611b2687611973565b9550611b3460208801611973565b94506040870135935060608701359250608087013567ffffffffffffffff80821115611b5f57600080fd5b818901915089601f830112611b7357600080fd5b813581811115611b8557611b85611ad5565b604051601f8201601f19908116603f01168101908382118183101715611bad57611bad611ad5565b816040528281528c6020848701011115611bc657600080fd5b826020860160208301376000602084830101528096505050505050611bed60a08801611af9565b90509295509295509295565b600181811c90821680611c0d57607f821691505b602082108103611c2d57634e487b7160e01b600052602260045260246000fd5b50919050565b600060208284031215611c4557600080fd5b5051919050565b600060208284031215611c5e57600080fd5b81516119aa81611aeb565b602080825260119082015270457363726f77206e6f742061637469766560781b604082015260600190565b634e487b7160e01b600052601160045260246000fd5b80820180821115611cbd57611cbd611c94565b92915050565b81810381811115611cbd57611cbd611c94565b600060018201611ce857611ce8611c94565b5060010190565b601f821115611d3957600081815260208120601f850160051c81016020861015611d165750805b601f850160051c820191505b81811015611d3557828155600101611d22565b5050505b505050565b815167ffffffffffffffff811115611d5857611d58611ad5565b611d6c81611d668454611bf9565b84611cef565b602080601f831160018114611da15760008415611d895750858301515b600019600386901b1c1916600185901b178555611d35565b600085815260208120601f198616915b82811015611dd057888601518255948401946001909101908401611db1565b5085821015611dee5787850151600019600388901b60f8161c191681555b5050505050600190811b01905550565b634e487b7160e01b600052603260045260246000fd5b8082028115828204841417611cbd57611cbd611c94565b600082611e4857634e487b7160e01b600052601260045260246000fd5b500490565b634e487b7160e01b600052603160045260246000fdfe9b779b17422d0df92223018b32b4d1fa46e071723d6817e2486d003becc55f00a264697066735822122084e1f80c97766d15c55c913d2769dd3177ebaa0ad1a711155a6ad7bd60b8620864736f6c63430008140033",
  "linkReferences": {},
  "deployedLinkReferences": {}
}